{"contracts/InferenceGuard.sol":{"InferenceGuard":{"abi":[{"inputs":[],"stateMutability":"nonpayable","type":"constructor"},{"inputs":[{"internalType":"address","name":"owner","type":"address"}],"name":"OwnableInvalidOwner","type":"error"},{"inputs":[{"internalType":"address","name":"account","type":"address"}],"name":"OwnableUnauthorizedAccount","type":"error"},{"anonymous":false,"inputs":[{"indexed":true,"internalType":"address","name":"consumer","type":"address"},{"indexed":false,"internalType":"bool","name":"authorized","type":"bool"}],"name":"AuthorizedConsumerSet","type":"event"},{"anonymous":false,"inputs":[{"indexed":true,"internalType":"address","name":"submitter","type":"address"},{"indexed":false,"internalType":"bool","name":"authorized","type":"bool"}],"name":"AuthorizedSubmitterSet","type":"event"},{"anonymous":false,"inputs":[{"indexed":true,"internalType":"address","name":"previousOwner","type":"address"},{"indexed":true,"internalType":"address","name":"newOwner","type":"address"}],"name":"OwnershipTransferred","type":"event"},{"anonymous":false,"inputs":[{"indexed":true,"internalType":"bytes32","name":"executionId","type":"bytes32"},{"indexed":false,"internalType":"address","name":"consumer","type":"address"}],"name":"ProofConsumed","type":"event"},{"anonymous":false,"inputs":[{"indexed":true,"internalType":"bytes32","name":"executionId","type":"bytes32"},{"indexed":false,"internalType":"bytes32","name":"rootHash","type":"bytes32"},{"indexed":false,"internalType":"address","name":"submitter","type":"address"}],"name":"ProofSubmitted","type":"event"},{"inputs":[{"internalType":"uint256","name":"","type":"uint256"}],"name":"allExecutionIds","outputs":[{"internalType":"bytes32","name":"","type":"bytes32"}],"stateMutability":"view","type":"function"},{"inputs":[{"internalType":"address","name":"","type":"address"}],"name":"authorizedConsumers","outputs":[{"internalType":"bool","name":"","type":"bool"}],"stateMutability":"view","type":"function"},{"inputs":[{"internalType":"address","name":"","type":"address"}],"name":"authorizedSubmitters","outputs":[{"internalType":"bool","name":"","type":"bool"}],"stateMutability":"view","type":"function"},{"inputs":[{"internalType":"bytes32","name":"executionId","type":"bytes32"}],"name":"consumeProof","outputs":[],"stateMutability":"nonpayable","type":"function"},{"inputs":[{"internalType":"bytes32","name":"executionId","type":"bytes32"}],"name":"getProof","outputs":[{"components":[{"internalType":"bytes32","name":"rootHash","type":"bytes32"},{"internalType":"address","name":"submitter","type":"address"},{"internalType":"uint256","name":"submittedAt","type":"uint256"},{"internalType":"bool","name":"consumed","type":"bool"},{"internalType":"bool","name":"exists","type":"bool"}],"internalType":"struct InferenceGuard.Proof","name":"","type":"tuple"}],"stateMutability":"view","type":"function"},{"inputs":[{"internalType":"uint256","name":"count","type":"uint256"}],"name":"getRecentProofs","outputs":[{"internalType":"bytes32[]","name":"","type":"bytes32[]"}],"stateMutability":"view","type":"function"},{"inputs":[{"internalType":"bytes32","name":"executionId","type":"bytes32"}],"name":"getRootHash","outputs":[{"internalType":"bytes32","name":"","type":"bytes32"}],"stateMutability":"view","type":"function"},{"inputs":[],"name":"getTotalProofs","outputs":[{"internalType":"uint256","name":"","type":"uint256"}],"stateMutability":"view","type":"function"},{"inputs":[{"internalType":"bytes32","name":"executionId","type":"bytes32"}],"name":"isProofValid","outputs":[{"internalType":"bool","name":"","type":"bool"}],"stateMutability":"view","type":"function"},{"inputs":[],"name":"owner","outputs":[{"internalType":"address","name":"","type":"address"}],"stateMutability":"view","type":"function"},{"inputs":[{"internalType":"bytes32","name":"","type":"bytes32"}],"name":"proofs","outputs":[{"internalType":"bytes32","name":"rootHash","type":"bytes32"},{"internalType":"address","name":"submitter","type":"address"},{"internalType":"uint256","name":"submittedAt","type":"uint256"},{"internalType":"bool","name":"consumed","type":"bool"},{"internalType":"bool","name":"exists","type":"bool"}],"stateMutability":"view","type":"function"},{"inputs":[],"name":"renounceOwnership","outputs":[],"stateMutability":"nonpayable","type":"function"},{"inputs":[{"internalType":"address","name":"consumer","type":"address"},{"internalType":"bool","name":"authorized","type":"bool"}],"name":"setAuthorizedConsumer","outputs":[],"stateMutability":"nonpayable","type":"function"},{"inputs":[{"internalType":"address","name":"submitter","type":"address"},{"internalType":"bool","name":"authorized","type":"bool"}],"name":"setAuthorizedSubmitter","outputs":[],"stateMutability":"nonpayable","type":"function"},{"inputs":[{"internalType":"bytes32","name":"executionId","type":"bytes32"},{"internalType":"bytes32","name":"rootHash","type":"bytes32"}],"name":"submitProof","outputs":[],"stateMutability":"nonpayable","type":"function"},{"inputs":[{"internalType":"address","name":"newOwner","type":"address"}],"name":"transferOwnership","outputs":[],"stateMutability":"nonpayable","type":"function"}],"evm":{"bytecode":{"linkReferences":{},"object":"608080604052346100a157331561008b5760008054336001600160a01b031982168117835560405192916001600160a01b03167f8be0079c531659141344cd1fd0a4f28419497f9722a3daafe3b4186f6b6457e08380a33381526002602052600160408083209260ff1993838582541617905560036020522091825416179055610bb590816100a78239f35b631e4fbdf760e01b815260006004820152602490fd5b600080fdfe6080604081815260048036101561001557600080fd5b600092833560e01c9081630705584014610a105750806311db2a7b1461086857806319d3137b146108215780631b80bb3a1461076e57806341fe0f711461070a578063444d95b0146106a85780634a83bc3a1461056b5780635197a0d3146105015780635f108639146104c95780636683bc6a146104a2578063715018a6146104455780637f6e9d4b146104075780638da5cb5b146103df578063968e72bd146101795780639b1bc0c91461015c5763f2fde38b146100d357600080fd5b34610158576020366003190112610158576100ec610a4b565b906100f5610b53565b6001600160a01b0391821692831561014257505082546001600160a01b0319811683178455167f8be0079c531659141344cd1fd0a4f28419497f9722a3daafe3b4186f6b6457e08380a380f35b51631e4fbdf760e01b8152908101849052602490fd5b8280fd5b503461015857826003193601126101585760209250549051908152f35b509190346103db57806003193601126103db5782359060243533845260206002815260ff838620541680156103c8575b15610372578385526001815260ff6003848720015460081c1661031d5781156102db576101d4610ae2565b82815281810133815261024a60038684019342855260608101948a86526080820194600186528a8c5260018852898c2092518355600183019060018060a01b039051166bffffffffffffffffffffffff60a01b8254161790555160028201550192511515839060ff801983541691151516179055565b51815461ff00191690151560081b61ff00161790558554680100000000000000008110156102c857807ffc21f0a5b79e60806354685c8551409839f9fd3d44d61b6147dd3722b3fffbed95969760016102a593019055610a95565b81549060031b9087821b91600019901b191617905582519182523390820152a280f35b634e487b7160e01b865260418752602486fd5b8560649184519162461bcd60e51b8352820152601d60248201527f496e666572656e636547756172643a207a65726f20726f6f74486173680000006044820152fd5b8560849184519162461bcd60e51b8352820152602a60248201527f496e666572656e636547756172643a20657865637574696f6e496420616c72656044820152696164792065786973747360b01b6064820152fd5b8560849184519162461bcd60e51b8352820152602b60248201527f496e666572656e636547756172643a206e6f7420616e20617574686f72697a6560448201526a321039bab136b4ba3a32b960a91b6064820152fd5b5084546001600160a01b031633146101a9565b5080fd5b5050346103db57816003193601126103db57905490516001600160a01b039091168152602090f35b5050346103db5760203660031901126103db5760209160ff9082906001600160a01b03610432610a4b565b1681526002855220541690519015158152f35b833461049f578060031936011261049f5761045e610b53565b80546001600160a01b03198116825581906001600160a01b03167f8be0079c531659141344cd1fd0a4f28419497f9722a3daafe3b4186f6b6457e08280a380f35b80fd5b50346101585760203660031901126101585760209282913581526001845220549051908152f35b50913461049f57602036600319011261049f578235925483101561049f57506104f3602092610a95565b91905490519160031b1c8152f35b5050346103db577f65e841597bbb405e702ab1f011f80e0d75035bcbcc1d0c9e30a06bcc9e140f8b602061053436610a66565b9061053d610b53565b6001600160a01b031680865260028352848620805460ff191660ff84151516179055935b519015158152a280f35b5034610158576020806003193601126106a45781549293601f939280358085111561069c5761059a9085610b18565b935b6105a68582610b18565b946105b086610b3b565b9588519688199889910116870187811067ffffffffffffffff82111761068957906105e4918a999896979a52808652610b3b565b8489019601368737805b828110610634575050505083519485948186019282875251809352850193925b82811061061d57505050500390f35b83518552869550938101939281019260010161060e565b61064381999695979899610a95565b905461064f8484610b18565b9189518310156106765760031b1c60059190911b88018701529497969593946001016105ee565b634e487b7160e01b885260328752602488fd5b634e487b7160e01b865260418552602486fd5b50819361059c565b8380fd5b5034610158576020366003190112610158578160a09360ff9235815260016020522091825492600180861b03600182015416916003600283015492015492815195865260208601528401528181161515606084015260081c1615156080820152f35b5050346103db577ffa648341f7c45a89a5ac85c79ba49a45167038f7e499f5c2d8fd43c124f30e4d602061073d36610a66565b90610746610b53565b6001600160a01b031680865260038352848620805460ff191660ff8415151617905593610561565b50346101585760203660031901126101585782829160a0946080610790610ae2565b828152826020820152828682015282606082015201523581526001602052206107b7610ae2565b815492838252600180861b0392836001820154169360208401948552600360028301549284860193845201549460ff6080606087019682891615158852019660081c1615158652835196875251166020860152519084015251151560608301525115156080820152f35b50346101585760203660031901126101585781602093600392358152600185522001549060ff8260081c16918261085c575b50519015158152f35b60ff1615915038610853565b50903461015857602090816003193601126106a4578235923385526003835260ff828620541680156109fd575b156109a9578385526001835260ff6003838720015460081c161561095c578385526001835260ff600383872001541661090c5750907f08b1b33b8154fcf0ae6423383a1288d26fa27b6dfb3b977af76439fc939846769183855260018252600381862001600160ff1982541617905551338152a280f35b82608492519162461bcd60e51b8352820152602660248201527f496e666572656e636547756172643a2070726f6f6620616c726561647920636f6044820152651b9cdd5b595960d21b6064820152fd5b82608492519162461bcd60e51b83528201526024808201527f496e666572656e636547756172643a2070726f6f6620646f6573206e6f7420656044820152631e1a5cdd60e21b6064820152fd5b82608492519162461bcd60e51b8352820152602a60248201527f496e666572656e636547756172643a206e6f7420616e20617574686f72697a65604482015269321031b7b739bab6b2b960b11b6064820152fd5b5084546001600160a01b03163314610895565b849084346101585760203660031901126101585760209260ff91906001600160a01b03610a3b610a4b565b1681526003855220541615158152f35b600435906001600160a01b0382168203610a6157565b600080fd5b6040906003190112610a61576004356001600160a01b0381168103610a6157906024358015158103610a615790565b600454811015610acc5760046000527f8a35acfbc15ff81a39ae7d344fd709f28e8600b4aa8c65c6b64bfe7fe36bd19b0190600090565b634e487b7160e01b600052603260045260246000fd5b6040519060a0820182811067ffffffffffffffff821117610b0257604052565b634e487b7160e01b600052604160045260246000fd5b91908203918211610b2557565b634e487b7160e01b600052601160045260246000fd5b67ffffffffffffffff8111610b025760051b60200190565b6000546001600160a01b03163303610b6757565b60405163118cdaa760e01b8152336004820152602490fdfea2646970667358221220ac9aa192786ad20e865a9159296412ec06d8ba90278594702995f65cb976b47964736f6c63430008180033","opcodes":"PUSH1 0x80 DUP1 PUSH1 0x40 MSTORE CALLVALUE PUSH2 0xA1 JUMPI CALLER ISZERO PUSH2 0x8B JUMPI PUSH1 0x0 DUP1 SLOAD CALLER PUSH1 0x1 PUSH1 0x1 PUSH1 0xA0 SHL SUB NOT DUP3 AND DUP2 OR DUP4 SSTORE PUSH1 0x40 MLOAD SWAP3 SWAP2 PUSH1 0x1 PUSH1 0x1 PUSH1 0xA0 SHL SUB AND PUSH32 0x8BE0079C531659141344CD1FD0A4F28419497F9722A3DAAFE3B4186F6B6457E0 DUP4 DUP1 LOG3 CALLER DUP2 MSTORE PUSH1 0x2 PUSH1 0x20 MSTORE PUSH1 0x1 PUSH1 0x40 DUP1 DUP4 KECCAK256 SWAP3 PUSH1 0xFF NOT SWAP4 DUP4 DUP6 DUP3 SLOAD AND OR SWAP1 SSTORE PUSH1 0x3 PUSH1 0x20 MSTORE KECCAK256 SWAP2 DUP3 SLOAD AND OR SWAP1 SSTORE PUSH2 0xBB5 SWAP1 DUP2 PUSH2 0xA7 DUP3 CODECOPY RETURN JUMPDEST PUSH4 0x1E4FBDF7 PUSH1 0xE0 SHL DUP2 MSTORE PUSH1 0x0 PUSH1 0x4 DUP3 ADD MSTORE PUSH1 0x24 SWAP1 REVERT JUMPDEST PUSH1 0x0 DUP1 REVERT INVALID PUSH1 0x80 PUSH1 0x40 DUP2 DUP2 MSTORE PUSH1 0x4 DUP1 CALLDATASIZE LT ISZERO PUSH2 0x15 JUMPI PUSH1 0x0 DUP1 REVERT JUMPDEST PUSH1 0x0 SWAP3 DUP4 CALLDATALOAD PUSH1 0xE0 SHR SWAP1 DUP2 PUSH4 0x7055840 EQ PUSH2 0xA10 JUMPI POP DUP1 PUSH4 0x11DB2A7B EQ PUSH2 0x868 JUMPI DUP1 PUSH4 0x19D3137B EQ PUSH2 0x821 JUMPI DUP1 PUSH4 0x1B80BB3A EQ PUSH2 0x76E JUMPI DUP1 PUSH4 0x41FE0F71 EQ PUSH2 0x70A JUMPI DUP1 PUSH4 0x444D95B0 EQ PUSH2 0x6A8 JUMPI DUP1 PUSH4 0x4A83BC3A EQ PUSH2 0x56B JUMPI DUP1 PUSH4 0x5197A0D3 EQ PUSH2 0x501 JUMPI DUP1 PUSH4 0x5F108639 EQ PUSH2 0x4C9 JUMPI DUP1 PUSH4 0x6683BC6A EQ PUSH2 0x4A2 JUMPI DUP1 PUSH4 0x715018A6 EQ PUSH2 0x445 JUMPI DUP1 PUSH4 0x7F6E9D4B EQ PUSH2 0x407 JUMPI DUP1 PUSH4 0x8DA5CB5B EQ PUSH2 0x3DF JUMPI DUP1 PUSH4 0x968E72BD EQ PUSH2 0x179 JUMPI DUP1 PUSH4 0x9B1BC0C9 EQ PUSH2 0x15C JUMPI PUSH4 0xF2FDE38B EQ PUSH2 0xD3 JUMPI PUSH1 0x0 DUP1 REVERT JUMPDEST CALLVALUE PUSH2 0x158 JUMPI PUSH1 0x20 CALLDATASIZE PUSH1 0x3 NOT ADD SLT PUSH2 0x158 JUMPI PUSH2 0xEC PUSH2 0xA4B JUMP JUMPDEST SWAP1 PUSH2 0xF5 PUSH2 0xB53 JUMP JUMPDEST PUSH1 0x1 PUSH1 0x1 PUSH1 0xA0 SHL SUB SWAP2 DUP3 AND SWAP3 DUP4 ISZERO PUSH2 0x142 JUMPI POP POP DUP3 SLOAD PUSH1 0x1 PUSH1 0x1 PUSH1 0xA0 SHL SUB NOT DUP2 AND DUP4 OR DUP5 SSTORE AND PUSH32 0x8BE0079C531659141344CD1FD0A4F28419497F9722A3DAAFE3B4186F6B6457E0 DUP4 DUP1 LOG3 DUP1 RETURN JUMPDEST MLOAD PUSH4 0x1E4FBDF7 PUSH1 0xE0 SHL DUP2 MSTORE SWAP1 DUP2 ADD DUP5 SWAP1 MSTORE PUSH1 0x24 SWAP1 REVERT JUMPDEST DUP3 DUP1 REVERT JUMPDEST POP CALLVALUE PUSH2 0x158 JUMPI DUP3 PUSH1 0x3 NOT CALLDATASIZE ADD SLT PUSH2 0x158 JUMPI PUSH1 0x20 SWAP3 POP SLOAD SWAP1 MLOAD SWAP1 DUP2 MSTORE RETURN JUMPDEST POP SWAP2 SWAP1 CALLVALUE PUSH2 0x3DB JUMPI DUP1 PUSH1 0x3 NOT CALLDATASIZE ADD SLT PUSH2 0x3DB JUMPI DUP3 CALLDATALOAD SWAP1 PUSH1 0x24 CALLDATALOAD CALLER DUP5 MSTORE PUSH1 0x20 PUSH1 0x2 DUP2 MSTORE PUSH1 0xFF DUP4 DUP7 KECCAK256 SLOAD AND DUP1 ISZERO PUSH2 0x3C8 JUMPI JUMPDEST ISZERO PUSH2 0x372 JUMPI DUP4 DUP6 MSTORE PUSH1 0x1 DUP2 MSTORE PUSH1 0xFF PUSH1 0x3 DUP5 DUP8 KECCAK256 ADD SLOAD PUSH1 0x8 SHR AND PUSH2 0x31D JUMPI DUP2 ISZERO PUSH2 0x2DB JUMPI PUSH2 0x1D4 PUSH2 0xAE2 JUMP JUMPDEST DUP3 DUP2 MSTORE DUP2 DUP2 ADD CALLER DUP2 MSTORE PUSH2 0x24A PUSH1 0x3 DUP7 DUP5 ADD SWAP4 TIMESTAMP DUP6 MSTORE PUSH1 0x60 DUP2 ADD SWAP5 DUP11 DUP7 MSTORE PUSH1 0x80 DUP3 ADD SWAP5 PUSH1 0x1 DUP7 MSTORE DUP11 DUP13 MSTORE PUSH1 0x1 DUP9 MSTORE DUP10 DUP13 KECCAK256 SWAP3 MLOAD DUP4 SSTORE PUSH1 0x1 DUP4 ADD SWAP1 PUSH1 0x1 DUP1 PUSH1 0xA0 SHL SUB SWAP1 MLOAD AND PUSH12 0xFFFFFFFFFFFFFFFFFFFFFFFF PUSH1 0xA0 SHL DUP3 SLOAD AND OR SWAP1 SSTORE MLOAD PUSH1 0x2 DUP3 ADD SSTORE ADD SWAP3 MLOAD ISZERO ISZERO DUP4 SWAP1 PUSH1 0xFF DUP1 NOT DUP4 SLOAD AND SWAP2 ISZERO ISZERO AND OR SWAP1 SSTORE JUMP JUMPDEST MLOAD DUP2 SLOAD PUSH2 0xFF00 NOT AND SWAP1 ISZERO ISZERO PUSH1 0x8 SHL PUSH2 0xFF00 AND OR SWAP1 SSTORE DUP6 SLOAD PUSH9 0x10000000000000000 DUP2 LT ISZERO PUSH2 0x2C8 JUMPI DUP1 PUSH32 0xFC21F0A5B79E60806354685C8551409839F9FD3D44D61B6147DD3722B3FFFBED SWAP6 SWAP7 SWAP8 PUSH1 0x1 PUSH2 0x2A5 SWAP4 ADD SWAP1 SSTORE PUSH2 0xA95 JUMP JUMPDEST DUP2 SLOAD SWAP1 PUSH1 0x3 SHL SWAP1 DUP8 DUP3 SHL SWAP2 PUSH1 0x0 NOT SWAP1 SHL NOT AND OR SWAP1 SSTORE DUP3 MLOAD SWAP2 DUP3 MSTORE CALLER SWAP1 DUP3 ADD MSTORE LOG2 DUP1 RETURN JUMPDEST PUSH4 0x4E487B71 PUSH1 0xE0 SHL DUP7 MSTORE PUSH1 0x41 DUP8 MSTORE PUSH1 0x24 DUP7 REVERT JUMPDEST DUP6 PUSH1 0x64 SWAP2 DUP5 MLOAD SWAP2 PUSH3 0x461BCD PUSH1 0xE5 SHL DUP4 MSTORE DUP3 ADD MSTORE PUSH1 0x1D PUSH1 0x24 DUP3 ADD MSTORE PUSH32 0x496E666572656E636547756172643A207A65726F20726F6F7448617368000000 PUSH1 0x44 DUP3 ADD MSTORE REVERT JUMPDEST DUP6 PUSH1 0x84 SWAP2 DUP5 MLOAD SWAP2 PUSH3 0x461BCD PUSH1 0xE5 SHL DUP4 MSTORE DUP3 ADD MSTORE PUSH1 0x2A PUSH1 0x24 DUP3 ADD MSTORE PUSH32 0x496E666572656E636547756172643A20657865637574696F6E496420616C7265 PUSH1 0x44 DUP3 ADD MSTORE PUSH10 0x61647920657869737473 PUSH1 0xB0 SHL PUSH1 0x64 DUP3 ADD MSTORE REVERT JUMPDEST DUP6 PUSH1 0x84 SWAP2 DUP5 MLOAD SWAP2 PUSH3 0x461BCD PUSH1 0xE5 SHL DUP4 MSTORE DUP3 ADD MSTORE PUSH1 0x2B PUSH1 0x24 DUP3 ADD MSTORE PUSH32 0x496E666572656E636547756172643A206E6F7420616E20617574686F72697A65 PUSH1 0x44 DUP3 ADD MSTORE PUSH11 0x321039BAB136B4BA3A32B9 PUSH1 0xA9 SHL PUSH1 0x64 DUP3 ADD MSTORE REVERT JUMPDEST POP DUP5 SLOAD PUSH1 0x1 PUSH1 0x1 PUSH1 0xA0 SHL SUB AND CALLER EQ PUSH2 0x1A9 JUMP JUMPDEST POP DUP1 REVERT JUMPDEST POP POP CALLVALUE PUSH2 0x3DB JUMPI DUP2 PUSH1 0x3 NOT CALLDATASIZE ADD SLT PUSH2 0x3DB JUMPI SWAP1 SLOAD SWAP1 MLOAD PUSH1 0x1 PUSH1 0x1 PUSH1 0xA0 SHL SUB SWAP1 SWAP2 AND DUP2 MSTORE PUSH1 0x20 SWAP1 RETURN JUMPDEST POP POP CALLVALUE PUSH2 0x3DB JUMPI PUSH1 0x20 CALLDATASIZE PUSH1 0x3 NOT ADD SLT PUSH2 0x3DB JUMPI PUSH1 0x20 SWAP2 PUSH1 0xFF SWAP1 DUP3 SWAP1 PUSH1 0x1 PUSH1 0x1 PUSH1 0xA0 SHL SUB PUSH2 0x432 PUSH2 0xA4B JUMP JUMPDEST AND DUP2 MSTORE PUSH1 0x2 DUP6 MSTORE KECCAK256 SLOAD AND SWAP1 MLOAD SWAP1 ISZERO ISZERO DUP2 MSTORE RETURN JUMPDEST DUP4 CALLVALUE PUSH2 0x49F JUMPI DUP1 PUSH1 0x3 NOT CALLDATASIZE ADD SLT PUSH2 0x49F JUMPI PUSH2 0x45E PUSH2 0xB53 JUMP JUMPDEST DUP1 SLOAD PUSH1 0x1 PUSH1 0x1 PUSH1 0xA0 SHL SUB NOT DUP2 AND DUP3 SSTORE DUP2 SWAP1 PUSH1 0x1 PUSH1 0x1 PUSH1 0xA0 SHL SUB AND PUSH32 0x8BE0079C531659141344CD1FD0A4F28419497F9722A3DAAFE3B4186F6B6457E0 DUP3 DUP1 LOG3 DUP1 RETURN JUMPDEST DUP1 REVERT JUMPDEST POP CALLVALUE PUSH2 0x158 JUMPI PUSH1 0x20 CALLDATASIZE PUSH1 0x3 NOT ADD SLT PUSH2 0x158 JUMPI PUSH1 0x20 SWAP3 DUP3 SWAP2 CALLDATALOAD DUP2 MSTORE PUSH1 0x1 DUP5 MSTORE KECCAK256 SLOAD SWAP1 MLOAD SWAP1 DUP2 MSTORE RETURN JUMPDEST POP SWAP2 CALLVALUE PUSH2 0x49F JUMPI PUSH1 0x20 CALLDATASIZE PUSH1 0x3 NOT ADD SLT PUSH2 0x49F JUMPI DUP3 CALLDATALOAD SWAP3 SLOAD DUP4 LT ISZERO PUSH2 0x49F JUMPI POP PUSH2 0x4F3 PUSH1 0x20 SWAP3 PUSH2 0xA95 JUMP JUMPDEST SWAP2 SWAP1 SLOAD SWAP1 MLOAD SWAP2 PUSH1 0x3 SHL SHR DUP2 MSTORE RETURN JUMPDEST POP POP CALLVALUE PUSH2 0x3DB JUMPI PUSH32 0x65E841597BBB405E702AB1F011F80E0D75035BCBCC1D0C9E30A06BCC9E140F8B PUSH1 0x20 PUSH2 0x534 CALLDATASIZE PUSH2 0xA66 JUMP JUMPDEST SWAP1 PUSH2 0x53D PUSH2 0xB53 JUMP JUMPDEST PUSH1 0x1 PUSH1 0x1 PUSH1 0xA0 SHL SUB AND DUP1 DUP7 MSTORE PUSH1 0x2 DUP4 MSTORE DUP5 DUP7 KECCAK256 DUP1 SLOAD PUSH1 0xFF NOT AND PUSH1 0xFF DUP5 ISZERO ISZERO AND OR SWAP1 SSTORE SWAP4 JUMPDEST MLOAD SWAP1 ISZERO ISZERO DUP2 MSTORE LOG2 DUP1 RETURN JUMPDEST POP CALLVALUE PUSH2 0x158 JUMPI PUSH1 0x20 DUP1 PUSH1 0x3 NOT CALLDATASIZE ADD SLT PUSH2 0x6A4 JUMPI DUP2 SLOAD SWAP3 SWAP4 PUSH1 0x1F SWAP4 SWAP3 DUP1 CALLDATALOAD DUP1 DUP6 GT ISZERO PUSH2 0x69C JUMPI PUSH2 0x59A SWAP1 DUP6 PUSH2 0xB18 JUMP JUMPDEST SWAP4 JUMPDEST PUSH2 0x5A6 DUP6 DUP3 PUSH2 0xB18 JUMP JUMPDEST SWAP5 PUSH2 0x5B0 DUP7 PUSH2 0xB3B JUMP JUMPDEST SWAP6 DUP9 MLOAD SWAP7 DUP9 NOT SWAP9 DUP10 SWAP2 ADD AND DUP8 ADD DUP8 DUP2 LT PUSH8 0xFFFFFFFFFFFFFFFF DUP3 GT OR PUSH2 0x689 JUMPI SWAP1 PUSH2 0x5E4 SWAP2 DUP11 SWAP10 SWAP9 SWAP7 SWAP8 SWAP11 MSTORE DUP1 DUP7 MSTORE PUSH2 0xB3B JUMP JUMPDEST DUP5 DUP10 ADD SWAP7 ADD CALLDATASIZE DUP8 CALLDATACOPY DUP1 JUMPDEST DUP3 DUP2 LT PUSH2 0x634 JUMPI POP POP POP POP DUP4 MLOAD SWAP5 DUP6 SWAP5 DUP2 DUP7 ADD SWAP3 DUP3 DUP8 MSTORE MLOAD DUP1 SWAP4 MSTORE DUP6 ADD SWAP4 SWAP3 JUMPDEST DUP3 DUP2 LT PUSH2 0x61D JUMPI POP POP POP POP SUB SWAP1 RETURN JUMPDEST DUP4 MLOAD DUP6 MSTORE DUP7 SWAP6 POP SWAP4 DUP2 ADD SWAP4 SWAP3 DUP2 ADD SWAP3 PUSH1 0x1 ADD PUSH2 0x60E JUMP JUMPDEST PUSH2 0x643 DUP2 SWAP10 SWAP7 SWAP6 SWAP8 SWAP9 SWAP10 PUSH2 0xA95 JUMP JUMPDEST SWAP1 SLOAD PUSH2 0x64F DUP5 DUP5 PUSH2 0xB18 JUMP JUMPDEST SWAP2 DUP10 MLOAD DUP4 LT ISZERO PUSH2 0x676 JUMPI PUSH1 0x3 SHL SHR PUSH1 0x5 SWAP2 SWAP1 SWAP2 SHL DUP9 ADD DUP8 ADD MSTORE SWAP5 SWAP8 SWAP7 SWAP6 SWAP4 SWAP5 PUSH1 0x1 ADD PUSH2 0x5EE JUMP JUMPDEST PUSH4 0x4E487B71 PUSH1 0xE0 SHL DUP9 MSTORE PUSH1 0x32 DUP8 MSTORE PUSH1 0x24 DUP9 REVERT JUMPDEST PUSH4 0x4E487B71 PUSH1 0xE0 SHL DUP7 MSTORE PUSH1 0x41 DUP6 MSTORE PUSH1 0x24 DUP7 REVERT JUMPDEST POP DUP2 SWAP4 PUSH2 0x59C JUMP JUMPDEST DUP4 DUP1 REVERT JUMPDEST POP CALLVALUE PUSH2 0x158 JUMPI PUSH1 0x20 CALLDATASIZE PUSH1 0x3 NOT ADD SLT PUSH2 0x158 JUMPI DUP2 PUSH1 0xA0 SWAP4 PUSH1 0xFF SWAP3 CALLDATALOAD DUP2 MSTORE PUSH1 0x1 PUSH1 0x20 MSTORE KECCAK256 SWAP2 DUP3 SLOAD SWAP3 PUSH1 0x1 DUP1 DUP7 SHL SUB PUSH1 0x1 DUP3 ADD SLOAD AND SWAP2 PUSH1 0x3 PUSH1 0x2 DUP4 ADD SLOAD SWAP3 ADD SLOAD SWAP3 DUP2 MLOAD SWAP6 DUP7 MSTORE PUSH1 0x20 DUP7 ADD MSTORE DUP5 ADD MSTORE DUP2 DUP2 AND ISZERO ISZERO PUSH1 0x60 DUP5 ADD MSTORE PUSH1 0x8 SHR AND ISZERO ISZERO PUSH1 0x80 DUP3 ADD MSTORE RETURN JUMPDEST POP POP CALLVALUE PUSH2 0x3DB JUMPI PUSH32 0xFA648341F7C45A89A5AC85C79BA49A45167038F7E499F5C2D8FD43C124F30E4D PUSH1 0x20 PUSH2 0x73D CALLDATASIZE PUSH2 0xA66 JUMP JUMPDEST SWAP1 PUSH2 0x746 PUSH2 0xB53 JUMP JUMPDEST PUSH1 0x1 PUSH1 0x1 PUSH1 0xA0 SHL SUB AND DUP1 DUP7 MSTORE PUSH1 0x3 DUP4 MSTORE DUP5 DUP7 KECCAK256 DUP1 SLOAD PUSH1 0xFF NOT AND PUSH1 0xFF DUP5 ISZERO ISZERO AND OR SWAP1 SSTORE SWAP4 PUSH2 0x561 JUMP JUMPDEST POP CALLVALUE PUSH2 0x158 JUMPI PUSH1 0x20 CALLDATASIZE PUSH1 0x3 NOT ADD SLT PUSH2 0x158 JUMPI DUP3 DUP3 SWAP2 PUSH1 0xA0 SWAP5 PUSH1 0x80 PUSH2 0x790 PUSH2 0xAE2 JUMP JUMPDEST DUP3 DUP2 MSTORE DUP3 PUSH1 0x20 DUP3 ADD MSTORE DUP3 DUP7 DUP3 ADD MSTORE DUP3 PUSH1 0x60 DUP3 ADD MSTORE ADD MSTORE CALLDATALOAD DUP2 MSTORE PUSH1 0x1 PUSH1 0x20 MSTORE KECCAK256 PUSH2 0x7B7 PUSH2 0xAE2 JUMP JUMPDEST DUP2 SLOAD SWAP3 DUP4 DUP3 MSTORE PUSH1 0x1 DUP1 DUP7 SHL SUB SWAP3 DUP4 PUSH1 0x1 DUP3 ADD SLOAD AND SWAP4 PUSH1 0x20 DUP5 ADD SWAP5 DUP6 MSTORE PUSH1 0x3 PUSH1 0x2 DUP4 ADD SLOAD SWAP3 DUP5 DUP7 ADD SWAP4 DUP5 MSTORE ADD SLOAD SWAP5 PUSH1 0xFF PUSH1 0x80 PUSH1 0x60 DUP8 ADD SWAP7 DUP3 DUP10 AND ISZERO ISZERO DUP9 MSTORE ADD SWAP7 PUSH1 0x8 SHR AND ISZERO ISZERO DUP7 MSTORE DUP4 MLOAD SWAP7 DUP8 MSTORE MLOAD AND PUSH1 0x20 DUP7 ADD MSTORE MLOAD SWAP1 DUP5 ADD MSTORE MLOAD ISZERO ISZERO PUSH1 0x60 DUP4 ADD MSTORE MLOAD ISZERO ISZERO PUSH1 0x80 DUP3 ADD MSTORE RETURN JUMPDEST POP CALLVALUE PUSH2 0x158 JUMPI PUSH1 0x20 CALLDATASIZE PUSH1 0x3 NOT ADD SLT PUSH2 0x158 JUMPI DUP2 PUSH1 0x20 SWAP4 PUSH1 0x3 SWAP3 CALLDATALOAD DUP2 MSTORE PUSH1 0x1 DUP6 MSTORE KECCAK256 ADD SLOAD SWAP1 PUSH1 0xFF DUP3 PUSH1 0x8 SHR AND SWAP2 DUP3 PUSH2 0x85C JUMPI JUMPDEST POP MLOAD SWAP1 ISZERO ISZERO DUP2 MSTORE RETURN JUMPDEST PUSH1 0xFF AND ISZERO SWAP2 POP CODESIZE PUSH2 0x853 JUMP JUMPDEST POP SWAP1 CALLVALUE PUSH2 0x158 JUMPI PUSH1 0x20 SWAP1 DUP2 PUSH1 0x3 NOT CALLDATASIZE ADD SLT PUSH2 0x6A4 JUMPI DUP3 CALLDATALOAD SWAP3 CALLER DUP6 MSTORE PUSH1 0x3 DUP4 MSTORE PUSH1 0xFF DUP3 DUP7 KECCAK256 SLOAD AND DUP1 ISZERO PUSH2 0x9FD JUMPI JUMPDEST ISZERO PUSH2 0x9A9 JUMPI DUP4 DUP6 MSTORE PUSH1 0x1 DUP4 MSTORE PUSH1 0xFF PUSH1 0x3 DUP4 DUP8 KECCAK256 ADD SLOAD PUSH1 0x8 SHR AND ISZERO PUSH2 0x95C JUMPI DUP4 DUP6 MSTORE PUSH1 0x1 DUP4 MSTORE PUSH1 0xFF PUSH1 0x3 DUP4 DUP8 KECCAK256 ADD SLOAD AND PUSH2 0x90C JUMPI POP SWAP1 PUSH32 0x8B1B33B8154FCF0AE6423383A1288D26FA27B6DFB3B977AF76439FC93984676 SWAP2 DUP4 DUP6 MSTORE PUSH1 0x1 DUP3 MSTORE PUSH1 0x3 DUP2 DUP7 KECCAK256 ADD PUSH1 0x1 PUSH1 0xFF NOT DUP3 SLOAD AND OR SWAP1 SSTORE MLOAD CALLER DUP2 MSTORE LOG2 DUP1 RETURN JUMPDEST DUP3 PUSH1 0x84 SWAP3 MLOAD SWAP2 PUSH3 0x461BCD PUSH1 0xE5 SHL DUP4 MSTORE DUP3 ADD MSTORE PUSH1 0x26 PUSH1 0x24 DUP3 ADD MSTORE PUSH32 0x496E666572656E636547756172643A2070726F6F6620616C726561647920636F PUSH1 0x44 DUP3 ADD MSTORE PUSH6 0x1B9CDD5B5959 PUSH1 0xD2 SHL PUSH1 0x64 DUP3 ADD MSTORE REVERT JUMPDEST DUP3 PUSH1 0x84 SWAP3 MLOAD SWAP2 PUSH3 0x461BCD PUSH1 0xE5 SHL DUP4 MSTORE DUP3 ADD MSTORE PUSH1 0x24 DUP1 DUP3 ADD MSTORE PUSH32 0x496E666572656E636547756172643A2070726F6F6620646F6573206E6F742065 PUSH1 0x44 DUP3 ADD MSTORE PUSH4 0x1E1A5CDD PUSH1 0xE2 SHL PUSH1 0x64 DUP3 ADD MSTORE REVERT JUMPDEST DUP3 PUSH1 0x84 SWAP3 MLOAD SWAP2 PUSH3 0x461BCD PUSH1 0xE5 SHL DUP4 MSTORE DUP3 ADD MSTORE PUSH1 0x2A PUSH1 0x24 DUP3 ADD MSTORE PUSH32 0x496E666572656E636547756172643A206E6F7420616E20617574686F72697A65 PUSH1 0x44 DUP3 ADD MSTORE PUSH10 0x321031B7B739BAB6B2B9 PUSH1 0xB1 SHL PUSH1 0x64 DUP3 ADD MSTORE REVERT JUMPDEST POP DUP5 SLOAD PUSH1 0x1 PUSH1 0x1 PUSH1 0xA0 SHL SUB AND CALLER EQ PUSH2 0x895 JUMP JUMPDEST DUP5 SWAP1 DUP5 CALLVALUE PUSH2 0x158 JUMPI PUSH1 0x20 CALLDATASIZE PUSH1 0x3 NOT ADD SLT PUSH2 0x158 JUMPI PUSH1 0x20 SWAP3 PUSH1 0xFF SWAP2 SWAP1 PUSH1 0x1 PUSH1 0x1 PUSH1 0xA0 SHL SUB PUSH2 0xA3B PUSH2 0xA4B JUMP JUMPDEST AND DUP2 MSTORE PUSH1 0x3 DUP6 MSTORE KECCAK256 SLOAD AND ISZERO ISZERO DUP2 MSTORE RETURN JUMPDEST PUSH1 0x4 CALLDATALOAD SWAP1 PUSH1 0x1 PUSH1 0x1 PUSH1 0xA0 SHL SUB DUP3 AND DUP3 SUB PUSH2 0xA61 JUMPI JUMP JUMPDEST PUSH1 0x0 DUP1 REVERT JUMPDEST PUSH1 0x40 SWAP1 PUSH1 0x3 NOT ADD SLT PUSH2 0xA61 JUMPI PUSH1 0x4 CALLDATALOAD PUSH1 0x1 PUSH1 0x1 PUSH1 0xA0 SHL SUB DUP2 AND DUP2 SUB PUSH2 0xA61 JUMPI SWAP1 PUSH1 0x24 CALLDATALOAD DUP1 ISZERO ISZERO DUP2 SUB PUSH2 0xA61 JUMPI SWAP1 JUMP JUMPDEST PUSH1 0x4 SLOAD DUP2 LT ISZERO PUSH2 0xACC JUMPI PUSH1 0x4 PUSH1 0x0 MSTORE PUSH32 0x8A35ACFBC15FF81A39AE7D344FD709F28E8600B4AA8C65C6B64BFE7FE36BD19B ADD SWAP1 PUSH1 0x0 SWAP1 JUMP JUMPDEST PUSH4 0x4E487B71 PUSH1 0xE0 SHL PUSH1 0x0 MSTORE PUSH1 0x32 PUSH1 0x4 MSTORE PUSH1 0x24 PUSH1 0x0 REVERT JUMPDEST PUSH1 0x40 MLOAD SWAP1 PUSH1 0xA0 DUP3 ADD DUP3 DUP2 LT PUSH8 0xFFFFFFFFFFFFFFFF DUP3 GT OR PUSH2 0xB02 JUMPI PUSH1 0x40 MSTORE JUMP JUMPDEST PUSH4 0x4E487B71 PUSH1 0xE0 SHL PUSH1 0x0 MSTORE PUSH1 0x41 PUSH1 0x4 MSTORE PUSH1 0x24 PUSH1 0x0 REVERT JUMPDEST SWAP2 SWAP1 DUP3 SUB SWAP2 DUP3 GT PUSH2 0xB25 JUMPI JUMP JUMPDEST PUSH4 0x4E487B71 PUSH1 0xE0 SHL PUSH1 0x0 MSTORE PUSH1 0x11 PUSH1 0x4 MSTORE PUSH1 0x24 PUSH1 0x0 REVERT JUMPDEST PUSH8 0xFFFFFFFFFFFFFFFF DUP2 GT PUSH2 0xB02 JUMPI PUSH1 0x5 SHL PUSH1 0x20 ADD SWAP1 JUMP JUMPDEST PUSH1 0x0 SLOAD PUSH1 0x1 PUSH1 0x1 PUSH1 0xA0 SHL SUB AND CALLER SUB PUSH2 0xB67 JUMPI JUMP JUMPDEST PUSH1 0x40 MLOAD PUSH4 0x118CDAA7 PUSH1 0xE0 SHL DUP2 MSTORE CALLER PUSH1 0x4 DUP3 ADD MSTORE PUSH1 0x24 SWAP1 REVERT INVALID LOG2 PUSH5 0x6970667358 0x22 SLT KECCAK256 0xAC SWAP11 LOG1 SWAP3 PUSH25 0x6AD20E865A9159296412EC06D8BA90278594702995F65CB976 0xB4 PUSH26 0x64736F6C63430008180033000000000000000000000000000000 "},"methodIdentifiers":{"allExecutionIds(uint256)":"5f108639","authorizedConsumers(address)":"07055840","authorizedSubmitters(address)":"7f6e9d4b","consumeProof(bytes32)":"11db2a7b","getProof(bytes32)":"1b80bb3a","getRecentProofs(uint256)":"4a83bc3a","getRootHash(bytes32)":"6683bc6a","getTotalProofs()":"9b1bc0c9","isProofValid(bytes32)":"19d3137b","owner()":"8da5cb5b","proofs(bytes32)":"444d95b0","renounceOwnership()":"715018a6","setAuthorizedConsumer(address,bool)":"41fe0f71","setAuthorizedSubmitter(address,bool)":"5197a0d3","submitProof(bytes32,bytes32)":"968e72bd","transferOwnership(address)":"f2fde38b"}}}}}