{"contracts/SentinelINFT.sol":{"SentinelINFT":{"abi":[{"inputs":[],"stateMutability":"nonpayable","type":"constructor"},{"inputs":[{"internalType":"address","name":"sender","type":"address"},{"internalType":"uint256","name":"tokenId","type":"uint256"},{"internalType":"address","name":"owner","type":"address"}],"name":"ERC721IncorrectOwner","type":"error"},{"inputs":[{"internalType":"address","name":"operator","type":"address"},{"internalType":"uint256","name":"tokenId","type":"uint256"}],"name":"ERC721InsufficientApproval","type":"error"},{"inputs":[{"internalType":"address","name":"approver","type":"address"}],"name":"ERC721InvalidApprover","type":"error"},{"inputs":[{"internalType":"address","name":"operator","type":"address"}],"name":"ERC721InvalidOperator","type":"error"},{"inputs":[{"internalType":"address","name":"owner","type":"address"}],"name":"ERC721InvalidOwner","type":"error"},{"inputs":[{"internalType":"address","name":"receiver","type":"address"}],"name":"ERC721InvalidReceiver","type":"error"},{"inputs":[{"internalType":"address","name":"sender","type":"address"}],"name":"ERC721InvalidSender","type":"error"},{"inputs":[{"internalType":"uint256","name":"tokenId","type":"uint256"}],"name":"ERC721NonexistentToken","type":"error"},{"inputs":[{"internalType":"address","name":"owner","type":"address"}],"name":"OwnableInvalidOwner","type":"error"},{"inputs":[{"internalType":"address","name":"account","type":"address"}],"name":"OwnableUnauthorizedAccount","type":"error"},{"anonymous":false,"inputs":[{"indexed":true,"internalType":"address","name":"owner","type":"address"},{"indexed":true,"internalType":"address","name":"approved","type":"address"},{"indexed":true,"internalType":"uint256","name":"tokenId","type":"uint256"}],"name":"Approval","type":"event"},{"anonymous":false,"inputs":[{"indexed":true,"internalType":"address","name":"owner","type":"address"},{"indexed":true,"internalType":"address","name":"operator","type":"address"},{"indexed":false,"internalType":"bool","name":"approved","type":"bool"}],"name":"ApprovalForAll","type":"event"},{"anonymous":false,"inputs":[{"indexed":true,"internalType":"address","name":"caller","type":"address"},{"indexed":false,"internalType":"bool","name":"authorized","type":"bool"}],"name":"AuthorizedCallerSet","type":"event"},{"anonymous":false,"inputs":[{"indexed":true,"internalType":"uint256","name":"tokenId","type":"uint256"},{"indexed":false,"internalType":"uint256","name":"newCycles","type":"uint256"}],"name":"ExperienceIncremented","type":"event"},{"anonymous":false,"inputs":[{"indexed":true,"internalType":"uint256","name":"tokenId","type":"uint256"},{"indexed":false,"internalType":"string","name":"storagePointer","type":"string"}],"name":"IntelligenceUpdated","type":"event"},{"anonymous":false,"inputs":[{"indexed":true,"internalType":"address","name":"previousOwner","type":"address"},{"indexed":true,"internalType":"address","name":"newOwner","type":"address"}],"name":"OwnershipTransferred","type":"event"},{"anonymous":false,"inputs":[{"indexed":true,"internalType":"uint256","name":"tokenId","type":"uint256"},{"indexed":true,"internalType":"address","name":"to","type":"address"}],"name":"TokenMinted","type":"event"},{"anonymous":false,"inputs":[{"indexed":true,"internalType":"address","name":"from","type":"address"},{"indexed":true,"internalType":"address","name":"to","type":"address"},{"indexed":true,"internalType":"uint256","name":"tokenId","type":"uint256"}],"name":"Transfer","type":"event"},{"inputs":[{"internalType":"uint256","name":"","type":"uint256"}],"name":"agentData","outputs":[{"internalType":"uint256","name":"experienceCycles","type":"uint256"},{"internalType":"uint256","name":"mintedAt","type":"uint256"},{"internalType":"uint256","name":"lastActiveAt","type":"uint256"},{"internalType":"string","name":"storagePointer","type":"string"},{"internalType":"string","name":"strategyFingerprint","type":"string"},{"internalType":"bool","name":"active","type":"bool"}],"stateMutability":"view","type":"function"},{"inputs":[{"internalType":"address","name":"to","type":"address"},{"internalType":"uint256","name":"tokenId","type":"uint256"}],"name":"approve","outputs":[],"stateMutability":"nonpayable","type":"function"},{"inputs":[{"internalType":"address","name":"","type":"address"}],"name":"authorizedCallers","outputs":[{"internalType":"bool","name":"","type":"bool"}],"stateMutability":"view","type":"function"},{"inputs":[{"internalType":"address","name":"owner","type":"address"}],"name":"balanceOf","outputs":[{"internalType":"uint256","name":"","type":"uint256"}],"stateMutability":"view","type":"function"},{"inputs":[{"internalType":"uint256","name":"tokenId","type":"uint256"}],"name":"getApproved","outputs":[{"internalType":"address","name":"","type":"address"}],"stateMutability":"view","type":"function"},{"inputs":[{"internalType":"uint256","name":"tokenId","type":"uint256"}],"name":"getExperienceCycles","outputs":[{"internalType":"uint256","name":"","type":"uint256"}],"stateMutability":"view","type":"function"},{"inputs":[{"internalType":"uint256","name":"tokenId","type":"uint256"}],"name":"getFullMetadata","outputs":[{"components":[{"internalType":"uint256","name":"experienceCycles","type":"uint256"},{"internalType":"uint256","name":"mintedAt","type":"uint256"},{"internalType":"uint256","name":"lastActiveAt","type":"uint256"},{"internalType":"string","name":"storagePointer","type":"string"},{"internalType":"string","name":"strategyFingerprint","type":"string"},{"internalType":"bool","name":"active","type":"bool"}],"internalType":"struct SentinelINFT.AgentMetadata","name":"","type":"tuple"}],"stateMutability":"view","type":"function"},{"inputs":[{"internalType":"uint256","name":"tokenId","type":"uint256"}],"name":"getStoragePointer","outputs":[{"internalType":"string","name":"","type":"string"}],"stateMutability":"view","type":"function"},{"inputs":[{"internalType":"uint256","name":"tokenId","type":"uint256"}],"name":"incrementExperience","outputs":[],"stateMutability":"nonpayable","type":"function"},{"inputs":[{"internalType":"address","name":"owner","type":"address"},{"internalType":"address","name":"operator","type":"address"}],"name":"isApprovedForAll","outputs":[{"internalType":"bool","name":"","type":"bool"}],"stateMutability":"view","type":"function"},{"inputs":[{"internalType":"address","name":"to","type":"address"},{"internalType":"string","name":"storagePointer","type":"string"},{"internalType":"string","name":"strategyFP","type":"string"}],"name":"mint","outputs":[{"internalType":"uint256","name":"tokenId","type":"uint256"}],"stateMutability":"nonpayable","type":"function"},{"inputs":[],"name":"name","outputs":[{"internalType":"string","name":"","type":"string"}],"stateMutability":"view","type":"function"},{"inputs":[],"name":"owner","outputs":[{"internalType":"address","name":"","type":"address"}],"stateMutability":"view","type":"function"},{"inputs":[{"internalType":"uint256","name":"tokenId","type":"uint256"}],"name":"ownerOf","outputs":[{"internalType":"address","name":"","type":"address"}],"stateMutability":"view","type":"function"},{"inputs":[],"name":"renounceOwnership","outputs":[],"stateMutability":"nonpayable","type":"function"},{"inputs":[{"internalType":"address","name":"from","type":"address"},{"internalType":"address","name":"to","type":"address"},{"internalType":"uint256","name":"tokenId","type":"uint256"}],"name":"safeTransferFrom","outputs":[],"stateMutability":"nonpayable","type":"function"},{"inputs":[{"internalType":"address","name":"from","type":"address"},{"internalType":"address","name":"to","type":"address"},{"internalType":"uint256","name":"tokenId","type":"uint256"},{"internalType":"bytes","name":"data","type":"bytes"}],"name":"safeTransferFrom","outputs":[],"stateMutability":"nonpayable","type":"function"},{"inputs":[{"internalType":"uint256","name":"tokenId","type":"uint256"},{"internalType":"bool","name":"active","type":"bool"}],"name":"setActive","outputs":[],"stateMutability":"nonpayable","type":"function"},{"inputs":[{"internalType":"address","name":"operator","type":"address"},{"internalType":"bool","name":"approved","type":"bool"}],"name":"setApprovalForAll","outputs":[],"stateMutability":"nonpayable","type":"function"},{"inputs":[{"internalType":"address","name":"caller","type":"address"},{"internalType":"bool","name":"authorized","type":"bool"}],"name":"setAuthorizedCaller","outputs":[],"stateMutability":"nonpayable","type":"function"},{"inputs":[{"internalType":"bytes4","name":"interfaceId","type":"bytes4"}],"name":"supportsInterface","outputs":[{"internalType":"bool","name":"","type":"bool"}],"stateMutability":"view","type":"function"},{"inputs":[],"name":"symbol","outputs":[{"internalType":"string","name":"","type":"string"}],"stateMutability":"view","type":"function"},{"inputs":[{"internalType":"uint256","name":"tokenId","type":"uint256"}],"name":"tokenURI","outputs":[{"internalType":"string","name":"","type":"string"}],"stateMutability":"view","type":"function"},{"inputs":[],"name":"totalMinted","outputs":[{"internalType":"uint256","name":"","type":"uint256"}],"stateMutability":"view","type":"function"},{"inputs":[{"internalType":"address","name":"from","type":"address"},{"internalType":"address","name":"to","type":"address"},{"internalType":"uint256","name":"tokenId","type":"uint256"}],"name":"transferFrom","outputs":[],"stateMutability":"nonpayable","type":"function"},{"inputs":[{"internalType":"address","name":"newOwner","type":"address"}],"name":"transferOwnership","outputs":[],"stateMutability":"nonpayable","type":"function"},{"inputs":[{"internalType":"uint256","name":"tokenId","type":"uint256"},{"internalType":"string","name":"newStoragePointer","type":"string"}],"name":"updateIntelligence","outputs":[],"stateMutability":"nonpayable","type":"function"}],"evm":{"bytecode":{"linkReferences":{},"object":"60803462000391576001600160401b03906040818101838111838210176200037b578152600c82526020926b14d95b9d1a5b995b1253919560a21b84840152815190828201828110828211176200037b578352600582526414d253919560da1b8583015283518181116200037b576000928354916001968784811c9416801562000370575b898510146200035c578190601f9485811162000309575b508990858311600114620002a557879262000299575b5050600019600383901b1c191690871b1784555b8051928311620002855785548681811c911680156200027a575b8882101462000266579081838594931162000211575b5087918311600114620001ad578492620001a1575b5050600019600383901b1c191690841b1783555b33156200018b5760068054336001600160a01b03198216811790925583519560099290916001600160a01b03167f8be0079c531659141344cd1fd0a4f28419497f9722a3daafe3b4186f6b6457e08580a333835252209060ff19825416179055611e7f9081620003978239f35b6024915190631e4fbdf760e01b82526004820152fd5b0151905038806200010a565b8685528785208794509190601f198416865b8a828210620001fa5750508411620001e0575b505050811b0183556200011e565b015160001960f88460031b161c19169055388080620001d2565b8385015186558a97909501949384019301620001bf565b909192508685528785208380860160051c8201928a87106200025c575b9186958a929594930160051c01915b8281106200024d575050620000f5565b8781558695508991016200023d565b925081926200022e565b634e487b7160e01b85526022600452602485fd5b90607f1690620000df565b634e487b7160e01b84526041600452602484fd5b015190503880620000b1565b8780528a88208a94509190601f198416895b8d828210620002f25750508411620002d8575b505050811b018455620000c5565b015160001960f88460031b161c19169055388080620002ca565b8385015186558d97909501949384019301620002b7565b9091508680528987208580850160051c8201928c861062000352575b918b91869594930160051c01915b828110620003435750506200009b565b8981558594508b910162000333565b9250819262000325565b634e487b7160e01b86526022600452602486fd5b93607f169362000084565b634e487b7160e01b600052604160045260246000fd5b600080fdfe608080604052600436101561001357600080fd5b600090813560e01c90816301ffc9a7146115eb5750806306fdde0314611540578063081812fc14611503578063095ea7b31461142057806323b872dd1461140857806342842e0e146113da578063454bbd291461135c578063536fff6c1461131d5780636352211e146112ec57806370a0823114611294578063715018a6146112375780638da5cb5b1461120e57806395d89b411461113e5780639907119014610c335780639a92db9114610ba1578063a22cb46514610af8578063a2309ff814610ada578063a5b7b6d614610a98578063b393970a146109c8578063b88d4fde14610958578063bbed8ed314610859578063c87b56dd146104d0578063e60a955d14610438578063e985e9c5146103e8578063f2fde38b14610359578063f4bea7e9146101765763f7dc68c61461014a57600080fd5b346101735760203660031901126101735760406020916004358152600883522054604051908152f35b80fd5b50346101735760403660031901126101735760043567ffffffffffffffff602435818111610355576101ac903690600401611719565b91903385526020916009835260ff6040872054168015610341575b6101d090611b1f565b8486526002835260408620546101f0906001600160a01b03161515611b77565b848652600883526003604087200190841161032d57610219846102138354611747565b83611ac9565b85601f85116001146102a457938060409381959361026f83807fa7e8bb5552a7d79ced0f9a9251a656ab353ff1be3d639ba890852322a42f8f959a8d91610299575b508160011b916000199060031b1c19161790565b90555b8451958487958652850152848401378181018301879052601f01601f19168101030190a280f35b90508401353861025b565b81875283872090601f198616885b818110610316575093869593869384937fa7e8bb5552a7d79ced0f9a9251a656ab353ff1be3d639ba890852322a42f8f9599604098106102fc575b5050600183811b019055610272565b830135600019600386901b60f8161c1916905538806102ed565b9192866001819286890135815501940192016102b2565b634e487b7160e01b86526041600452602486fd5b506006546001600160a01b031633146101c7565b8380fd5b5034610173576020366003190112610173576103736116a4565b61037b611bfe565b6001600160a01b039081169081156103cf57600654826bffffffffffffffffffffffff60a01b821617600655167f8be0079c531659141344cd1fd0a4f28419497f9722a3daafe3b4186f6b6457e08380a380f35b604051631e4fbdf760e01b815260048101849052602490fd5b50346101735760403660031901126101735760ff60406020926104096116a4565b6104116116bf565b6001600160a01b039182168352600586528383209116825284522054604051911615158152f35b5034610173576040366003190112610173576104b960043561045861170a565b90338452600960205260ff60408520541680156104bc575b61047990611b1f565b8084526002602052604084205461049a906001600160a01b03161515611b77565b83526008602052600560408420019060ff801983541691151516179055565b80f35b506006546001600160a01b03163314610470565b5034610173576020806003193601126108555760043580835260028252604083205461081a916101649161050e906001600160a01b03161515611b77565b8085526008845260408520946040519161052783611781565b865483526001870154868401526002870154604084015261054a6003880161180d565b916060840192835261058961058260ff600561056860048d0161180d565b9b608089019c8d520154169360a087019415158552611d6e565b9451611d6e565b97519151159050610832576040516105a0816117cf565b60048152637472756560e01b87820152915b51906040519788947f646174613a6170706c69636174696f6e2f6a736f6e3b757466382c0000000000898701527f7b226e616d65223a2253656e74696e656c20477561726469616e202300000000603b870152610618815180928b60578a01910161165c565b61088b60f21b6057918701918201527f226465736372697074696f6e223a2253656e74696e656c20694e4654202d204160598201527f75746f6e6f6d6f7573204465466920506f736974696f6e20477561726469616e60798201527f20706f7765726564206279203047202b204b6565706572487562222c0000000060998201526d2261747472696275746573223a5b60901b60b58201527f7b2274726169745f74797065223a22457870657269656e6365204379636c657360c3820152691116113b30b63ab2911d60b11b60e38201528151916106fe90839060ed8401908c0161165c565b0190611f4b60f21b60ed8301527f7b2274726169745f74797065223a225374726174656779222c2276616c75652260ef830152611d1160f11b61010f83015261011191610753825180938b868501910161165c565b019262089f4b60ea1b80928501527f7b2274726169745f74797065223a22416374697665222c2276616c7565223a226101148501526101349361079e825180938b888501910161165c565b01928301527f7b2274726169745f74797065223a2253746f7261676520506f696e746572222c61013783015268113b30b63ab2911d1160b91b610157830152610160916107f38251809389868501910161165c565b019061227d60f01b90820152615d7d60f01b610162820152036101448101855201836117eb565b61082e60405192828493845283019061167f565b0390f35b60405161083e816117cf565b600581526466616c736560d81b87820152916105b2565b5080fd5b50346101735760209081600319360112610173578060409160a0835161087e81611781565b8281528286820152828582015260608082015260606080820152015260043581526008835220604051906108b182611781565b8054825261094b6001820154918484019283526109386002820154604086019081526108df6003840161180d565b906060870191825260ff60056108f76004870161180d565b9560808a019687520154169560a088019615158752604051988998818a5251908901525160408801525160608701525160c0608087015260e086019061167f565b9051848203601f190160a086015261167f565b9051151560c08301520390f35b5034610173576080366003190112610173576109726116a4565b61097a6116bf565b906044356064359267ffffffffffffffff84116109c457366023850112156109c4576109b36104b99436906024816004013591016118ce565b926109bf838383611905565b611c2a565b8480fd5b503461017357602036600319011261017357600435338252600960205260ff6040832054168015610a84575b6109fd90611b1f565b80825260026020526040822054610a1e906001600160a01b03161515611b77565b80825260086020526040822080549060018201809211610a705781817f909a0cfcbddfa22d82e19ab2a4850d9c88c0220712b3f0eac6c1e4bda3cd7fb49360209355600242910155604051908152a280f35b634e487b7160e01b84526011600452602484fd5b506006546001600160a01b031633146109f4565b503461017357602036600319011261017357610ac66003604061082e9360043581526008602052200161180d565b60405191829160208352602083019061167f565b50346101735780600319360112610173576020600754604051908152f35b503461017357604036600319011261017357610b126116a4565b610b1a61170a565b6001600160a01b03909116908115610b8857338352600560205260408320828452602052610b5781604085209060ff801983541691151516179055565b60405190151581527f17307eab39ab6107e8899845ad3d59bd9653f200f220920489ca2b5937696c3160203392a380f35b604051630b61174360e31b815260048101839052602490fd5b50346101735760203660031901126101735760409060043581526008602052208054600182015491610c27600282015491610c19610be16003830161180d565b60ff6005610bf16004860161180d565b940154169460405197889788526020880152604087015260c0606087015260c086019061167f565b90848203608086015261167f565b90151560a08301520390f35b503461017357606036600319011261017357610c4d6116a4565b9060243567ffffffffffffffff811161085557610c6e903690600401611719565b60443567ffffffffffffffff811161035557610c8e903690600401611719565b929091610c99611bfe565b60075493610ca685611aa4565b600755610ce560405194610cb986611781565b878652610cd66020870195428752604088019542875236916118ce565b926060870193845236916118ce565b916080850192835260a085019360018552868852600860205260408820955186555160018601555160028501555180519067ffffffffffffffff82116110bb57610d3f82610d366003880154611747565b60038801611ac9565b602090601f83116001146110cf57610d6f9291889183611044575b50508160011b916000199060031b1c19161790565b60038401555b518051600484019167ffffffffffffffff82116110bb57610da082610d9a8554611747565b85611ac9565b602090601f831160011461104f5782610df196959360059593610dd8938b926110445750508160011b916000199060031b1c19161790565b90555b51151591019060ff801983541691151516179055565b604051610dfd816117b3565b8281526001600160a01b038481169490851561102b57838552600260205260408520541683868215159283610ff6575b81885260036020526040882060018154019055828852600260205260408820826bffffffffffffffffffffffff60a01b8254161790557fddf252ad1be2c89b69c2b068fc378daa952ba7f163c4a11628f55a4df523b3ef8880a4610fdd573b610ec1575b50602092817f3a5398bda6f1f57d6c96834fa9bf02b5517bdc847d14312015a917ba421c31c96040519480a38152f35b60405160208180610efa630a85bd0160e11b9586835233600484015288602484015287604484015260806064840152608483019061167f565b038187895af1849181610f98575b50610f695783853d15610f60573d610f1f816118b2565b90610f2d60405192836117eb565b8152809260203d92013e5b81519182610f5957604051633250574960e11b815260048101839052602490fd5b9050602001fd5b60609150610f38565b6001600160e01b03191603610f7f576020610e91565b604051633250574960e11b815260048101849052602490fd5b9091506020813d602011610fd5575b81610fb4602093836117eb565b810103126109c457516001600160e01b0319811681036109c4579038610f08565b3d9150610fa7565b6040516339e3563760e11b815260048101859052602490fd5b600083815260046020526040902080546001600160a01b03191690558088526003602052604088208054600019019055610e2d565b604051633250574960e11b815260048101869052602490fd5b015190503880610d5a565b838852602088209190601f198416895b8181106110a35750926001928592610df1999896600598961061108a575b505050811b019055610ddb565b015160001960f88460031b161c1916905538808061107d565b9293602060018192878601518155019501930161105f565b634e487b7160e01b87526041600452602487fd5b9190600386018852602088209088935b601f1984168510611123576001945083601f1981161061110a575b505050811b016003840155610d75565b015160001960f88460031b161c191690553880806110fa565b818101518355602094850194600190930192909101906110df565b50346101735780600319360112610173576040519080826001926001549361116585611747565b93848452602095866001821691826000146111ec575050600114611192575b505061081a925003836117eb565b90859250600182527fb10e2d527612073b26eecdfd717e6a320cf44b4afac2b0732d9fcbe2b7fa0cf65b8583106111d457505061081a93508201013880611184565b805483890185015287945086939092019181016111bc565b925093505061081a94915060ff191682840152151560051b8201013880611184565b50346101735780600319360112610173576006546040516001600160a01b039091168152602090f35b5034610173578060031936011261017357611250611bfe565b600680546001600160a01b0319811690915581906001600160a01b03167f8be0079c531659141344cd1fd0a4f28419497f9722a3daafe3b4186f6b6457e08280a380f35b5034610173576020366003190112610173576001600160a01b036112b66116a4565b1680156112d3578160409160209352600383522054604051908152f35b6040516322718ad960e21b815260048101839052602490fd5b503461017357602036600319011261017357602061130b600435611bc3565b6040516001600160a01b039091168152f35b50346101735760203660031901126101735760209060ff906040906001600160a01b036113486116a4565b168152600984522054166040519015158152f35b5034610173576040366003190112610173576113766116a4565b7f1eff62a53441c7d0125c22f2a9a324e206b34efa41e19469d7efb9bb703d21a360206113a161170a565b926113aa611bfe565b6001600160a01b03168085526009825260408520805460ff191660ff86151516179055926040519015158152a280f35b5034610173576104b96113ec366116d5565b90604051926113fa846117b3565b8584526109bf838383611905565b5034610173576104b961141a366116d5565b91611905565b50346101735760403660031901126101735761143a6116a4565b60243561144681611bc3565b331515806114f0575b806114c5575b6114ad576001600160a01b039283169282918491167f8c5be1e5ebec7d5bd14f71427d1e84f3dd0314c0f7b2291e5b200ac8c7c3b9258680a4825260046020526040822080546001600160a01b031916909117905580f35b60405163a9fbf51f60e01b8152336004820152602490fd5b506001600160a01b038116845260056020908152604080862033875290915284205460ff1615611455565b506001600160a01b03811633141561144f565b50346101735760203660031901126101735760209060043561152481611bc3565b50815260048252604060018060a01b0391205416604051908152f35b503461017357806003193601126101735760405190808282549161156383611747565b92838352602094600191866001821691826000146111ec57505060011461159257505061081a925003836117eb565b908592508180527f290decd9548b62a8d60345a988386fc84ba6bc95484008f6362f93160ef3e5635b8583106115d357505061081a93508201013880611184565b805483890185015287945086939092019181016115bb565b9050346108555760203660031901126108555760043563ffffffff60e01b811680910361165857602092506380ac58cd60e01b8114908115611647575b8115611636575b5015158152f35b6301ffc9a760e01b1490503861162f565b635b5e139f60e01b81149150611628565b8280fd5b60005b83811061166f5750506000910152565b818101518382015260200161165f565b906020916116988151809281855285808601910161165c565b601f01601f1916010190565b600435906001600160a01b03821682036116ba57565b600080fd5b602435906001600160a01b03821682036116ba57565b60609060031901126116ba576001600160a01b039060043582811681036116ba579160243590811681036116ba579060443590565b6024359081151582036116ba57565b9181601f840112156116ba5782359167ffffffffffffffff83116116ba57602083818601950101116116ba57565b90600182811c92168015611777575b602083101461176157565b634e487b7160e01b600052602260045260246000fd5b91607f1691611756565b60c0810190811067ffffffffffffffff82111761179d57604052565b634e487b7160e01b600052604160045260246000fd5b6020810190811067ffffffffffffffff82111761179d57604052565b6040810190811067ffffffffffffffff82111761179d57604052565b90601f8019910116810190811067ffffffffffffffff82111761179d57604052565b9060405191826000825461182081611747565b908184526020946001916001811690816000146118905750600114611851575b50505061184f925003836117eb565b565b600090815285812095935091905b81831061187857505061184f9350820101388080611840565b8554888401850152948501948794509183019161185f565b9250505061184f94925060ff191682840152151560051b820101388080611840565b67ffffffffffffffff811161179d57601f01601f191660200190565b9291926118da826118b2565b916118e860405193846117eb565b8294818452818301116116ba578281602093846000960137010152565b6001600160a01b039182169290918315611a8b576000928284528260209560028752604096848888205416968791331515806119f5575b509060027fddf252ad1be2c89b69c2b068fc378daa952ba7f163c4a11628f55a4df523b3ef92846119c2575b858352600381528b8320805460010190558683525289812080546001600160a01b0319168517905580a416928383036119a15750505050565b6064945051926364283d7b60e01b8452600484015260248301526044820152fd5b600087815260046020526040902080546001600160a01b0319169055848352600381528b83208054600019019055611968565b91939450915080611a4a575b15611a115785929187913861193c565b878688611a2e576024915190637e27328960e01b82526004820152fd5b604491519063177e802f60e01b82523360048301526024820152fd5b503387148015611a6f575b80611a015750858252600481523385898420541614611a01565b5086825260058152878220338352815260ff8883205416611a55565b604051633250574960e11b815260006004820152602490fd5b6000198114611ab35760010190565b634e487b7160e01b600052601160045260246000fd5b90601f8111611ad757505050565b6000916000526020600020906020601f850160051c83019410611b15575b601f0160051c01915b828110611b0a57505050565b818155600101611afe565b9092508290611af5565b15611b2657565b60405162461bcd60e51b815260206004820152602360248201527f53656e74696e656c494e46543a2063616c6c6572206e6f7420617574686f72696044820152621e995960ea1b6064820152608490fd5b15611b7e57565b60405162461bcd60e51b815260206004820152601f60248201527f53656e74696e656c494e46543a206e6f6e6578697374656e7420746f6b656e006044820152606490fd5b6000818152600260205260409020546001600160a01b0316908115611be6575090565b60249060405190637e27328960e01b82526004820152fd5b6006546001600160a01b03163303611c1257565b60405163118cdaa760e01b8152336004820152602490fd5b813b611c37575b50505050565b604051630a85bd0160e11b8082523360048301526001600160a01b03928316602483015260448201949094526080606482015260209592909116939092908390611c8590608483019061167f565b039285816000958187895af1849181611d2e575b50611cf9575050503d600014611cf1573d611cb3816118b2565b90611cc160405192836117eb565b81528091843d92013e5b80519283611cec57604051633250574960e11b815260048101849052602490fd5b019050fd5b506060611ccb565b919450915063ffffffff60e01b1603611d16575038808080611c31565b60249060405190633250574960e11b82526004820152fd5b9091508681813d8311611d67575b611d4681836117eb565b810103126109c457516001600160e01b0319811681036109c4579038611c99565b503d611d3c565b8015611e2b57600081805b611e175750611d87816118b2565b90611d9560405192836117eb565b808252601f19611da4826118b2565b013660208401375b80928015611e10576000198201918211611ab3578193600a926030908484068201809211611ab35785511115611dfa5760f81b6001600160f81b03191660001a908401601f01530491611dac565b634e487b7160e01b600052603260045260246000fd5b5050905090565b90611e23600a91611aa4565b910480611d79565b50604051611e38816117cf565b60018152600360fc1b60208201529056fea264697066735822122059d1f29c2a0e330766d9cfdf2b942c6c025250142c888b82c8cf5752b0715d1964736f6c63430008180033","opcodes":"PUSH1 0x80 CALLVALUE PUSH3 0x391 JUMPI PUSH1 0x1 PUSH1 0x1 PUSH1 0x40 SHL SUB SWAP1 PUSH1 0x40 DUP2 DUP2 ADD DUP4 DUP2 GT DUP4 DUP3 LT OR PUSH3 0x37B JUMPI DUP2 MSTORE PUSH1 0xC DUP3 MSTORE PUSH1 0x20 SWAP3 PUSH12 0x14D95B9D1A5B995B12539195 PUSH1 0xA2 SHL DUP5 DUP5 ADD MSTORE DUP2 MLOAD SWAP1 DUP3 DUP3 ADD DUP3 DUP2 LT DUP3 DUP3 GT OR PUSH3 0x37B JUMPI DUP4 MSTORE PUSH1 0x5 DUP3 MSTORE PUSH5 0x14D2539195 PUSH1 0xDA SHL DUP6 DUP4 ADD MSTORE DUP4 MLOAD DUP2 DUP2 GT PUSH3 0x37B JUMPI PUSH1 0x0 SWAP3 DUP4 SLOAD SWAP2 PUSH1 0x1 SWAP7 DUP8 DUP5 DUP2 SHR SWAP5 AND DUP1 ISZERO PUSH3 0x370 JUMPI JUMPDEST DUP10 DUP6 LT EQ PUSH3 0x35C JUMPI DUP2 SWAP1 PUSH1 0x1F SWAP5 DUP6 DUP2 GT PUSH3 0x309 JUMPI JUMPDEST POP DUP10 SWAP1 DUP6 DUP4 GT PUSH1 0x1 EQ PUSH3 0x2A5 JUMPI DUP8 SWAP3 PUSH3 0x299 JUMPI JUMPDEST POP POP PUSH1 0x0 NOT PUSH1 0x3 DUP4 SWAP1 SHL SHR NOT AND SWAP1 DUP8 SHL OR DUP5 SSTORE JUMPDEST DUP1 MLOAD SWAP3 DUP4 GT PUSH3 0x285 JUMPI DUP6 SLOAD DUP7 DUP2 DUP2 SHR SWAP2 AND DUP1 ISZERO PUSH3 0x27A JUMPI JUMPDEST DUP9 DUP3 LT EQ PUSH3 0x266 JUMPI SWAP1 DUP2 DUP4 DUP6 SWAP5 SWAP4 GT PUSH3 0x211 JUMPI JUMPDEST POP DUP8 SWAP2 DUP4 GT PUSH1 0x1 EQ PUSH3 0x1AD JUMPI DUP5 SWAP3 PUSH3 0x1A1 JUMPI JUMPDEST POP POP PUSH1 0x0 NOT PUSH1 0x3 DUP4 SWAP1 SHL SHR NOT AND SWAP1 DUP5 SHL OR DUP4 SSTORE JUMPDEST CALLER ISZERO PUSH3 0x18B JUMPI PUSH1 0x6 DUP1 SLOAD CALLER PUSH1 0x1 PUSH1 0x1 PUSH1 0xA0 SHL SUB NOT DUP3 AND DUP2 OR SWAP1 SWAP3 SSTORE DUP4 MLOAD SWAP6 PUSH1 0x9 SWAP3 SWAP1 SWAP2 PUSH1 0x1 PUSH1 0x1 PUSH1 0xA0 SHL SUB AND PUSH32 0x8BE0079C531659141344CD1FD0A4F28419497F9722A3DAAFE3B4186F6B6457E0 DUP6 DUP1 LOG3 CALLER DUP4 MSTORE MSTORE KECCAK256 SWAP1 PUSH1 0xFF NOT DUP3 SLOAD AND OR SWAP1 SSTORE PUSH2 0x1E7F SWAP1 DUP2 PUSH3 0x397 DUP3 CODECOPY RETURN JUMPDEST PUSH1 0x24 SWAP2 MLOAD SWAP1 PUSH4 0x1E4FBDF7 PUSH1 0xE0 SHL DUP3 MSTORE PUSH1 0x4 DUP3 ADD MSTORE REVERT JUMPDEST ADD MLOAD SWAP1 POP CODESIZE DUP1 PUSH3 0x10A JUMP JUMPDEST DUP7 DUP6 MSTORE DUP8 DUP6 KECCAK256 DUP8 SWAP5 POP SWAP2 SWAP1 PUSH1 0x1F NOT DUP5 AND DUP7 JUMPDEST DUP11 DUP3 DUP3 LT PUSH3 0x1FA JUMPI POP POP DUP5 GT PUSH3 0x1E0 JUMPI JUMPDEST POP POP POP DUP2 SHL ADD DUP4 SSTORE PUSH3 0x11E JUMP JUMPDEST ADD MLOAD PUSH1 0x0 NOT PUSH1 0xF8 DUP5 PUSH1 0x3 SHL AND SHR NOT AND SWAP1 SSTORE CODESIZE DUP1 DUP1 PUSH3 0x1D2 JUMP JUMPDEST DUP4 DUP6 ADD MLOAD DUP7 SSTORE DUP11 SWAP8 SWAP1 SWAP6 ADD SWAP5 SWAP4 DUP5 ADD SWAP4 ADD PUSH3 0x1BF JUMP JUMPDEST SWAP1 SWAP2 SWAP3 POP DUP7 DUP6 MSTORE DUP8 DUP6 KECCAK256 DUP4 DUP1 DUP7 ADD PUSH1 0x5 SHR DUP3 ADD SWAP3 DUP11 DUP8 LT PUSH3 0x25C JUMPI JUMPDEST SWAP2 DUP7 SWAP6 DUP11 SWAP3 SWAP6 SWAP5 SWAP4 ADD PUSH1 0x5 SHR ADD SWAP2 JUMPDEST DUP3 DUP2 LT PUSH3 0x24D JUMPI POP POP PUSH3 0xF5 JUMP JUMPDEST DUP8 DUP2 SSTORE DUP7 SWAP6 POP DUP10 SWAP2 ADD PUSH3 0x23D JUMP JUMPDEST SWAP3 POP DUP2 SWAP3 PUSH3 0x22E JUMP JUMPDEST PUSH4 0x4E487B71 PUSH1 0xE0 SHL DUP6 MSTORE PUSH1 0x22 PUSH1 0x4 MSTORE PUSH1 0x24 DUP6 REVERT JUMPDEST SWAP1 PUSH1 0x7F AND SWAP1 PUSH3 0xDF JUMP JUMPDEST PUSH4 0x4E487B71 PUSH1 0xE0 SHL DUP5 MSTORE PUSH1 0x41 PUSH1 0x4 MSTORE PUSH1 0x24 DUP5 REVERT JUMPDEST ADD MLOAD SWAP1 POP CODESIZE DUP1 PUSH3 0xB1 JUMP JUMPDEST DUP8 DUP1 MSTORE DUP11 DUP9 KECCAK256 DUP11 SWAP5 POP SWAP2 SWAP1 PUSH1 0x1F NOT DUP5 AND DUP10 JUMPDEST DUP14 DUP3 DUP3 LT PUSH3 0x2F2 JUMPI POP POP DUP5 GT PUSH3 0x2D8 JUMPI JUMPDEST POP POP POP DUP2 SHL ADD DUP5 SSTORE PUSH3 0xC5 JUMP JUMPDEST ADD MLOAD PUSH1 0x0 NOT PUSH1 0xF8 DUP5 PUSH1 0x3 SHL AND SHR NOT AND SWAP1 SSTORE CODESIZE DUP1 DUP1 PUSH3 0x2CA JUMP JUMPDEST DUP4 DUP6 ADD MLOAD DUP7 SSTORE DUP14 SWAP8 SWAP1 SWAP6 ADD SWAP5 SWAP4 DUP5 ADD SWAP4 ADD PUSH3 0x2B7 JUMP JUMPDEST SWAP1 SWAP2 POP DUP7 DUP1 MSTORE DUP10 DUP8 KECCAK256 DUP6 DUP1 DUP6 ADD PUSH1 0x5 SHR DUP3 ADD SWAP3 DUP13 DUP7 LT PUSH3 0x352 JUMPI JUMPDEST SWAP2 DUP12 SWAP2 DUP7 SWAP6 SWAP5 SWAP4 ADD PUSH1 0x5 SHR ADD SWAP2 JUMPDEST DUP3 DUP2 LT PUSH3 0x343 JUMPI POP POP PUSH3 0x9B JUMP JUMPDEST DUP10 DUP2 SSTORE DUP6 SWAP5 POP DUP12 SWAP2 ADD PUSH3 0x333 JUMP JUMPDEST SWAP3 POP DUP2 SWAP3 PUSH3 0x325 JUMP JUMPDEST PUSH4 0x4E487B71 PUSH1 0xE0 SHL DUP7 MSTORE PUSH1 0x22 PUSH1 0x4 MSTORE PUSH1 0x24 DUP7 REVERT JUMPDEST SWAP4 PUSH1 0x7F AND SWAP4 PUSH3 0x84 JUMP JUMPDEST PUSH4 0x4E487B71 PUSH1 0xE0 SHL PUSH1 0x0 MSTORE PUSH1 0x41 PUSH1 0x4 MSTORE PUSH1 0x24 PUSH1 0x0 REVERT JUMPDEST PUSH1 0x0 DUP1 REVERT INVALID PUSH1 0x80 DUP1 PUSH1 0x40 MSTORE PUSH1 0x4 CALLDATASIZE LT ISZERO PUSH2 0x13 JUMPI PUSH1 0x0 DUP1 REVERT JUMPDEST PUSH1 0x0 SWAP1 DUP2 CALLDATALOAD PUSH1 0xE0 SHR SWAP1 DUP2 PUSH4 0x1FFC9A7 EQ PUSH2 0x15EB JUMPI POP DUP1 PUSH4 0x6FDDE03 EQ PUSH2 0x1540 JUMPI DUP1 PUSH4 0x81812FC EQ PUSH2 0x1503 JUMPI DUP1 PUSH4 0x95EA7B3 EQ PUSH2 0x1420 JUMPI DUP1 PUSH4 0x23B872DD EQ PUSH2 0x1408 JUMPI DUP1 PUSH4 0x42842E0E EQ PUSH2 0x13DA JUMPI DUP1 PUSH4 0x454BBD29 EQ PUSH2 0x135C JUMPI DUP1 PUSH4 0x536FFF6C EQ PUSH2 0x131D JUMPI DUP1 PUSH4 0x6352211E EQ PUSH2 0x12EC JUMPI DUP1 PUSH4 0x70A08231 EQ PUSH2 0x1294 JUMPI DUP1 PUSH4 0x715018A6 EQ PUSH2 0x1237 JUMPI DUP1 PUSH4 0x8DA5CB5B EQ PUSH2 0x120E JUMPI DUP1 PUSH4 0x95D89B41 EQ PUSH2 0x113E JUMPI DUP1 PUSH4 0x99071190 EQ PUSH2 0xC33 JUMPI DUP1 PUSH4 0x9A92DB91 EQ PUSH2 0xBA1 JUMPI DUP1 PUSH4 0xA22CB465 EQ PUSH2 0xAF8 JUMPI DUP1 PUSH4 0xA2309FF8 EQ PUSH2 0xADA JUMPI DUP1 PUSH4 0xA5B7B6D6 EQ PUSH2 0xA98 JUMPI DUP1 PUSH4 0xB393970A EQ PUSH2 0x9C8 JUMPI DUP1 PUSH4 0xB88D4FDE EQ PUSH2 0x958 JUMPI DUP1 PUSH4 0xBBED8ED3 EQ PUSH2 0x859 JUMPI DUP1 PUSH4 0xC87B56DD EQ PUSH2 0x4D0 JUMPI DUP1 PUSH4 0xE60A955D EQ PUSH2 0x438 JUMPI DUP1 PUSH4 0xE985E9C5 EQ PUSH2 0x3E8 JUMPI DUP1 PUSH4 0xF2FDE38B EQ PUSH2 0x359 JUMPI DUP1 PUSH4 0xF4BEA7E9 EQ PUSH2 0x176 JUMPI PUSH4 0xF7DC68C6 EQ PUSH2 0x14A JUMPI PUSH1 0x0 DUP1 REVERT JUMPDEST CALLVALUE PUSH2 0x173 JUMPI PUSH1 0x20 CALLDATASIZE PUSH1 0x3 NOT ADD SLT PUSH2 0x173 JUMPI PUSH1 0x40 PUSH1 0x20 SWAP2 PUSH1 0x4 CALLDATALOAD DUP2 MSTORE PUSH1 0x8 DUP4 MSTORE KECCAK256 SLOAD PUSH1 0x40 MLOAD SWAP1 DUP2 MSTORE RETURN JUMPDEST DUP1 REVERT JUMPDEST POP CALLVALUE PUSH2 0x173 JUMPI PUSH1 0x40 CALLDATASIZE PUSH1 0x3 NOT ADD SLT PUSH2 0x173 JUMPI PUSH1 0x4 CALLDATALOAD PUSH8 0xFFFFFFFFFFFFFFFF PUSH1 0x24 CALLDATALOAD DUP2 DUP2 GT PUSH2 0x355 JUMPI PUSH2 0x1AC SWAP1 CALLDATASIZE SWAP1 PUSH1 0x4 ADD PUSH2 0x1719 JUMP JUMPDEST SWAP2 SWAP1 CALLER DUP6 MSTORE PUSH1 0x20 SWAP2 PUSH1 0x9 DUP4 MSTORE PUSH1 0xFF PUSH1 0x40 DUP8 KECCAK256 SLOAD AND DUP1 ISZERO PUSH2 0x341 JUMPI JUMPDEST PUSH2 0x1D0 SWAP1 PUSH2 0x1B1F JUMP JUMPDEST DUP5 DUP7 MSTORE PUSH1 0x2 DUP4 MSTORE PUSH1 0x40 DUP7 KECCAK256 SLOAD PUSH2 0x1F0 SWAP1 PUSH1 0x1 PUSH1 0x1 PUSH1 0xA0 SHL SUB AND ISZERO ISZERO PUSH2 0x1B77 JUMP JUMPDEST DUP5 DUP7 MSTORE PUSH1 0x8 DUP4 MSTORE PUSH1 0x3 PUSH1 0x40 DUP8 KECCAK256 ADD SWAP1 DUP5 GT PUSH2 0x32D JUMPI PUSH2 0x219 DUP5 PUSH2 0x213 DUP4 SLOAD PUSH2 0x1747 JUMP JUMPDEST DUP4 PUSH2 0x1AC9 JUMP JUMPDEST DUP6 PUSH1 0x1F DUP6 GT PUSH1 0x1 EQ PUSH2 0x2A4 JUMPI SWAP4 DUP1 PUSH1 0x40 SWAP4 DUP2 SWAP6 SWAP4 PUSH2 0x26F DUP4 DUP1 PUSH32 0xA7E8BB5552A7D79CED0F9A9251A656AB353FF1BE3D639BA890852322A42F8F95 SWAP11 DUP14 SWAP2 PUSH2 0x299 JUMPI JUMPDEST POP DUP2 PUSH1 0x1 SHL SWAP2 PUSH1 0x0 NOT SWAP1 PUSH1 0x3 SHL SHR NOT AND OR SWAP1 JUMP JUMPDEST SWAP1 SSTORE JUMPDEST DUP5 MLOAD SWAP6 DUP5 DUP8 SWAP6 DUP7 MSTORE DUP6 ADD MSTORE DUP5 DUP5 ADD CALLDATACOPY DUP2 DUP2 ADD DUP4 ADD DUP8 SWAP1 MSTORE PUSH1 0x1F ADD PUSH1 0x1F NOT AND DUP2 ADD SUB ADD SWAP1 LOG2 DUP1 RETURN JUMPDEST SWAP1 POP DUP5 ADD CALLDATALOAD CODESIZE PUSH2 0x25B JUMP JUMPDEST DUP2 DUP8 MSTORE DUP4 DUP8 KECCAK256 SWAP1 PUSH1 0x1F NOT DUP7 AND DUP9 JUMPDEST DUP2 DUP2 LT PUSH2 0x316 JUMPI POP SWAP4 DUP7 SWAP6 SWAP4 DUP7 SWAP4 DUP5 SWAP4 PUSH32 0xA7E8BB5552A7D79CED0F9A9251A656AB353FF1BE3D639BA890852322A42F8F95 SWAP10 PUSH1 0x40 SWAP9 LT PUSH2 0x2FC JUMPI JUMPDEST POP POP PUSH1 0x1 DUP4 DUP2 SHL ADD SWAP1 SSTORE PUSH2 0x272 JUMP JUMPDEST DUP4 ADD CALLDATALOAD PUSH1 0x0 NOT PUSH1 0x3 DUP7 SWAP1 SHL PUSH1 0xF8 AND SHR NOT AND SWAP1 SSTORE CODESIZE DUP1 PUSH2 0x2ED JUMP JUMPDEST SWAP2 SWAP3 DUP7 PUSH1 0x1 DUP2 SWAP3 DUP7 DUP10 ADD CALLDATALOAD DUP2 SSTORE ADD SWAP5 ADD SWAP3 ADD PUSH2 0x2B2 JUMP JUMPDEST PUSH4 0x4E487B71 PUSH1 0xE0 SHL DUP7 MSTORE PUSH1 0x41 PUSH1 0x4 MSTORE PUSH1 0x24 DUP7 REVERT JUMPDEST POP PUSH1 0x6 SLOAD PUSH1 0x1 PUSH1 0x1 PUSH1 0xA0 SHL SUB AND CALLER EQ PUSH2 0x1C7 JUMP JUMPDEST DUP4 DUP1 REVERT JUMPDEST POP CALLVALUE PUSH2 0x173 JUMPI PUSH1 0x20 CALLDATASIZE PUSH1 0x3 NOT ADD SLT PUSH2 0x173 JUMPI PUSH2 0x373 PUSH2 0x16A4 JUMP JUMPDEST PUSH2 0x37B PUSH2 0x1BFE JUMP JUMPDEST PUSH1 0x1 PUSH1 0x1 PUSH1 0xA0 SHL SUB SWAP1 DUP2 AND SWAP1 DUP2 ISZERO PUSH2 0x3CF JUMPI PUSH1 0x6 SLOAD DUP3 PUSH12 0xFFFFFFFFFFFFFFFFFFFFFFFF PUSH1 0xA0 SHL DUP3 AND OR PUSH1 0x6 SSTORE AND PUSH32 0x8BE0079C531659141344CD1FD0A4F28419497F9722A3DAAFE3B4186F6B6457E0 DUP4 DUP1 LOG3 DUP1 RETURN JUMPDEST PUSH1 0x40 MLOAD PUSH4 0x1E4FBDF7 PUSH1 0xE0 SHL DUP2 MSTORE PUSH1 0x4 DUP2 ADD DUP5 SWAP1 MSTORE PUSH1 0x24 SWAP1 REVERT JUMPDEST POP CALLVALUE PUSH2 0x173 JUMPI PUSH1 0x40 CALLDATASIZE PUSH1 0x3 NOT ADD SLT PUSH2 0x173 JUMPI PUSH1 0xFF PUSH1 0x40 PUSH1 0x20 SWAP3 PUSH2 0x409 PUSH2 0x16A4 JUMP JUMPDEST PUSH2 0x411 PUSH2 0x16BF JUMP JUMPDEST PUSH1 0x1 PUSH1 0x1 PUSH1 0xA0 SHL SUB SWAP2 DUP3 AND DUP4 MSTORE PUSH1 0x5 DUP7 MSTORE DUP4 DUP4 KECCAK256 SWAP2 AND DUP3 MSTORE DUP5 MSTORE KECCAK256 SLOAD PUSH1 0x40 MLOAD SWAP2 AND ISZERO ISZERO DUP2 MSTORE RETURN JUMPDEST POP CALLVALUE PUSH2 0x173 JUMPI PUSH1 0x40 CALLDATASIZE PUSH1 0x3 NOT ADD SLT PUSH2 0x173 JUMPI PUSH2 0x4B9 PUSH1 0x4 CALLDATALOAD PUSH2 0x458 PUSH2 0x170A JUMP JUMPDEST SWAP1 CALLER DUP5 MSTORE PUSH1 0x9 PUSH1 0x20 MSTORE PUSH1 0xFF PUSH1 0x40 DUP6 KECCAK256 SLOAD AND DUP1 ISZERO PUSH2 0x4BC JUMPI JUMPDEST PUSH2 0x479 SWAP1 PUSH2 0x1B1F JUMP JUMPDEST DUP1 DUP5 MSTORE PUSH1 0x2 PUSH1 0x20 MSTORE PUSH1 0x40 DUP5 KECCAK256 SLOAD PUSH2 0x49A SWAP1 PUSH1 0x1 PUSH1 0x1 PUSH1 0xA0 SHL SUB AND ISZERO ISZERO PUSH2 0x1B77 JUMP JUMPDEST DUP4 MSTORE PUSH1 0x8 PUSH1 0x20 MSTORE PUSH1 0x5 PUSH1 0x40 DUP5 KECCAK256 ADD SWAP1 PUSH1 0xFF DUP1 NOT DUP4 SLOAD AND SWAP2 ISZERO ISZERO AND OR SWAP1 SSTORE JUMP JUMPDEST DUP1 RETURN JUMPDEST POP PUSH1 0x6 SLOAD PUSH1 0x1 PUSH1 0x1 PUSH1 0xA0 SHL SUB AND CALLER EQ PUSH2 0x470 JUMP JUMPDEST POP CALLVALUE PUSH2 0x173 JUMPI PUSH1 0x20 DUP1 PUSH1 0x3 NOT CALLDATASIZE ADD SLT PUSH2 0x855 JUMPI PUSH1 0x4 CALLDATALOAD DUP1 DUP4 MSTORE PUSH1 0x2 DUP3 MSTORE PUSH1 0x40 DUP4 KECCAK256 SLOAD PUSH2 0x81A SWAP2 PUSH2 0x164 SWAP2 PUSH2 0x50E SWAP1 PUSH1 0x1 PUSH1 0x1 PUSH1 0xA0 SHL SUB AND ISZERO ISZERO PUSH2 0x1B77 JUMP JUMPDEST DUP1 DUP6 MSTORE PUSH1 0x8 DUP5 MSTORE PUSH1 0x40 DUP6 KECCAK256 SWAP5 PUSH1 0x40 MLOAD SWAP2 PUSH2 0x527 DUP4 PUSH2 0x1781 JUMP JUMPDEST DUP7 SLOAD DUP4 MSTORE PUSH1 0x1 DUP8 ADD SLOAD DUP7 DUP5 ADD MSTORE PUSH1 0x2 DUP8 ADD SLOAD PUSH1 0x40 DUP5 ADD MSTORE PUSH2 0x54A PUSH1 0x3 DUP9 ADD PUSH2 0x180D JUMP JUMPDEST SWAP2 PUSH1 0x60 DUP5 ADD SWAP3 DUP4 MSTORE PUSH2 0x589 PUSH2 0x582 PUSH1 0xFF PUSH1 0x5 PUSH2 0x568 PUSH1 0x4 DUP14 ADD PUSH2 0x180D JUMP JUMPDEST SWAP12 PUSH1 0x80 DUP10 ADD SWAP13 DUP14 MSTORE ADD SLOAD AND SWAP4 PUSH1 0xA0 DUP8 ADD SWAP5 ISZERO ISZERO DUP6 MSTORE PUSH2 0x1D6E JUMP JUMPDEST SWAP5 MLOAD PUSH2 0x1D6E JUMP JUMPDEST SWAP8 MLOAD SWAP2 MLOAD ISZERO SWAP1 POP PUSH2 0x832 JUMPI PUSH1 0x40 MLOAD PUSH2 0x5A0 DUP2 PUSH2 0x17CF JUMP JUMPDEST PUSH1 0x4 DUP2 MSTORE PUSH4 0x74727565 PUSH1 0xE0 SHL DUP8 DUP3 ADD MSTORE SWAP2 JUMPDEST MLOAD SWAP1 PUSH1 0x40 MLOAD SWAP8 DUP9 SWAP5 PUSH32 0x646174613A6170706C69636174696F6E2F6A736F6E3B757466382C0000000000 DUP10 DUP8 ADD MSTORE PUSH32 0x7B226E616D65223A2253656E74696E656C20477561726469616E202300000000 PUSH1 0x3B DUP8 ADD MSTORE PUSH2 0x618 DUP2 MLOAD DUP1 SWAP3 DUP12 PUSH1 0x57 DUP11 ADD SWAP2 ADD PUSH2 0x165C JUMP JUMPDEST PUSH2 0x88B PUSH1 0xF2 SHL PUSH1 0x57 SWAP2 DUP8 ADD SWAP2 DUP3 ADD MSTORE PUSH32 0x226465736372697074696F6E223A2253656E74696E656C20694E4654202D2041 PUSH1 0x59 DUP3 ADD MSTORE PUSH32 0x75746F6E6F6D6F7573204465466920506F736974696F6E20477561726469616E PUSH1 0x79 DUP3 ADD MSTORE PUSH32 0x20706F7765726564206279203047202B204B6565706572487562222C00000000 PUSH1 0x99 DUP3 ADD MSTORE PUSH14 0x2261747472696275746573223A5B PUSH1 0x90 SHL PUSH1 0xB5 DUP3 ADD MSTORE PUSH32 0x7B2274726169745F74797065223A22457870657269656E6365204379636C6573 PUSH1 0xC3 DUP3 ADD MSTORE PUSH10 0x1116113B30B63AB2911D PUSH1 0xB1 SHL PUSH1 0xE3 DUP3 ADD MSTORE DUP2 MLOAD SWAP2 PUSH2 0x6FE SWAP1 DUP4 SWAP1 PUSH1 0xED DUP5 ADD SWAP1 DUP13 ADD PUSH2 0x165C JUMP JUMPDEST ADD SWAP1 PUSH2 0x1F4B PUSH1 0xF2 SHL PUSH1 0xED DUP4 ADD MSTORE PUSH32 0x7B2274726169745F74797065223A225374726174656779222C2276616C756522 PUSH1 0xEF DUP4 ADD MSTORE PUSH2 0x1D11 PUSH1 0xF1 SHL PUSH2 0x10F DUP4 ADD MSTORE PUSH2 0x111 SWAP2 PUSH2 0x753 DUP3 MLOAD DUP1 SWAP4 DUP12 DUP7 DUP6 ADD SWAP2 ADD PUSH2 0x165C JUMP JUMPDEST ADD SWAP3 PUSH3 0x89F4B PUSH1 0xEA SHL DUP1 SWAP3 DUP6 ADD MSTORE PUSH32 0x7B2274726169745F74797065223A22416374697665222C2276616C7565223A22 PUSH2 0x114 DUP6 ADD MSTORE PUSH2 0x134 SWAP4 PUSH2 0x79E DUP3 MLOAD DUP1 SWAP4 DUP12 DUP9 DUP6 ADD SWAP2 ADD PUSH2 0x165C JUMP JUMPDEST ADD SWAP3 DUP4 ADD MSTORE PUSH32 0x7B2274726169745F74797065223A2253746F7261676520506F696E746572222C PUSH2 0x137 DUP4 ADD MSTORE PUSH9 0x113B30B63AB2911D11 PUSH1 0xB9 SHL PUSH2 0x157 DUP4 ADD MSTORE PUSH2 0x160 SWAP2 PUSH2 0x7F3 DUP3 MLOAD DUP1 SWAP4 DUP10 DUP7 DUP6 ADD SWAP2 ADD PUSH2 0x165C JUMP JUMPDEST ADD SWAP1 PUSH2 0x227D PUSH1 0xF0 SHL SWAP1 DUP3 ADD MSTORE PUSH2 0x5D7D PUSH1 0xF0 SHL PUSH2 0x162 DUP3 ADD MSTORE SUB PUSH2 0x144 DUP2 ADD DUP6 MSTORE ADD DUP4 PUSH2 0x17EB JUMP JUMPDEST PUSH2 0x82E PUSH1 0x40 MLOAD SWAP3 DUP3 DUP5 SWAP4 DUP5 MSTORE DUP4 ADD SWAP1 PUSH2 0x167F JUMP JUMPDEST SUB SWAP1 RETURN JUMPDEST PUSH1 0x40 MLOAD PUSH2 0x83E DUP2 PUSH2 0x17CF JUMP JUMPDEST PUSH1 0x5 DUP2 MSTORE PUSH5 0x66616C7365 PUSH1 0xD8 SHL DUP8 DUP3 ADD MSTORE SWAP2 PUSH2 0x5B2 JUMP JUMPDEST POP DUP1 REVERT JUMPDEST POP CALLVALUE PUSH2 0x173 JUMPI PUSH1 0x20 SWAP1 DUP2 PUSH1 0x3 NOT CALLDATASIZE ADD SLT PUSH2 0x173 JUMPI DUP1 PUSH1 0x40 SWAP2 PUSH1 0xA0 DUP4 MLOAD PUSH2 0x87E DUP2 PUSH2 0x1781 JUMP JUMPDEST DUP3 DUP2 MSTORE DUP3 DUP7 DUP3 ADD MSTORE DUP3 DUP6 DUP3 ADD MSTORE PUSH1 0x60 DUP1 DUP3 ADD MSTORE PUSH1 0x60 PUSH1 0x80 DUP3 ADD MSTORE ADD MSTORE PUSH1 0x4 CALLDATALOAD DUP2 MSTORE PUSH1 0x8 DUP4 MSTORE KECCAK256 PUSH1 0x40 MLOAD SWAP1 PUSH2 0x8B1 DUP3 PUSH2 0x1781 JUMP JUMPDEST DUP1 SLOAD DUP3 MSTORE PUSH2 0x94B PUSH1 0x1 DUP3 ADD SLOAD SWAP2 DUP5 DUP5 ADD SWAP3 DUP4 MSTORE PUSH2 0x938 PUSH1 0x2 DUP3 ADD SLOAD PUSH1 0x40 DUP7 ADD SWAP1 DUP2 MSTORE PUSH2 0x8DF PUSH1 0x3 DUP5 ADD PUSH2 0x180D JUMP JUMPDEST SWAP1 PUSH1 0x60 DUP8 ADD SWAP2 DUP3 MSTORE PUSH1 0xFF PUSH1 0x5 PUSH2 0x8F7 PUSH1 0x4 DUP8 ADD PUSH2 0x180D JUMP JUMPDEST SWAP6 PUSH1 0x80 DUP11 ADD SWAP7 DUP8 MSTORE ADD SLOAD AND SWAP6 PUSH1 0xA0 DUP9 ADD SWAP7 ISZERO ISZERO DUP8 MSTORE PUSH1 0x40 MLOAD SWAP9 DUP10 SWAP9 DUP2 DUP11 MSTORE MLOAD SWAP1 DUP10 ADD MSTORE MLOAD PUSH1 0x40 DUP9 ADD MSTORE MLOAD PUSH1 0x60 DUP8 ADD MSTORE MLOAD PUSH1 0xC0 PUSH1 0x80 DUP8 ADD MSTORE PUSH1 0xE0 DUP7 ADD SWAP1 PUSH2 0x167F JUMP JUMPDEST SWAP1 MLOAD DUP5 DUP3 SUB PUSH1 0x1F NOT ADD PUSH1 0xA0 DUP7 ADD MSTORE PUSH2 0x167F JUMP JUMPDEST SWAP1 MLOAD ISZERO ISZERO PUSH1 0xC0 DUP4 ADD MSTORE SUB SWAP1 RETURN JUMPDEST POP CALLVALUE PUSH2 0x173 JUMPI PUSH1 0x80 CALLDATASIZE PUSH1 0x3 NOT ADD SLT PUSH2 0x173 JUMPI PUSH2 0x972 PUSH2 0x16A4 JUMP JUMPDEST PUSH2 0x97A PUSH2 0x16BF JUMP JUMPDEST SWAP1 PUSH1 0x44 CALLDATALOAD PUSH1 0x64 CALLDATALOAD SWAP3 PUSH8 0xFFFFFFFFFFFFFFFF DUP5 GT PUSH2 0x9C4 JUMPI CALLDATASIZE PUSH1 0x23 DUP6 ADD SLT ISZERO PUSH2 0x9C4 JUMPI PUSH2 0x9B3 PUSH2 0x4B9 SWAP5 CALLDATASIZE SWAP1 PUSH1 0x24 DUP2 PUSH1 0x4 ADD CALLDATALOAD SWAP2 ADD PUSH2 0x18CE JUMP JUMPDEST SWAP3 PUSH2 0x9BF DUP4 DUP4 DUP4 PUSH2 0x1905 JUMP JUMPDEST PUSH2 0x1C2A JUMP JUMPDEST DUP5 DUP1 REVERT JUMPDEST POP CALLVALUE PUSH2 0x173 JUMPI PUSH1 0x20 CALLDATASIZE PUSH1 0x3 NOT ADD SLT PUSH2 0x173 JUMPI PUSH1 0x4 CALLDATALOAD CALLER DUP3 MSTORE PUSH1 0x9 PUSH1 0x20 MSTORE PUSH1 0xFF PUSH1 0x40 DUP4 KECCAK256 SLOAD AND DUP1 ISZERO PUSH2 0xA84 JUMPI JUMPDEST PUSH2 0x9FD SWAP1 PUSH2 0x1B1F JUMP JUMPDEST DUP1 DUP3 MSTORE PUSH1 0x2 PUSH1 0x20 MSTORE PUSH1 0x40 DUP3 KECCAK256 SLOAD PUSH2 0xA1E SWAP1 PUSH1 0x1 PUSH1 0x1 PUSH1 0xA0 SHL SUB AND ISZERO ISZERO PUSH2 0x1B77 JUMP JUMPDEST DUP1 DUP3 MSTORE PUSH1 0x8 PUSH1 0x20 MSTORE PUSH1 0x40 DUP3 KECCAK256 DUP1 SLOAD SWAP1 PUSH1 0x1 DUP3 ADD DUP1 SWAP3 GT PUSH2 0xA70 JUMPI DUP2 DUP2 PUSH32 0x909A0CFCBDDFA22D82E19AB2A4850D9C88C0220712B3F0EAC6C1E4BDA3CD7FB4 SWAP4 PUSH1 0x20 SWAP4 SSTORE PUSH1 0x2 TIMESTAMP SWAP2 ADD SSTORE PUSH1 0x40 MLOAD SWAP1 DUP2 MSTORE LOG2 DUP1 RETURN JUMPDEST PUSH4 0x4E487B71 PUSH1 0xE0 SHL DUP5 MSTORE PUSH1 0x11 PUSH1 0x4 MSTORE PUSH1 0x24 DUP5 REVERT JUMPDEST POP PUSH1 0x6 SLOAD PUSH1 0x1 PUSH1 0x1 PUSH1 0xA0 SHL SUB AND CALLER EQ PUSH2 0x9F4 JUMP JUMPDEST POP CALLVALUE PUSH2 0x173 JUMPI PUSH1 0x20 CALLDATASIZE PUSH1 0x3 NOT ADD SLT PUSH2 0x173 JUMPI PUSH2 0xAC6 PUSH1 0x3 PUSH1 0x40 PUSH2 0x82E SWAP4 PUSH1 0x4 CALLDATALOAD DUP2 MSTORE PUSH1 0x8 PUSH1 0x20 MSTORE KECCAK256 ADD PUSH2 0x180D JUMP JUMPDEST PUSH1 0x40 MLOAD SWAP2 DUP3 SWAP2 PUSH1 0x20 DUP4 MSTORE PUSH1 0x20 DUP4 ADD SWAP1 PUSH2 0x167F JUMP JUMPDEST POP CALLVALUE PUSH2 0x173 JUMPI DUP1 PUSH1 0x3 NOT CALLDATASIZE ADD SLT PUSH2 0x173 JUMPI PUSH1 0x20 PUSH1 0x7 SLOAD PUSH1 0x40 MLOAD SWAP1 DUP2 MSTORE RETURN JUMPDEST POP CALLVALUE PUSH2 0x173 JUMPI PUSH1 0x40 CALLDATASIZE PUSH1 0x3 NOT ADD SLT PUSH2 0x173 JUMPI PUSH2 0xB12 PUSH2 0x16A4 JUMP JUMPDEST PUSH2 0xB1A PUSH2 0x170A JUMP JUMPDEST PUSH1 0x1 PUSH1 0x1 PUSH1 0xA0 SHL SUB SWAP1 SWAP2 AND SWAP1 DUP2 ISZERO PUSH2 0xB88 JUMPI CALLER DUP4 MSTORE PUSH1 0x5 PUSH1 0x20 MSTORE PUSH1 0x40 DUP4 KECCAK256 DUP3 DUP5 MSTORE PUSH1 0x20 MSTORE PUSH2 0xB57 DUP2 PUSH1 0x40 DUP6 KECCAK256 SWAP1 PUSH1 0xFF DUP1 NOT DUP4 SLOAD AND SWAP2 ISZERO ISZERO AND OR SWAP1 SSTORE JUMP JUMPDEST PUSH1 0x40 MLOAD SWAP1 ISZERO ISZERO DUP2 MSTORE PUSH32 0x17307EAB39AB6107E8899845AD3D59BD9653F200F220920489CA2B5937696C31 PUSH1 0x20 CALLER SWAP3 LOG3 DUP1 RETURN JUMPDEST PUSH1 0x40 MLOAD PUSH4 0xB611743 PUSH1 0xE3 SHL DUP2 MSTORE PUSH1 0x4 DUP2 ADD DUP4 SWAP1 MSTORE PUSH1 0x24 SWAP1 REVERT JUMPDEST POP CALLVALUE PUSH2 0x173 JUMPI PUSH1 0x20 CALLDATASIZE PUSH1 0x3 NOT ADD SLT PUSH2 0x173 JUMPI PUSH1 0x40 SWAP1 PUSH1 0x4 CALLDATALOAD DUP2 MSTORE PUSH1 0x8 PUSH1 0x20 MSTORE KECCAK256 DUP1 SLOAD PUSH1 0x1 DUP3 ADD SLOAD SWAP2 PUSH2 0xC27 PUSH1 0x2 DUP3 ADD SLOAD SWAP2 PUSH2 0xC19 PUSH2 0xBE1 PUSH1 0x3 DUP4 ADD PUSH2 0x180D JUMP JUMPDEST PUSH1 0xFF PUSH1 0x5 PUSH2 0xBF1 PUSH1 0x4 DUP7 ADD PUSH2 0x180D JUMP JUMPDEST SWAP5 ADD SLOAD AND SWAP5 PUSH1 0x40 MLOAD SWAP8 DUP9 SWAP8 DUP9 MSTORE PUSH1 0x20 DUP9 ADD MSTORE PUSH1 0x40 DUP8 ADD MSTORE PUSH1 0xC0 PUSH1 0x60 DUP8 ADD MSTORE PUSH1 0xC0 DUP7 ADD SWAP1 PUSH2 0x167F JUMP JUMPDEST SWAP1 DUP5 DUP3 SUB PUSH1 0x80 DUP7 ADD MSTORE PUSH2 0x167F JUMP JUMPDEST SWAP1 ISZERO ISZERO PUSH1 0xA0 DUP4 ADD MSTORE SUB SWAP1 RETURN JUMPDEST POP CALLVALUE PUSH2 0x173 JUMPI PUSH1 0x60 CALLDATASIZE PUSH1 0x3 NOT ADD SLT PUSH2 0x173 JUMPI PUSH2 0xC4D PUSH2 0x16A4 JUMP JUMPDEST SWAP1 PUSH1 0x24 CALLDATALOAD PUSH8 0xFFFFFFFFFFFFFFFF DUP2 GT PUSH2 0x855 JUMPI PUSH2 0xC6E SWAP1 CALLDATASIZE SWAP1 PUSH1 0x4 ADD PUSH2 0x1719 JUMP JUMPDEST PUSH1 0x44 CALLDATALOAD PUSH8 0xFFFFFFFFFFFFFFFF DUP2 GT PUSH2 0x355 JUMPI PUSH2 0xC8E SWAP1 CALLDATASIZE SWAP1 PUSH1 0x4 ADD PUSH2 0x1719 JUMP JUMPDEST SWAP3 SWAP1 SWAP2 PUSH2 0xC99 PUSH2 0x1BFE JUMP JUMPDEST PUSH1 0x7 SLOAD SWAP4 PUSH2 0xCA6 DUP6 PUSH2 0x1AA4 JUMP JUMPDEST PUSH1 0x7 SSTORE PUSH2 0xCE5 PUSH1 0x40 MLOAD SWAP5 PUSH2 0xCB9 DUP7 PUSH2 0x1781 JUMP JUMPDEST DUP8 DUP7 MSTORE PUSH2 0xCD6 PUSH1 0x20 DUP8 ADD SWAP6 TIMESTAMP DUP8 MSTORE PUSH1 0x40 DUP9 ADD SWAP6 TIMESTAMP DUP8 MSTORE CALLDATASIZE SWAP2 PUSH2 0x18CE JUMP JUMPDEST SWAP3 PUSH1 0x60 DUP8 ADD SWAP4 DUP5 MSTORE CALLDATASIZE SWAP2 PUSH2 0x18CE JUMP JUMPDEST SWAP2 PUSH1 0x80 DUP6 ADD SWAP3 DUP4 MSTORE PUSH1 0xA0 DUP6 ADD SWAP4 PUSH1 0x1 DUP6 MSTORE DUP7 DUP9 MSTORE PUSH1 0x8 PUSH1 0x20 MSTORE PUSH1 0x40 DUP9 KECCAK256 SWAP6 MLOAD DUP7 SSTORE MLOAD PUSH1 0x1 DUP7 ADD SSTORE MLOAD PUSH1 0x2 DUP6 ADD SSTORE MLOAD DUP1 MLOAD SWAP1 PUSH8 0xFFFFFFFFFFFFFFFF DUP3 GT PUSH2 0x10BB JUMPI PUSH2 0xD3F DUP3 PUSH2 0xD36 PUSH1 0x3 DUP9 ADD SLOAD PUSH2 0x1747 JUMP JUMPDEST PUSH1 0x3 DUP9 ADD PUSH2 0x1AC9 JUMP JUMPDEST PUSH1 0x20 SWAP1 PUSH1 0x1F DUP4 GT PUSH1 0x1 EQ PUSH2 0x10CF JUMPI PUSH2 0xD6F SWAP3 SWAP2 DUP9 SWAP2 DUP4 PUSH2 0x1044 JUMPI JUMPDEST POP POP DUP2 PUSH1 0x1 SHL SWAP2 PUSH1 0x0 NOT SWAP1 PUSH1 0x3 SHL SHR NOT AND OR SWAP1 JUMP JUMPDEST PUSH1 0x3 DUP5 ADD SSTORE JUMPDEST MLOAD DUP1 MLOAD PUSH1 0x4 DUP5 ADD SWAP2 PUSH8 0xFFFFFFFFFFFFFFFF DUP3 GT PUSH2 0x10BB JUMPI PUSH2 0xDA0 DUP3 PUSH2 0xD9A DUP6 SLOAD PUSH2 0x1747 JUMP JUMPDEST DUP6 PUSH2 0x1AC9 JUMP JUMPDEST PUSH1 0x20 SWAP1 PUSH1 0x1F DUP4 GT PUSH1 0x1 EQ PUSH2 0x104F JUMPI DUP3 PUSH2 0xDF1 SWAP7 SWAP6 SWAP4 PUSH1 0x5 SWAP6 SWAP4 PUSH2 0xDD8 SWAP4 DUP12 SWAP3 PUSH2 0x1044 JUMPI POP POP DUP2 PUSH1 0x1 SHL SWAP2 PUSH1 0x0 NOT SWAP1 PUSH1 0x3 SHL SHR NOT AND OR SWAP1 JUMP JUMPDEST SWAP1 SSTORE JUMPDEST MLOAD ISZERO ISZERO SWAP2 ADD SWAP1 PUSH1 0xFF DUP1 NOT DUP4 SLOAD AND SWAP2 ISZERO ISZERO AND OR SWAP1 SSTORE JUMP JUMPDEST PUSH1 0x40 MLOAD PUSH2 0xDFD DUP2 PUSH2 0x17B3 JUMP JUMPDEST DUP3 DUP2 MSTORE PUSH1 0x1 PUSH1 0x1 PUSH1 0xA0 SHL SUB DUP5 DUP2 AND SWAP5 SWAP1 DUP6 ISZERO PUSH2 0x102B JUMPI DUP4 DUP6 MSTORE PUSH1 0x2 PUSH1 0x20 MSTORE PUSH1 0x40 DUP6 KECCAK256 SLOAD AND DUP4 DUP7 DUP3 ISZERO ISZERO SWAP3 DUP4 PUSH2 0xFF6 JUMPI JUMPDEST DUP2 DUP9 MSTORE PUSH1 0x3 PUSH1 0x20 MSTORE PUSH1 0x40 DUP9 KECCAK256 PUSH1 0x1 DUP2 SLOAD ADD SWAP1 SSTORE DUP3 DUP9 MSTORE PUSH1 0x2 PUSH1 0x20 MSTORE PUSH1 0x40 DUP9 KECCAK256 DUP3 PUSH12 0xFFFFFFFFFFFFFFFFFFFFFFFF PUSH1 0xA0 SHL DUP3 SLOAD AND OR SWAP1 SSTORE PUSH32 0xDDF252AD1BE2C89B69C2B068FC378DAA952BA7F163C4A11628F55A4DF523B3EF DUP9 DUP1 LOG4 PUSH2 0xFDD JUMPI EXTCODESIZE PUSH2 0xEC1 JUMPI JUMPDEST POP PUSH1 0x20 SWAP3 DUP2 PUSH32 0x3A5398BDA6F1F57D6C96834FA9BF02B5517BDC847D14312015A917BA421C31C9 PUSH1 0x40 MLOAD SWAP5 DUP1 LOG3 DUP2 MSTORE RETURN JUMPDEST PUSH1 0x40 MLOAD PUSH1 0x20 DUP2 DUP1 PUSH2 0xEFA PUSH4 0xA85BD01 PUSH1 0xE1 SHL SWAP6 DUP7 DUP4 MSTORE CALLER PUSH1 0x4 DUP5 ADD MSTORE DUP9 PUSH1 0x24 DUP5 ADD MSTORE DUP8 PUSH1 0x44 DUP5 ADD MSTORE PUSH1 0x80 PUSH1 0x64 DUP5 ADD MSTORE PUSH1 0x84 DUP4 ADD SWAP1 PUSH2 0x167F JUMP JUMPDEST SUB DUP2 DUP8 DUP10 GAS CALL DUP5 SWAP2 DUP2 PUSH2 0xF98 JUMPI JUMPDEST POP PUSH2 0xF69 JUMPI DUP4 DUP6 RETURNDATASIZE ISZERO PUSH2 0xF60 JUMPI RETURNDATASIZE PUSH2 0xF1F DUP2 PUSH2 0x18B2 JUMP JUMPDEST SWAP1 PUSH2 0xF2D PUSH1 0x40 MLOAD SWAP3 DUP4 PUSH2 0x17EB JUMP JUMPDEST DUP2 MSTORE DUP1 SWAP3 PUSH1 0x20 RETURNDATASIZE SWAP3 ADD RETURNDATACOPY JUMPDEST DUP2 MLOAD SWAP2 DUP3 PUSH2 0xF59 JUMPI PUSH1 0x40 MLOAD PUSH4 0x32505749 PUSH1 0xE1 SHL DUP2 MSTORE PUSH1 0x4 DUP2 ADD DUP4 SWAP1 MSTORE PUSH1 0x24 SWAP1 REVERT JUMPDEST SWAP1 POP PUSH1 0x20 ADD REVERT JUMPDEST PUSH1 0x60 SWAP2 POP PUSH2 0xF38 JUMP JUMPDEST PUSH1 0x1 PUSH1 0x1 PUSH1 0xE0 SHL SUB NOT AND SUB PUSH2 0xF7F JUMPI PUSH1 0x20 PUSH2 0xE91 JUMP JUMPDEST PUSH1 0x40 MLOAD PUSH4 0x32505749 PUSH1 0xE1 SHL DUP2 MSTORE PUSH1 0x4 DUP2 ADD DUP5 SWAP1 MSTORE PUSH1 0x24 SWAP1 REVERT JUMPDEST SWAP1 SWAP2 POP PUSH1 0x20 DUP2 RETURNDATASIZE PUSH1 0x20 GT PUSH2 0xFD5 JUMPI JUMPDEST DUP2 PUSH2 0xFB4 PUSH1 0x20 SWAP4 DUP4 PUSH2 0x17EB JUMP JUMPDEST DUP2 ADD SUB SLT PUSH2 0x9C4 JUMPI MLOAD PUSH1 0x1 PUSH1 0x1 PUSH1 0xE0 SHL SUB NOT DUP2 AND DUP2 SUB PUSH2 0x9C4 JUMPI SWAP1 CODESIZE PUSH2 0xF08 JUMP JUMPDEST RETURNDATASIZE SWAP2 POP PUSH2 0xFA7 JUMP JUMPDEST PUSH1 0x40 MLOAD PUSH4 0x39E35637 PUSH1 0xE1 SHL DUP2 MSTORE PUSH1 0x4 DUP2 ADD DUP6 SWAP1 MSTORE PUSH1 0x24 SWAP1 REVERT JUMPDEST PUSH1 0x0 DUP4 DUP2 MSTORE PUSH1 0x4 PUSH1 0x20 MSTORE PUSH1 0x40 SWAP1 KECCAK256 DUP1 SLOAD PUSH1 0x1 PUSH1 0x1 PUSH1 0xA0 SHL SUB NOT AND SWAP1 SSTORE DUP1 DUP9 MSTORE PUSH1 0x3 PUSH1 0x20 MSTORE PUSH1 0x40 DUP9 KECCAK256 DUP1 SLOAD PUSH1 0x0 NOT ADD SWAP1 SSTORE PUSH2 0xE2D JUMP JUMPDEST PUSH1 0x40 MLOAD PUSH4 0x32505749 PUSH1 0xE1 SHL DUP2 MSTORE PUSH1 0x4 DUP2 ADD DUP7 SWAP1 MSTORE PUSH1 0x24 SWAP1 REVERT JUMPDEST ADD MLOAD SWAP1 POP CODESIZE DUP1 PUSH2 0xD5A JUMP JUMPDEST DUP4 DUP9 MSTORE PUSH1 0x20 DUP9 KECCAK256 SWAP2 SWAP1 PUSH1 0x1F NOT DUP5 AND DUP10 JUMPDEST DUP2 DUP2 LT PUSH2 0x10A3 JUMPI POP SWAP3 PUSH1 0x1 SWAP3 DUP6 SWAP3 PUSH2 0xDF1 SWAP10 SWAP9 SWAP7 PUSH1 0x5 SWAP9 SWAP7 LT PUSH2 0x108A JUMPI JUMPDEST POP POP POP DUP2 SHL ADD SWAP1 SSTORE PUSH2 0xDDB JUMP JUMPDEST ADD MLOAD PUSH1 0x0 NOT PUSH1 0xF8 DUP5 PUSH1 0x3 SHL AND SHR NOT AND SWAP1 SSTORE CODESIZE DUP1 DUP1 PUSH2 0x107D JUMP JUMPDEST SWAP3 SWAP4 PUSH1 0x20 PUSH1 0x1 DUP2 SWAP3 DUP8 DUP7 ADD MLOAD DUP2 SSTORE ADD SWAP6 ADD SWAP4 ADD PUSH2 0x105F JUMP JUMPDEST PUSH4 0x4E487B71 PUSH1 0xE0 SHL DUP8 MSTORE PUSH1 0x41 PUSH1 0x4 MSTORE PUSH1 0x24 DUP8 REVERT JUMPDEST SWAP2 SWAP1 PUSH1 0x3 DUP7 ADD DUP9 MSTORE PUSH1 0x20 DUP9 KECCAK256 SWAP1 DUP9 SWAP4 JUMPDEST PUSH1 0x1F NOT DUP5 AND DUP6 LT PUSH2 0x1123 JUMPI PUSH1 0x1 SWAP5 POP DUP4 PUSH1 0x1F NOT DUP2 AND LT PUSH2 0x110A JUMPI JUMPDEST POP POP POP DUP2 SHL ADD PUSH1 0x3 DUP5 ADD SSTORE PUSH2 0xD75 JUMP JUMPDEST ADD MLOAD PUSH1 0x0 NOT PUSH1 0xF8 DUP5 PUSH1 0x3 SHL AND SHR NOT AND SWAP1 SSTORE CODESIZE DUP1 DUP1 PUSH2 0x10FA JUMP JUMPDEST DUP2 DUP2 ADD MLOAD DUP4 SSTORE PUSH1 0x20 SWAP5 DUP6 ADD SWAP5 PUSH1 0x1 SWAP1 SWAP4 ADD SWAP3 SWAP1 SWAP2 ADD SWAP1 PUSH2 0x10DF JUMP JUMPDEST POP CALLVALUE PUSH2 0x173 JUMPI DUP1 PUSH1 0x3 NOT CALLDATASIZE ADD SLT PUSH2 0x173 JUMPI PUSH1 0x40 MLOAD SWAP1 DUP1 DUP3 PUSH1 0x1 SWAP3 PUSH1 0x1 SLOAD SWAP4 PUSH2 0x1165 DUP6 PUSH2 0x1747 JUMP JUMPDEST SWAP4 DUP5 DUP5 MSTORE PUSH1 0x20 SWAP6 DUP7 PUSH1 0x1 DUP3 AND SWAP2 DUP3 PUSH1 0x0 EQ PUSH2 0x11EC JUMPI POP POP PUSH1 0x1 EQ PUSH2 0x1192 JUMPI JUMPDEST POP POP PUSH2 0x81A SWAP3 POP SUB DUP4 PUSH2 0x17EB JUMP JUMPDEST SWAP1 DUP6 SWAP3 POP PUSH1 0x1 DUP3 MSTORE PUSH32 0xB10E2D527612073B26EECDFD717E6A320CF44B4AFAC2B0732D9FCBE2B7FA0CF6 JUMPDEST DUP6 DUP4 LT PUSH2 0x11D4 JUMPI POP POP PUSH2 0x81A SWAP4 POP DUP3 ADD ADD CODESIZE DUP1 PUSH2 0x1184 JUMP JUMPDEST DUP1 SLOAD DUP4 DUP10 ADD DUP6 ADD MSTORE DUP8 SWAP5 POP DUP7 SWAP4 SWAP1 SWAP3 ADD SWAP2 DUP2 ADD PUSH2 0x11BC JUMP JUMPDEST SWAP3 POP SWAP4 POP POP PUSH2 0x81A SWAP5 SWAP2 POP PUSH1 0xFF NOT AND DUP3 DUP5 ADD MSTORE ISZERO ISZERO PUSH1 0x5 SHL DUP3 ADD ADD CODESIZE DUP1 PUSH2 0x1184 JUMP JUMPDEST POP CALLVALUE PUSH2 0x173 JUMPI DUP1 PUSH1 0x3 NOT CALLDATASIZE ADD SLT PUSH2 0x173 JUMPI PUSH1 0x6 SLOAD PUSH1 0x40 MLOAD PUSH1 0x1 PUSH1 0x1 PUSH1 0xA0 SHL SUB SWAP1 SWAP2 AND DUP2 MSTORE PUSH1 0x20 SWAP1 RETURN JUMPDEST POP CALLVALUE PUSH2 0x173 JUMPI DUP1 PUSH1 0x3 NOT CALLDATASIZE ADD SLT PUSH2 0x173 JUMPI PUSH2 0x1250 PUSH2 0x1BFE JUMP JUMPDEST PUSH1 0x6 DUP1 SLOAD PUSH1 0x1 PUSH1 0x1 PUSH1 0xA0 SHL SUB NOT DUP2 AND SWAP1 SWAP2 SSTORE DUP2 SWAP1 PUSH1 0x1 PUSH1 0x1 PUSH1 0xA0 SHL SUB AND PUSH32 0x8BE0079C531659141344CD1FD0A4F28419497F9722A3DAAFE3B4186F6B6457E0 DUP3 DUP1 LOG3 DUP1 RETURN JUMPDEST POP CALLVALUE PUSH2 0x173 JUMPI PUSH1 0x20 CALLDATASIZE PUSH1 0x3 NOT ADD SLT PUSH2 0x173 JUMPI PUSH1 0x1 PUSH1 0x1 PUSH1 0xA0 SHL SUB PUSH2 0x12B6 PUSH2 0x16A4 JUMP JUMPDEST AND DUP1 ISZERO PUSH2 0x12D3 JUMPI DUP2 PUSH1 0x40 SWAP2 PUSH1 0x20 SWAP4 MSTORE PUSH1 0x3 DUP4 MSTORE KECCAK256 SLOAD PUSH1 0x40 MLOAD SWAP1 DUP2 MSTORE RETURN JUMPDEST PUSH1 0x40 MLOAD PUSH4 0x22718AD9 PUSH1 0xE2 SHL DUP2 MSTORE PUSH1 0x4 DUP2 ADD DUP4 SWAP1 MSTORE PUSH1 0x24 SWAP1 REVERT JUMPDEST POP CALLVALUE PUSH2 0x173 JUMPI PUSH1 0x20 CALLDATASIZE PUSH1 0x3 NOT ADD SLT PUSH2 0x173 JUMPI PUSH1 0x20 PUSH2 0x130B PUSH1 0x4 CALLDATALOAD PUSH2 0x1BC3 JUMP JUMPDEST PUSH1 0x40 MLOAD PUSH1 0x1 PUSH1 0x1 PUSH1 0xA0 SHL SUB SWAP1 SWAP2 AND DUP2 MSTORE RETURN JUMPDEST POP CALLVALUE PUSH2 0x173 JUMPI PUSH1 0x20 CALLDATASIZE PUSH1 0x3 NOT ADD SLT PUSH2 0x173 JUMPI PUSH1 0x20 SWAP1 PUSH1 0xFF SWAP1 PUSH1 0x40 SWAP1 PUSH1 0x1 PUSH1 0x1 PUSH1 0xA0 SHL SUB PUSH2 0x1348 PUSH2 0x16A4 JUMP JUMPDEST AND DUP2 MSTORE PUSH1 0x9 DUP5 MSTORE KECCAK256 SLOAD AND PUSH1 0x40 MLOAD SWAP1 ISZERO ISZERO DUP2 MSTORE RETURN JUMPDEST POP CALLVALUE PUSH2 0x173 JUMPI PUSH1 0x40 CALLDATASIZE PUSH1 0x3 NOT ADD SLT PUSH2 0x173 JUMPI PUSH2 0x1376 PUSH2 0x16A4 JUMP JUMPDEST PUSH32 0x1EFF62A53441C7D0125C22F2A9A324E206B34EFA41E19469D7EFB9BB703D21A3 PUSH1 0x20 PUSH2 0x13A1 PUSH2 0x170A JUMP JUMPDEST SWAP3 PUSH2 0x13AA PUSH2 0x1BFE JUMP JUMPDEST PUSH1 0x1 PUSH1 0x1 PUSH1 0xA0 SHL SUB AND DUP1 DUP6 MSTORE PUSH1 0x9 DUP3 MSTORE PUSH1 0x40 DUP6 KECCAK256 DUP1 SLOAD PUSH1 0xFF NOT AND PUSH1 0xFF DUP7 ISZERO ISZERO AND OR SWAP1 SSTORE SWAP3 PUSH1 0x40 MLOAD SWAP1 ISZERO ISZERO DUP2 MSTORE LOG2 DUP1 RETURN JUMPDEST POP CALLVALUE PUSH2 0x173 JUMPI PUSH2 0x4B9 PUSH2 0x13EC CALLDATASIZE PUSH2 0x16D5 JUMP JUMPDEST SWAP1 PUSH1 0x40 MLOAD SWAP3 PUSH2 0x13FA DUP5 PUSH2 0x17B3 JUMP JUMPDEST DUP6 DUP5 MSTORE PUSH2 0x9BF DUP4 DUP4 DUP4 PUSH2 0x1905 JUMP JUMPDEST POP CALLVALUE PUSH2 0x173 JUMPI PUSH2 0x4B9 PUSH2 0x141A CALLDATASIZE PUSH2 0x16D5 JUMP JUMPDEST SWAP2 PUSH2 0x1905 JUMP JUMPDEST POP CALLVALUE PUSH2 0x173 JUMPI PUSH1 0x40 CALLDATASIZE PUSH1 0x3 NOT ADD SLT PUSH2 0x173 JUMPI PUSH2 0x143A PUSH2 0x16A4 JUMP JUMPDEST PUSH1 0x24 CALLDATALOAD PUSH2 0x1446 DUP2 PUSH2 0x1BC3 JUMP JUMPDEST CALLER ISZERO ISZERO DUP1 PUSH2 0x14F0 JUMPI JUMPDEST DUP1 PUSH2 0x14C5 JUMPI JUMPDEST PUSH2 0x14AD JUMPI PUSH1 0x1 PUSH1 0x1 PUSH1 0xA0 SHL SUB SWAP3 DUP4 AND SWAP3 DUP3 SWAP2 DUP5 SWAP2 AND PUSH32 0x8C5BE1E5EBEC7D5BD14F71427D1E84F3DD0314C0F7B2291E5B200AC8C7C3B925 DUP7 DUP1 LOG4 DUP3 MSTORE PUSH1 0x4 PUSH1 0x20 MSTORE PUSH1 0x40 DUP3 KECCAK256 DUP1 SLOAD PUSH1 0x1 PUSH1 0x1 PUSH1 0xA0 SHL SUB NOT AND SWAP1 SWAP2 OR SWAP1 SSTORE DUP1 RETURN JUMPDEST PUSH1 0x40 MLOAD PUSH4 0xA9FBF51F PUSH1 0xE0 SHL DUP2 MSTORE CALLER PUSH1 0x4 DUP3 ADD MSTORE PUSH1 0x24 SWAP1 REVERT JUMPDEST POP PUSH1 0x1 PUSH1 0x1 PUSH1 0xA0 SHL SUB DUP2 AND DUP5 MSTORE PUSH1 0x5 PUSH1 0x20 SWAP1 DUP2 MSTORE PUSH1 0x40 DUP1 DUP7 KECCAK256 CALLER DUP8 MSTORE SWAP1 SWAP2 MSTORE DUP5 KECCAK256 SLOAD PUSH1 0xFF AND ISZERO PUSH2 0x1455 JUMP JUMPDEST POP PUSH1 0x1 PUSH1 0x1 PUSH1 0xA0 SHL SUB DUP2 AND CALLER EQ ISZERO PUSH2 0x144F JUMP JUMPDEST POP CALLVALUE PUSH2 0x173 JUMPI PUSH1 0x20 CALLDATASIZE PUSH1 0x3 NOT ADD SLT PUSH2 0x173 JUMPI PUSH1 0x20 SWAP1 PUSH1 0x4 CALLDATALOAD PUSH2 0x1524 DUP2 PUSH2 0x1BC3 JUMP JUMPDEST POP DUP2 MSTORE PUSH1 0x4 DUP3 MSTORE PUSH1 0x40 PUSH1 0x1 DUP1 PUSH1 0xA0 SHL SUB SWAP2 KECCAK256 SLOAD AND PUSH1 0x40 MLOAD SWAP1 DUP2 MSTORE RETURN JUMPDEST POP CALLVALUE PUSH2 0x173 JUMPI DUP1 PUSH1 0x3 NOT CALLDATASIZE ADD SLT PUSH2 0x173 JUMPI PUSH1 0x40 MLOAD SWAP1 DUP1 DUP3 DUP3 SLOAD SWAP2 PUSH2 0x1563 DUP4 PUSH2 0x1747 JUMP JUMPDEST SWAP3 DUP4 DUP4 MSTORE PUSH1 0x20 SWAP5 PUSH1 0x1 SWAP2 DUP7 PUSH1 0x1 DUP3 AND SWAP2 DUP3 PUSH1 0x0 EQ PUSH2 0x11EC JUMPI POP POP PUSH1 0x1 EQ PUSH2 0x1592 JUMPI POP POP PUSH2 0x81A SWAP3 POP SUB DUP4 PUSH2 0x17EB JUMP JUMPDEST SWAP1 DUP6 SWAP3 POP DUP2 DUP1 MSTORE PUSH32 0x290DECD9548B62A8D60345A988386FC84BA6BC95484008F6362F93160EF3E563 JUMPDEST DUP6 DUP4 LT PUSH2 0x15D3 JUMPI POP POP PUSH2 0x81A SWAP4 POP DUP3 ADD ADD CODESIZE DUP1 PUSH2 0x1184 JUMP JUMPDEST DUP1 SLOAD DUP4 DUP10 ADD DUP6 ADD MSTORE DUP8 SWAP5 POP DUP7 SWAP4 SWAP1 SWAP3 ADD SWAP2 DUP2 ADD PUSH2 0x15BB JUMP JUMPDEST SWAP1 POP CALLVALUE PUSH2 0x855 JUMPI PUSH1 0x20 CALLDATASIZE PUSH1 0x3 NOT ADD SLT PUSH2 0x855 JUMPI PUSH1 0x4 CALLDATALOAD PUSH4 0xFFFFFFFF PUSH1 0xE0 SHL DUP2 AND DUP1 SWAP2 SUB PUSH2 0x1658 JUMPI PUSH1 0x20 SWAP3 POP PUSH4 0x80AC58CD PUSH1 0xE0 SHL DUP2 EQ SWAP1 DUP2 ISZERO PUSH2 0x1647 JUMPI JUMPDEST DUP2 ISZERO PUSH2 0x1636 JUMPI JUMPDEST POP ISZERO ISZERO DUP2 MSTORE RETURN JUMPDEST PUSH4 0x1FFC9A7 PUSH1 0xE0 SHL EQ SWAP1 POP CODESIZE PUSH2 0x162F JUMP JUMPDEST PUSH4 0x5B5E139F PUSH1 0xE0 SHL DUP2 EQ SWAP2 POP PUSH2 0x1628 JUMP JUMPDEST DUP3 DUP1 REVERT JUMPDEST PUSH1 0x0 JUMPDEST DUP4 DUP2 LT PUSH2 0x166F JUMPI POP POP PUSH1 0x0 SWAP2 ADD MSTORE JUMP JUMPDEST DUP2 DUP2 ADD MLOAD DUP4 DUP3 ADD MSTORE PUSH1 0x20 ADD PUSH2 0x165F JUMP JUMPDEST SWAP1 PUSH1 0x20 SWAP2 PUSH2 0x1698 DUP2 MLOAD DUP1 SWAP3 DUP2 DUP6 MSTORE DUP6 DUP1 DUP7 ADD SWAP2 ADD PUSH2 0x165C JUMP JUMPDEST PUSH1 0x1F ADD PUSH1 0x1F NOT AND ADD ADD SWAP1 JUMP JUMPDEST PUSH1 0x4 CALLDATALOAD SWAP1 PUSH1 0x1 PUSH1 0x1 PUSH1 0xA0 SHL SUB DUP3 AND DUP3 SUB PUSH2 0x16BA JUMPI JUMP JUMPDEST PUSH1 0x0 DUP1 REVERT JUMPDEST PUSH1 0x24 CALLDATALOAD SWAP1 PUSH1 0x1 PUSH1 0x1 PUSH1 0xA0 SHL SUB DUP3 AND DUP3 SUB PUSH2 0x16BA JUMPI JUMP JUMPDEST PUSH1 0x60 SWAP1 PUSH1 0x3 NOT ADD SLT PUSH2 0x16BA JUMPI PUSH1 0x1 PUSH1 0x1 PUSH1 0xA0 SHL SUB SWAP1 PUSH1 0x4 CALLDATALOAD DUP3 DUP2 AND DUP2 SUB PUSH2 0x16BA JUMPI SWAP2 PUSH1 0x24 CALLDATALOAD SWAP1 DUP2 AND DUP2 SUB PUSH2 0x16BA JUMPI SWAP1 PUSH1 0x44 CALLDATALOAD SWAP1 JUMP JUMPDEST PUSH1 0x24 CALLDATALOAD SWAP1 DUP2 ISZERO ISZERO DUP3 SUB PUSH2 0x16BA JUMPI JUMP JUMPDEST SWAP2 DUP2 PUSH1 0x1F DUP5 ADD SLT ISZERO PUSH2 0x16BA JUMPI DUP3 CALLDATALOAD SWAP2 PUSH8 0xFFFFFFFFFFFFFFFF DUP4 GT PUSH2 0x16BA JUMPI PUSH1 0x20 DUP4 DUP2 DUP7 ADD SWAP6 ADD ADD GT PUSH2 0x16BA JUMPI JUMP JUMPDEST SWAP1 PUSH1 0x1 DUP3 DUP2 SHR SWAP3 AND DUP1 ISZERO PUSH2 0x1777 JUMPI JUMPDEST PUSH1 0x20 DUP4 LT EQ PUSH2 0x1761 JUMPI JUMP JUMPDEST PUSH4 0x4E487B71 PUSH1 0xE0 SHL PUSH1 0x0 MSTORE PUSH1 0x22 PUSH1 0x4 MSTORE PUSH1 0x24 PUSH1 0x0 REVERT JUMPDEST SWAP2 PUSH1 0x7F AND SWAP2 PUSH2 0x1756 JUMP JUMPDEST PUSH1 0xC0 DUP2 ADD SWAP1 DUP2 LT PUSH8 0xFFFFFFFFFFFFFFFF DUP3 GT OR PUSH2 0x179D JUMPI PUSH1 0x40 MSTORE JUMP JUMPDEST PUSH4 0x4E487B71 PUSH1 0xE0 SHL PUSH1 0x0 MSTORE PUSH1 0x41 PUSH1 0x4 MSTORE PUSH1 0x24 PUSH1 0x0 REVERT JUMPDEST PUSH1 0x20 DUP2 ADD SWAP1 DUP2 LT PUSH8 0xFFFFFFFFFFFFFFFF DUP3 GT OR PUSH2 0x179D JUMPI PUSH1 0x40 MSTORE JUMP JUMPDEST PUSH1 0x40 DUP2 ADD SWAP1 DUP2 LT PUSH8 0xFFFFFFFFFFFFFFFF DUP3 GT OR PUSH2 0x179D JUMPI PUSH1 0x40 MSTORE JUMP JUMPDEST SWAP1 PUSH1 0x1F DUP1 NOT SWAP2 ADD AND DUP2 ADD SWAP1 DUP2 LT PUSH8 0xFFFFFFFFFFFFFFFF DUP3 GT OR PUSH2 0x179D JUMPI PUSH1 0x40 MSTORE JUMP JUMPDEST SWAP1 PUSH1 0x40 MLOAD SWAP2 DUP3 PUSH1 0x0 DUP3 SLOAD PUSH2 0x1820 DUP2 PUSH2 0x1747 JUMP JUMPDEST SWAP1 DUP2 DUP5 MSTORE PUSH1 0x20 SWAP5 PUSH1 0x1 SWAP2 PUSH1 0x1 DUP2 AND SWAP1 DUP2 PUSH1 0x0 EQ PUSH2 0x1890 JUMPI POP PUSH1 0x1 EQ PUSH2 0x1851 JUMPI JUMPDEST POP POP POP PUSH2 0x184F SWAP3 POP SUB DUP4 PUSH2 0x17EB JUMP JUMPDEST JUMP JUMPDEST PUSH1 0x0 SWAP1 DUP2 MSTORE DUP6 DUP2 KECCAK256 SWAP6 SWAP4 POP SWAP2 SWAP1 JUMPDEST DUP2 DUP4 LT PUSH2 0x1878 JUMPI POP POP PUSH2 0x184F SWAP4 POP DUP3 ADD ADD CODESIZE DUP1 DUP1 PUSH2 0x1840 JUMP JUMPDEST DUP6 SLOAD DUP9 DUP5 ADD DUP6 ADD MSTORE SWAP5 DUP6 ADD SWAP5 DUP8 SWAP5 POP SWAP2 DUP4 ADD SWAP2 PUSH2 0x185F JUMP JUMPDEST SWAP3 POP POP POP PUSH2 0x184F SWAP5 SWAP3 POP PUSH1 0xFF NOT AND DUP3 DUP5 ADD MSTORE ISZERO ISZERO PUSH1 0x5 SHL DUP3 ADD ADD CODESIZE DUP1 DUP1 PUSH2 0x1840 JUMP JUMPDEST PUSH8 0xFFFFFFFFFFFFFFFF DUP2 GT PUSH2 0x179D JUMPI PUSH1 0x1F ADD PUSH1 0x1F NOT AND PUSH1 0x20 ADD SWAP1 JUMP JUMPDEST SWAP3 SWAP2 SWAP3 PUSH2 0x18DA DUP3 PUSH2 0x18B2 JUMP JUMPDEST SWAP2 PUSH2 0x18E8 PUSH1 0x40 MLOAD SWAP4 DUP5 PUSH2 0x17EB JUMP JUMPDEST DUP3 SWAP5 DUP2 DUP5 MSTORE DUP2 DUP4 ADD GT PUSH2 0x16BA JUMPI DUP3 DUP2 PUSH1 0x20 SWAP4 DUP5 PUSH1 0x0 SWAP7 ADD CALLDATACOPY ADD ADD MSTORE JUMP JUMPDEST PUSH1 0x1 PUSH1 0x1 PUSH1 0xA0 SHL SUB SWAP2 DUP3 AND SWAP3 SWAP1 SWAP2 DUP4 ISZERO PUSH2 0x1A8B JUMPI PUSH1 0x0 SWAP3 DUP3 DUP5 MSTORE DUP3 PUSH1 0x20 SWAP6 PUSH1 0x2 DUP8 MSTORE PUSH1 0x40 SWAP7 DUP5 DUP9 DUP9 KECCAK256 SLOAD AND SWAP7 DUP8 SWAP2 CALLER ISZERO ISZERO DUP1 PUSH2 0x19F5 JUMPI JUMPDEST POP SWAP1 PUSH1 0x2 PUSH32 0xDDF252AD1BE2C89B69C2B068FC378DAA952BA7F163C4A11628F55A4DF523B3EF SWAP3 DUP5 PUSH2 0x19C2 JUMPI JUMPDEST DUP6 DUP4 MSTORE PUSH1 0x3 DUP2 MSTORE DUP12 DUP4 KECCAK256 DUP1 SLOAD PUSH1 0x1 ADD SWAP1 SSTORE DUP7 DUP4 MSTORE MSTORE DUP10 DUP2 KECCAK256 DUP1 SLOAD PUSH1 0x1 PUSH1 0x1 PUSH1 0xA0 SHL SUB NOT AND DUP6 OR SWAP1 SSTORE DUP1 LOG4 AND SWAP3 DUP4 DUP4 SUB PUSH2 0x19A1 JUMPI POP POP POP POP JUMP JUMPDEST PUSH1 0x64 SWAP5 POP MLOAD SWAP3 PUSH4 0x64283D7B PUSH1 0xE0 SHL DUP5 MSTORE PUSH1 0x4 DUP5 ADD MSTORE PUSH1 0x24 DUP4 ADD MSTORE PUSH1 0x44 DUP3 ADD MSTORE REVERT JUMPDEST PUSH1 0x0 DUP8 DUP2 MSTORE PUSH1 0x4 PUSH1 0x20 MSTORE PUSH1 0x40 SWAP1 KECCAK256 DUP1 SLOAD PUSH1 0x1 PUSH1 0x1 PUSH1 0xA0 SHL SUB NOT AND SWAP1 SSTORE DUP5 DUP4 MSTORE PUSH1 0x3 DUP2 MSTORE DUP12 DUP4 KECCAK256 DUP1 SLOAD PUSH1 0x0 NOT ADD SWAP1 SSTORE PUSH2 0x1968 JUMP JUMPDEST SWAP2 SWAP4 SWAP5 POP SWAP2 POP DUP1 PUSH2 0x1A4A JUMPI JUMPDEST ISZERO PUSH2 0x1A11 JUMPI DUP6 SWAP3 SWAP2 DUP8 SWAP2 CODESIZE PUSH2 0x193C JUMP JUMPDEST DUP8 DUP7 DUP9 PUSH2 0x1A2E JUMPI PUSH1 0x24 SWAP2 MLOAD SWAP1 PUSH4 0x7E273289 PUSH1 0xE0 SHL DUP3 MSTORE PUSH1 0x4 DUP3 ADD MSTORE REVERT JUMPDEST PUSH1 0x44 SWAP2 MLOAD SWAP1 PUSH4 0x177E802F PUSH1 0xE0 SHL DUP3 MSTORE CALLER PUSH1 0x4 DUP4 ADD MSTORE PUSH1 0x24 DUP3 ADD MSTORE REVERT JUMPDEST POP CALLER DUP8 EQ DUP1 ISZERO PUSH2 0x1A6F JUMPI JUMPDEST DUP1 PUSH2 0x1A01 JUMPI POP DUP6 DUP3 MSTORE PUSH1 0x4 DUP2 MSTORE CALLER DUP6 DUP10 DUP5 KECCAK256 SLOAD AND EQ PUSH2 0x1A01 JUMP JUMPDEST POP DUP7 DUP3 MSTORE PUSH1 0x5 DUP2 MSTORE DUP8 DUP3 KECCAK256 CALLER DUP4 MSTORE DUP2 MSTORE PUSH1 0xFF DUP9 DUP4 KECCAK256 SLOAD AND PUSH2 0x1A55 JUMP JUMPDEST PUSH1 0x40 MLOAD PUSH4 0x32505749 PUSH1 0xE1 SHL DUP2 MSTORE PUSH1 0x0 PUSH1 0x4 DUP3 ADD MSTORE PUSH1 0x24 SWAP1 REVERT JUMPDEST PUSH1 0x0 NOT DUP2 EQ PUSH2 0x1AB3 JUMPI PUSH1 0x1 ADD SWAP1 JUMP JUMPDEST PUSH4 0x4E487B71 PUSH1 0xE0 SHL PUSH1 0x0 MSTORE PUSH1 0x11 PUSH1 0x4 MSTORE PUSH1 0x24 PUSH1 0x0 REVERT JUMPDEST SWAP1 PUSH1 0x1F DUP2 GT PUSH2 0x1AD7 JUMPI POP POP POP JUMP JUMPDEST PUSH1 0x0 SWAP2 PUSH1 0x0 MSTORE PUSH1 0x20 PUSH1 0x0 KECCAK256 SWAP1 PUSH1 0x20 PUSH1 0x1F DUP6 ADD PUSH1 0x5 SHR DUP4 ADD SWAP5 LT PUSH2 0x1B15 JUMPI JUMPDEST PUSH1 0x1F ADD PUSH1 0x5 SHR ADD SWAP2 JUMPDEST DUP3 DUP2 LT PUSH2 0x1B0A JUMPI POP POP POP JUMP JUMPDEST DUP2 DUP2 SSTORE PUSH1 0x1 ADD PUSH2 0x1AFE JUMP JUMPDEST SWAP1 SWAP3 POP DUP3 SWAP1 PUSH2 0x1AF5 JUMP JUMPDEST ISZERO PUSH2 0x1B26 JUMPI JUMP JUMPDEST PUSH1 0x40 MLOAD PUSH3 0x461BCD PUSH1 0xE5 SHL DUP2 MSTORE PUSH1 0x20 PUSH1 0x4 DUP3 ADD MSTORE PUSH1 0x23 PUSH1 0x24 DUP3 ADD MSTORE PUSH32 0x53656E74696E656C494E46543A2063616C6C6572206E6F7420617574686F7269 PUSH1 0x44 DUP3 ADD MSTORE PUSH3 0x1E9959 PUSH1 0xEA SHL PUSH1 0x64 DUP3 ADD MSTORE PUSH1 0x84 SWAP1 REVERT JUMPDEST ISZERO PUSH2 0x1B7E JUMPI JUMP JUMPDEST PUSH1 0x40 MLOAD PUSH3 0x461BCD PUSH1 0xE5 SHL DUP2 MSTORE PUSH1 0x20 PUSH1 0x4 DUP3 ADD MSTORE PUSH1 0x1F PUSH1 0x24 DUP3 ADD MSTORE PUSH32 0x53656E74696E656C494E46543A206E6F6E6578697374656E7420746F6B656E00 PUSH1 0x44 DUP3 ADD MSTORE PUSH1 0x64 SWAP1 REVERT JUMPDEST PUSH1 0x0 DUP2 DUP2 MSTORE PUSH1 0x2 PUSH1 0x20 MSTORE PUSH1 0x40 SWAP1 KECCAK256 SLOAD PUSH1 0x1 PUSH1 0x1 PUSH1 0xA0 SHL SUB AND SWAP1 DUP2 ISZERO PUSH2 0x1BE6 JUMPI POP SWAP1 JUMP JUMPDEST PUSH1 0x24 SWAP1 PUSH1 0x40 MLOAD SWAP1 PUSH4 0x7E273289 PUSH1 0xE0 SHL DUP3 MSTORE PUSH1 0x4 DUP3 ADD MSTORE REVERT JUMPDEST PUSH1 0x6 SLOAD PUSH1 0x1 PUSH1 0x1 PUSH1 0xA0 SHL SUB AND CALLER SUB PUSH2 0x1C12 JUMPI JUMP JUMPDEST PUSH1 0x40 MLOAD PUSH4 0x118CDAA7 PUSH1 0xE0 SHL DUP2 MSTORE CALLER PUSH1 0x4 DUP3 ADD MSTORE PUSH1 0x24 SWAP1 REVERT JUMPDEST DUP2 EXTCODESIZE PUSH2 0x1C37 JUMPI JUMPDEST POP POP POP POP JUMP JUMPDEST PUSH1 0x40 MLOAD PUSH4 0xA85BD01 PUSH1 0xE1 SHL DUP1 DUP3 MSTORE CALLER PUSH1 0x4 DUP4 ADD MSTORE PUSH1 0x1 PUSH1 0x1 PUSH1 0xA0 SHL SUB SWAP3 DUP4 AND PUSH1 0x24 DUP4 ADD MSTORE PUSH1 0x44 DUP3 ADD SWAP5 SWAP1 SWAP5 MSTORE PUSH1 0x80 PUSH1 0x64 DUP3 ADD MSTORE PUSH1 0x20 SWAP6 SWAP3 SWAP1 SWAP2 AND SWAP4 SWAP1 SWAP3 SWAP1 DUP4 SWAP1 PUSH2 0x1C85 SWAP1 PUSH1 0x84 DUP4 ADD SWAP1 PUSH2 0x167F JUMP JUMPDEST SUB SWAP3 DUP6 DUP2 PUSH1 0x0 SWAP6 DUP2 DUP8 DUP10 GAS CALL DUP5 SWAP2 DUP2 PUSH2 0x1D2E JUMPI JUMPDEST POP PUSH2 0x1CF9 JUMPI POP POP POP RETURNDATASIZE PUSH1 0x0 EQ PUSH2 0x1CF1 JUMPI RETURNDATASIZE PUSH2 0x1CB3 DUP2 PUSH2 0x18B2 JUMP JUMPDEST SWAP1 PUSH2 0x1CC1 PUSH1 0x40 MLOAD SWAP3 DUP4 PUSH2 0x17EB JUMP JUMPDEST DUP2 MSTORE DUP1 SWAP2 DUP5 RETURNDATASIZE SWAP3 ADD RETURNDATACOPY JUMPDEST DUP1 MLOAD SWAP3 DUP4 PUSH2 0x1CEC JUMPI PUSH1 0x40 MLOAD PUSH4 0x32505749 PUSH1 0xE1 SHL DUP2 MSTORE PUSH1 0x4 DUP2 ADD DUP5 SWAP1 MSTORE PUSH1 0x24 SWAP1 REVERT JUMPDEST ADD SWAP1 POP REVERT JUMPDEST POP PUSH1 0x60 PUSH2 0x1CCB JUMP JUMPDEST SWAP2 SWAP5 POP SWAP2 POP PUSH4 0xFFFFFFFF PUSH1 0xE0 SHL AND SUB PUSH2 0x1D16 JUMPI POP CODESIZE DUP1 DUP1 DUP1 PUSH2 0x1C31 JUMP JUMPDEST PUSH1 0x24 SWAP1 PUSH1 0x40 MLOAD SWAP1 PUSH4 0x32505749 PUSH1 0xE1 SHL DUP3 MSTORE PUSH1 0x4 DUP3 ADD MSTORE REVERT JUMPDEST SWAP1 SWAP2 POP DUP7 DUP2 DUP2 RETURNDATASIZE DUP4 GT PUSH2 0x1D67 JUMPI JUMPDEST PUSH2 0x1D46 DUP2 DUP4 PUSH2 0x17EB JUMP JUMPDEST DUP2 ADD SUB SLT PUSH2 0x9C4 JUMPI MLOAD PUSH1 0x1 PUSH1 0x1 PUSH1 0xE0 SHL SUB NOT DUP2 AND DUP2 SUB PUSH2 0x9C4 JUMPI SWAP1 CODESIZE PUSH2 0x1C99 JUMP JUMPDEST POP RETURNDATASIZE PUSH2 0x1D3C JUMP JUMPDEST DUP1 ISZERO PUSH2 0x1E2B JUMPI PUSH1 0x0 DUP2 DUP1 JUMPDEST PUSH2 0x1E17 JUMPI POP PUSH2 0x1D87 DUP2 PUSH2 0x18B2 JUMP JUMPDEST SWAP1 PUSH2 0x1D95 PUSH1 0x40 MLOAD SWAP3 DUP4 PUSH2 0x17EB JUMP JUMPDEST DUP1 DUP3 MSTORE PUSH1 0x1F NOT PUSH2 0x1DA4 DUP3 PUSH2 0x18B2 JUMP JUMPDEST ADD CALLDATASIZE PUSH1 0x20 DUP5 ADD CALLDATACOPY JUMPDEST DUP1 SWAP3 DUP1 ISZERO PUSH2 0x1E10 JUMPI PUSH1 0x0 NOT DUP3 ADD SWAP2 DUP3 GT PUSH2 0x1AB3 JUMPI DUP2 SWAP4 PUSH1 0xA SWAP3 PUSH1 0x30 SWAP1 DUP5 DUP5 MOD DUP3 ADD DUP1 SWAP3 GT PUSH2 0x1AB3 JUMPI DUP6 MLOAD GT ISZERO PUSH2 0x1DFA JUMPI PUSH1 0xF8 SHL PUSH1 0x1 PUSH1 0x1 PUSH1 0xF8 SHL SUB NOT AND PUSH1 0x0 BYTE SWAP1 DUP5 ADD PUSH1 0x1F ADD MSTORE8 DIV SWAP2 PUSH2 0x1DAC JUMP JUMPDEST PUSH4 0x4E487B71 PUSH1 0xE0 SHL PUSH1 0x0 MSTORE PUSH1 0x32 PUSH1 0x4 MSTORE PUSH1 0x24 PUSH1 0x0 REVERT JUMPDEST POP POP SWAP1 POP SWAP1 JUMP JUMPDEST SWAP1 PUSH2 0x1E23 PUSH1 0xA SWAP2 PUSH2 0x1AA4 JUMP JUMPDEST SWAP2 DIV DUP1 PUSH2 0x1D79 JUMP JUMPDEST POP PUSH1 0x40 MLOAD PUSH2 0x1E38 DUP2 PUSH2 0x17CF JUMP JUMPDEST PUSH1 0x1 DUP2 MSTORE PUSH1 0x3 PUSH1 0xFC SHL PUSH1 0x20 DUP3 ADD MSTORE SWAP1 JUMP INVALID LOG2 PUSH5 0x6970667358 0x22 SLT KECCAK256 MSIZE 0xD1 CALLCODE SWAP13 0x2A 0xE CALLER SMOD PUSH7 0xD9CFDF2B942C6C MUL MSTORE POP EQ 0x2C DUP9 DUP12 DUP3 0xC8 0xCF JUMPI MSTORE 0xB0 PUSH18 0x5D1964736F6C634300081800330000000000 "},"methodIdentifiers":{"agentData(uint256)":"9a92db91","approve(address,uint256)":"095ea7b3","authorizedCallers(address)":"536fff6c","balanceOf(address)":"70a08231","getApproved(uint256)":"081812fc","getExperienceCycles(uint256)":"f7dc68c6","getFullMetadata(uint256)":"bbed8ed3","getStoragePointer(uint256)":"a5b7b6d6","incrementExperience(uint256)":"b393970a","isApprovedForAll(address,address)":"e985e9c5","mint(address,string,string)":"99071190","name()":"06fdde03","owner()":"8da5cb5b","ownerOf(uint256)":"6352211e","renounceOwnership()":"715018a6","safeTransferFrom(address,address,uint256)":"42842e0e","safeTransferFrom(address,address,uint256,bytes)":"b88d4fde","setActive(uint256,bool)":"e60a955d","setApprovalForAll(address,bool)":"a22cb465","setAuthorizedCaller(address,bool)":"454bbd29","supportsInterface(bytes4)":"01ffc9a7","symbol()":"95d89b41","tokenURI(uint256)":"c87b56dd","totalMinted()":"a2309ff8","transferFrom(address,address,uint256)":"23b872dd","transferOwnership(address)":"f2fde38b","updateIntelligence(uint256,string)":"f4bea7e9"}}}}}