{"contracts/PositionRegistry.sol":{"PositionRegistry":{"abi":[{"inputs":[],"stateMutability":"nonpayable","type":"constructor"},{"inputs":[{"internalType":"address","name":"owner","type":"address"}],"name":"OwnableInvalidOwner","type":"error"},{"inputs":[{"internalType":"address","name":"account","type":"address"}],"name":"OwnableUnauthorizedAccount","type":"error"},{"anonymous":false,"inputs":[{"indexed":true,"internalType":"address","name":"previousOwner","type":"address"},{"indexed":true,"internalType":"address","name":"newOwner","type":"address"}],"name":"OwnershipTransferred","type":"event"},{"anonymous":false,"inputs":[{"indexed":true,"internalType":"address","name":"user","type":"address"},{"indexed":true,"internalType":"bytes32","name":"positionId","type":"bytes32"},{"indexed":false,"internalType":"string","name":"protocol","type":"string"}],"name":"PositionRegistered","type":"event"},{"anonymous":false,"inputs":[{"indexed":true,"internalType":"address","name":"user","type":"address"},{"indexed":true,"internalType":"bytes32","name":"positionId","type":"bytes32"}],"name":"PositionRemoved","type":"event"},{"anonymous":false,"inputs":[{"indexed":true,"internalType":"address","name":"user","type":"address"},{"indexed":true,"internalType":"bytes32","name":"positionId","type":"bytes32"}],"name":"PositionUpdated","type":"event"},{"inputs":[{"internalType":"address","name":"user","type":"address"}],"name":"getActivePositions","outputs":[{"components":[{"internalType":"bytes32","name":"id","type":"bytes32"},{"internalType":"address","name":"positionAddress","type":"address"},{"internalType":"enum PositionRegistry.Protocol","name":"protocol","type":"uint8"},{"internalType":"uint256","name":"healthThreshold","type":"uint256"},{"internalType":"int24","name":"tickLower","type":"int24"},{"internalType":"int24","name":"tickUpper","type":"int24"},{"internalType":"bool","name":"active","type":"bool"},{"internalType":"uint256","name":"registeredAt","type":"uint256"}],"internalType":"struct PositionRegistry.Position[]","name":"","type":"tuple[]"}],"stateMutability":"view","type":"function"},{"inputs":[{"internalType":"address","name":"user","type":"address"}],"name":"getUserPositionIds","outputs":[{"internalType":"bytes32[]","name":"","type":"bytes32[]"}],"stateMutability":"view","type":"function"},{"inputs":[{"internalType":"address","name":"user","type":"address"}],"name":"getUserPositions","outputs":[{"components":[{"internalType":"bytes32","name":"id","type":"bytes32"},{"internalType":"address","name":"positionAddress","type":"address"},{"internalType":"enum PositionRegistry.Protocol","name":"protocol","type":"uint8"},{"internalType":"uint256","name":"healthThreshold","type":"uint256"},{"internalType":"int24","name":"tickLower","type":"int24"},{"internalType":"int24","name":"tickUpper","type":"int24"},{"internalType":"bool","name":"active","type":"bool"},{"internalType":"uint256","name":"registeredAt","type":"uint256"}],"internalType":"struct PositionRegistry.Position[]","name":"","type":"tuple[]"}],"stateMutability":"view","type":"function"},{"inputs":[{"internalType":"bytes32","name":"positionId","type":"bytes32"}],"name":"isPositionActive","outputs":[{"internalType":"bool","name":"","type":"bool"}],"stateMutability":"view","type":"function"},{"inputs":[],"name":"owner","outputs":[{"internalType":"address","name":"","type":"address"}],"stateMutability":"view","type":"function"},{"inputs":[{"internalType":"bytes32","name":"","type":"bytes32"}],"name":"positionOwner","outputs":[{"internalType":"address","name":"","type":"address"}],"stateMutability":"view","type":"function"},{"inputs":[{"internalType":"bytes32","name":"","type":"bytes32"}],"name":"positions","outputs":[{"internalType":"bytes32","name":"id","type":"bytes32"},{"internalType":"address","name":"positionAddress","type":"address"},{"internalType":"enum PositionRegistry.Protocol","name":"protocol","type":"uint8"},{"internalType":"uint256","name":"healthThreshold","type":"uint256"},{"internalType":"int24","name":"tickLower","type":"int24"},{"internalType":"int24","name":"tickUpper","type":"int24"},{"internalType":"bool","name":"active","type":"bool"},{"internalType":"uint256","name":"registeredAt","type":"uint256"}],"stateMutability":"view","type":"function"},{"inputs":[{"internalType":"address","name":"positionAddress","type":"address"},{"internalType":"enum PositionRegistry.Protocol","name":"protocol","type":"uint8"},{"internalType":"uint256","name":"healthThreshold","type":"uint256"}],"name":"registerLendingPosition","outputs":[{"internalType":"bytes32","name":"positionId","type":"bytes32"}],"stateMutability":"nonpayable","type":"function"},{"inputs":[{"internalType":"address","name":"poolAddress","type":"address"},{"internalType":"int24","name":"tickLower","type":"int24"},{"internalType":"int24","name":"tickUpper","type":"int24"}],"name":"registerUniswapPosition","outputs":[{"internalType":"bytes32","name":"positionId","type":"bytes32"}],"stateMutability":"nonpayable","type":"function"},{"inputs":[{"internalType":"bytes32","name":"positionId","type":"bytes32"}],"name":"removePosition","outputs":[],"stateMutability":"nonpayable","type":"function"},{"inputs":[],"name":"renounceOwnership","outputs":[],"stateMutability":"nonpayable","type":"function"},{"inputs":[{"internalType":"address","name":"newOwner","type":"address"}],"name":"transferOwnership","outputs":[],"stateMutability":"nonpayable","type":"function"},{"inputs":[{"internalType":"bytes32","name":"positionId","type":"bytes32"},{"internalType":"uint256","name":"newThreshold","type":"uint256"}],"name":"updateHealthThreshold","outputs":[],"stateMutability":"nonpayable","type":"function"}],"evm":{"bytecode":{"linkReferences":{},"object":"6080806040523461007a5733156100645760008054336001600160a01b03198216811783556040519290916001600160a01b0316907f8be0079c531659141344cd1fd0a4f28419497f9722a3daafe3b4186f6b6457e09080a361113090816100808239f35b631e4fbdf760e01b815260006004820152602490fd5b600080fdfe6080604081815260048036101561001557600080fd5b600092833560e01c9081632a6bc2dd14610ae35750806339afeb071461087c578063403286641461084a5780634c89b68d146107d5578063514ea4bf1461074b578063715018a6146106f15780638da5cb5b146106c9578063b4e9e65c14610548578063c6afc02f14610294578063d5e4836414610217578063eddf75701461016d578063ee733bb71461013b5763f2fde38b146100b257600080fd5b34610137576020366003190112610137576100cb610bc7565b906100d4611026565b6001600160a01b0391821692831561012157505082546001600160a01b0319811683178455167f8be0079c531659141344cd1fd0a4f28419497f9722a3daafe3b4186f6b6457e08380a380f35b51631e4fbdf760e01b8152908101849052602490fd5b8280fd5b50346101375760203660031901126101375760038260209460ff933581526002865220015460301c1690519015158152f35b5050346102135760208060031936011261013757916001600160a01b03610192610bc7565b1681526001906001845282812093835190818187549182815201908197855282852090855b81811061020057505050826101cd910383610d17565b8451948186019282875251809352850195925b8281106101ed5785870386f35b83518752958101959281019284016101e0565b82548452928401929187019187016101b7565b5080fd5b50346101375781600319360112610137573590600260243591838552600360205261024e60018060a01b0382872054163314610f57565b610261670de0b6b3a76400008411610fc8565b8385528160205284200155337fdcece99c98a2fed81cfddc996b90db0d85b830964871b96324e306f648f32e858380a380f35b509034610137576060366003190112610137576102af610bc7565b926024358381101561021357604435938115801561053e575b156104ea576102e0670de0b6b3a76400008611610fc8565b6001600160a01b03868116919084906102fa841515610e85565b865197602099898b809b01916001600160601b031990813360601b1684528960f81b603484015260601b1660358201526029815261033781610cfb565b51902098899182855260028252610353868b8720015415610ed1565b89519661035f88610cac565b8388528288019081528a88016103758a82610e05565b606089019283526080890195878752600260a08b019589875260c08c01976001895260e08d019a428c5252528c8c2099518a5560018a0192511682549151898110156104d75760ff60a01b60a09190911b166001600160a81b0319929092161717905551600287015591516003860180549351925166ff00000000000090151560301b1660189390931b65ffffff0000001662ffffff90921666ffffffffffffff19909416939093171717905586949361046593909290915191015583835260038752848320336001600160601b0360a01b8254161790553383526001875261046084868520610f29565b611052565b90835190868252825192838884015287825b8581106104c157505050907f85ff1709d3ce7088349a11565101e99612f99a26406f347377d165987338c4f79185848301015284813394601f80199101168101030190a351908152f35b8083018201518186018901528896508101610477565b634e487b7160e01b8d5260218a5260248dfd5b608490602085519162461bcd60e51b8352820152602860248201527f506f736974696f6e52656769737472793a206e6f742061206c656e64696e67206044820152671c1c9bdd1bd8dbdb60c21b6064820152fd5b50600182146102c8565b8284346106c65760209182600319360112610213576001600160a01b0361056d610bc7565b16825260018381809552828420908351808383829554938481520190885283882092885b87868383106106b157505050506105aa92500383610d17565b8480845b610662575b506105c091929350610d51565b9380918682905b6105dd575b8551806105d98982610c05565b0390f35b845181101561065d579087826105f7879695948398610ddb565b518452600280845260ff60038a8720015460301c1661061d575b500190919293946105c7565b6106278288610ddb565b51855283526106568885209561064561063f82610fa3565b97610e11565b61064f828d610ddb565b528a610ddb565b508a610611565b6105cc565b849084518110156106ab576106778186610ddb565b5188526002845260ff6003888a20015460301c16610698575b8101906105ae565b916106a38291610fa3565b929050610690565b506105b3565b86548552958101958895509093019201610591565b80fd5b505034610213578160031936011261021357905490516001600160a01b039091168152602090f35b83346106c657806003193601126106c65761070a611026565b80546001600160a01b03198116825581906001600160a01b03167f8be0079c531659141344cd1fd0a4f28419497f9722a3daafe3b4186f6b6457e08280a380f35b5090346101375760203660031901126101375760ff8161010094843581526002602052208054936107a9600183015484600285015493600386015495015496805198895260018060a01b03831660208a015288019160a01c16610be2565b60608501528060020b60808501528060181c60020b60a085015260301c16151560c083015260e0820152f35b50346101375760203660031901126101375760039035918284528160205261080960018060a01b0382862054163314610f57565b8284526002602052832001805466ff00000000000019169055337f8a31f4aac841280634eac5b9725556df4565e05a17a6d9b06c0a2db9b98d22b48380a380f35b50346101375760203660031901126101375735825260036020908152918190205490516001600160a01b039091168152f35b50903461013757606036600319011261013757610897610bc7565b926024359260029084820b809503610137576044359485830b809603610adf576001600160a01b03878116966108ce881515610e85565b80831215610a90579085929187519560209a878c809901916001600160601b031990813360601b168452600160f91b603484015260601b1660358201526029815261091881610cfb565b519020809a818752828952610932888c8920015415610ed1565b8a5198899561094087610cac565b838752818701928352848d88019281845260608901958b875260808a019a8b5260a08a0198895260e060c08b019a60018c52019b428d5252528c8c209a518b5560018b01925116825491518a811015610a7d5760ff60a01b60a09190911b166001600160a81b03199290921617179055519087015591516003860180549351925166ff00000000000090151560301b1660189390931b65ffffff0000001662ffffff90921666ffffffffffffff199094169390931717179055610a33938693869391929091905191015582815260038752818120336001600160601b0360a01b8254161790553381526001875220610f29565b818151848152600a8582015269554e49535741505f563360b01b838201527f85ff1709d3ce7088349a11565101e99612f99a26406f347377d165987338c4f760603392a351908152f35b634e487b7160e01b8d5260218b5260248dfd5b865162461bcd60e51b81526020818601526024808201527f506f736974696f6e52656769737472793a20696e76616c6964207469636b2072604482015263616e676560e01b6064820152608490fd5b8380fd5b8490843461013757602080600319360112610adf576001600160a01b03610b08610bc7565b16845260019360018252828120918486845480835283830195855283852090855b818110610bb15750505050610b419192930385610d17565b610b4b8451610d51565b9382865b610b61575b8451806105d98882610c05565b8151811015610bac57908682610b7a8296959484610ddb565b51855260028452610b8c878620610e11565b610b96828a610ddb565b52610ba18189610ddb565b500190919293610b4f565b610b54565b8254885296850196899450918301918301610b29565b600435906001600160a01b0382168203610bdd57565b600080fd5b906004821015610bef5752565b634e487b7160e01b600052602160045260246000fd5b60208082019080835283518092528060408094019401926000905b838210610c2f57505050505090565b909192939483610100600192885180518252848060a01b03848201511684830152610c608682015187840190610be2565b6060808201519083015260808082015190600291820b9084015260a09081830151900b9083015260c08082015115159083015260e0809101519082015201960192019093929193610c20565b610100810190811067ffffffffffffffff821117610cc957604052565b634e487b7160e01b600052604160045260246000fd5b6040810190811067ffffffffffffffff821117610cc957604052565b6060810190811067ffffffffffffffff821117610cc957604052565b90601f8019910116810190811067ffffffffffffffff821117610cc957604052565b67ffffffffffffffff8111610cc95760051b60200190565b90610d5b82610d39565b604090610d6b6040519182610d17565b8381528093610d7c601f1991610d39565b019160005b838110610d8e5750505050565b6020908251610d9c81610cac565b60008152826000818301526000858301526000606083015260006080830152600060a0830152600060c0830152600060e0830152828601015201610d81565b8051821015610def5760209160051b010190565b634e487b7160e01b600052603260045260246000fd5b6004821015610bef5752565b90604051610e1e81610cac565b60e06004829480548452610e4d60ff600183015460018060a01b038116602088015260a01c1660408601610e05565b6002810154606085015260ff60038201548060020b60808701528060181c60020b60a087015260301c16151560c08501520154910152565b15610e8c57565b60405162461bcd60e51b815260206004820152601e60248201527f506f736974696f6e52656769737472793a207a65726f206164647265737300006044820152606490fd5b15610ed857565b60405162461bcd60e51b8152602060048201526024808201527f506f736974696f6e52656769737472793a20616c726561647920726567697374604482015263195c995960e21b6064820152608490fd5b80549068010000000000000000821015610cc95760018201808255821015610def5760005260206000200155565b15610f5e57565b60405162461bcd60e51b815260206004820152601b60248201527f506f736974696f6e52656769737472793a206e6f74206f776e657200000000006044820152606490fd5b6000198114610fb25760010190565b634e487b7160e01b600052601160045260246000fd5b15610fcf57565b60405162461bcd60e51b815260206004820152602960248201527f506f736974696f6e52656769737472793a207468726573686f6c64206d7573746044820152680206265203e20312e360bc1b6064820152608490fd5b6000546001600160a01b0316330361103a57565b60405163118cdaa760e01b8152336004820152602490fd5b6004811015610bef5780156110d857600181146110b7576002146110915760405161107c81610cdf565b600581526427aa2422a960d91b602082015290565b60405161109d81610cdf565b600a815269554e49535741505f563360b01b602082015290565b506040516110c481610cdf565b60048152634141564560e01b602082015290565b506040516110e581610cdf565b6005815264535041524b60d81b60208201529056fea264697066735822122078fd69abb52656e67d0b463726c0a69d832d6532981a6a9a3355093e04e0f0ed64736f6c63430008180033","opcodes":"PUSH1 0x80 DUP1 PUSH1 0x40 MSTORE CALLVALUE PUSH2 0x7A JUMPI CALLER ISZERO PUSH2 0x64 JUMPI PUSH1 0x0 DUP1 SLOAD CALLER PUSH1 0x1 PUSH1 0x1 PUSH1 0xA0 SHL SUB NOT DUP3 AND DUP2 OR DUP4 SSTORE PUSH1 0x40 MLOAD SWAP3 SWAP1 SWAP2 PUSH1 0x1 PUSH1 0x1 PUSH1 0xA0 SHL SUB AND SWAP1 PUSH32 0x8BE0079C531659141344CD1FD0A4F28419497F9722A3DAAFE3B4186F6B6457E0 SWAP1 DUP1 LOG3 PUSH2 0x1130 SWAP1 DUP2 PUSH2 0x80 DUP3 CODECOPY RETURN JUMPDEST PUSH4 0x1E4FBDF7 PUSH1 0xE0 SHL DUP2 MSTORE PUSH1 0x0 PUSH1 0x4 DUP3 ADD MSTORE PUSH1 0x24 SWAP1 REVERT JUMPDEST PUSH1 0x0 DUP1 REVERT INVALID PUSH1 0x80 PUSH1 0x40 DUP2 DUP2 MSTORE PUSH1 0x4 DUP1 CALLDATASIZE LT ISZERO PUSH2 0x15 JUMPI PUSH1 0x0 DUP1 REVERT JUMPDEST PUSH1 0x0 SWAP3 DUP4 CALLDATALOAD PUSH1 0xE0 SHR SWAP1 DUP2 PUSH4 0x2A6BC2DD EQ PUSH2 0xAE3 JUMPI POP DUP1 PUSH4 0x39AFEB07 EQ PUSH2 0x87C JUMPI DUP1 PUSH4 0x40328664 EQ PUSH2 0x84A JUMPI DUP1 PUSH4 0x4C89B68D EQ PUSH2 0x7D5 JUMPI DUP1 PUSH4 0x514EA4BF EQ PUSH2 0x74B JUMPI DUP1 PUSH4 0x715018A6 EQ PUSH2 0x6F1 JUMPI DUP1 PUSH4 0x8DA5CB5B EQ PUSH2 0x6C9 JUMPI DUP1 PUSH4 0xB4E9E65C EQ PUSH2 0x548 JUMPI DUP1 PUSH4 0xC6AFC02F EQ PUSH2 0x294 JUMPI DUP1 PUSH4 0xD5E48364 EQ PUSH2 0x217 JUMPI DUP1 PUSH4 0xEDDF7570 EQ PUSH2 0x16D JUMPI DUP1 PUSH4 0xEE733BB7 EQ PUSH2 0x13B JUMPI PUSH4 0xF2FDE38B EQ PUSH2 0xB2 JUMPI PUSH1 0x0 DUP1 REVERT JUMPDEST CALLVALUE PUSH2 0x137 JUMPI PUSH1 0x20 CALLDATASIZE PUSH1 0x3 NOT ADD SLT PUSH2 0x137 JUMPI PUSH2 0xCB PUSH2 0xBC7 JUMP JUMPDEST SWAP1 PUSH2 0xD4 PUSH2 0x1026 JUMP JUMPDEST PUSH1 0x1 PUSH1 0x1 PUSH1 0xA0 SHL SUB SWAP2 DUP3 AND SWAP3 DUP4 ISZERO PUSH2 0x121 JUMPI POP POP DUP3 SLOAD PUSH1 0x1 PUSH1 0x1 PUSH1 0xA0 SHL SUB NOT DUP2 AND DUP4 OR DUP5 SSTORE AND PUSH32 0x8BE0079C531659141344CD1FD0A4F28419497F9722A3DAAFE3B4186F6B6457E0 DUP4 DUP1 LOG3 DUP1 RETURN JUMPDEST MLOAD PUSH4 0x1E4FBDF7 PUSH1 0xE0 SHL DUP2 MSTORE SWAP1 DUP2 ADD DUP5 SWAP1 MSTORE PUSH1 0x24 SWAP1 REVERT JUMPDEST DUP3 DUP1 REVERT JUMPDEST POP CALLVALUE PUSH2 0x137 JUMPI PUSH1 0x20 CALLDATASIZE PUSH1 0x3 NOT ADD SLT PUSH2 0x137 JUMPI PUSH1 0x3 DUP3 PUSH1 0x20 SWAP5 PUSH1 0xFF SWAP4 CALLDATALOAD DUP2 MSTORE PUSH1 0x2 DUP7 MSTORE KECCAK256 ADD SLOAD PUSH1 0x30 SHR AND SWAP1 MLOAD SWAP1 ISZERO ISZERO DUP2 MSTORE RETURN JUMPDEST POP POP CALLVALUE PUSH2 0x213 JUMPI PUSH1 0x20 DUP1 PUSH1 0x3 NOT CALLDATASIZE ADD SLT PUSH2 0x137 JUMPI SWAP2 PUSH1 0x1 PUSH1 0x1 PUSH1 0xA0 SHL SUB PUSH2 0x192 PUSH2 0xBC7 JUMP JUMPDEST AND DUP2 MSTORE PUSH1 0x1 SWAP1 PUSH1 0x1 DUP5 MSTORE DUP3 DUP2 KECCAK256 SWAP4 DUP4 MLOAD SWAP1 DUP2 DUP2 DUP8 SLOAD SWAP2 DUP3 DUP2 MSTORE ADD SWAP1 DUP2 SWAP8 DUP6 MSTORE DUP3 DUP6 KECCAK256 SWAP1 DUP6 JUMPDEST DUP2 DUP2 LT PUSH2 0x200 JUMPI POP POP POP DUP3 PUSH2 0x1CD SWAP2 SUB DUP4 PUSH2 0xD17 JUMP JUMPDEST DUP5 MLOAD SWAP5 DUP2 DUP7 ADD SWAP3 DUP3 DUP8 MSTORE MLOAD DUP1 SWAP4 MSTORE DUP6 ADD SWAP6 SWAP3 JUMPDEST DUP3 DUP2 LT PUSH2 0x1ED JUMPI DUP6 DUP8 SUB DUP7 RETURN JUMPDEST DUP4 MLOAD DUP8 MSTORE SWAP6 DUP2 ADD SWAP6 SWAP3 DUP2 ADD SWAP3 DUP5 ADD PUSH2 0x1E0 JUMP JUMPDEST DUP3 SLOAD DUP5 MSTORE SWAP3 DUP5 ADD SWAP3 SWAP2 DUP8 ADD SWAP2 DUP8 ADD PUSH2 0x1B7 JUMP JUMPDEST POP DUP1 REVERT JUMPDEST POP CALLVALUE PUSH2 0x137 JUMPI DUP2 PUSH1 0x3 NOT CALLDATASIZE ADD SLT PUSH2 0x137 JUMPI CALLDATALOAD SWAP1 PUSH1 0x2 PUSH1 0x24 CALLDATALOAD SWAP2 DUP4 DUP6 MSTORE PUSH1 0x3 PUSH1 0x20 MSTORE PUSH2 0x24E PUSH1 0x1 DUP1 PUSH1 0xA0 SHL SUB DUP3 DUP8 KECCAK256 SLOAD AND CALLER EQ PUSH2 0xF57 JUMP JUMPDEST PUSH2 0x261 PUSH8 0xDE0B6B3A7640000 DUP5 GT PUSH2 0xFC8 JUMP JUMPDEST DUP4 DUP6 MSTORE DUP2 PUSH1 0x20 MSTORE DUP5 KECCAK256 ADD SSTORE CALLER PUSH32 0xDCECE99C98A2FED81CFDDC996B90DB0D85B830964871B96324E306F648F32E85 DUP4 DUP1 LOG3 DUP1 RETURN JUMPDEST POP SWAP1 CALLVALUE PUSH2 0x137 JUMPI PUSH1 0x60 CALLDATASIZE PUSH1 0x3 NOT ADD SLT PUSH2 0x137 JUMPI PUSH2 0x2AF PUSH2 0xBC7 JUMP JUMPDEST SWAP3 PUSH1 0x24 CALLDATALOAD DUP4 DUP2 LT ISZERO PUSH2 0x213 JUMPI PUSH1 0x44 CALLDATALOAD SWAP4 DUP2 ISZERO DUP1 ISZERO PUSH2 0x53E JUMPI JUMPDEST ISZERO PUSH2 0x4EA JUMPI PUSH2 0x2E0 PUSH8 0xDE0B6B3A7640000 DUP7 GT PUSH2 0xFC8 JUMP JUMPDEST PUSH1 0x1 PUSH1 0x1 PUSH1 0xA0 SHL SUB DUP7 DUP2 AND SWAP2 SWAP1 DUP5 SWAP1 PUSH2 0x2FA DUP5 ISZERO ISZERO PUSH2 0xE85 JUMP JUMPDEST DUP7 MLOAD SWAP8 PUSH1 0x20 SWAP10 DUP10 DUP12 DUP1 SWAP12 ADD SWAP2 PUSH1 0x1 PUSH1 0x1 PUSH1 0x60 SHL SUB NOT SWAP1 DUP2 CALLER PUSH1 0x60 SHL AND DUP5 MSTORE DUP10 PUSH1 0xF8 SHL PUSH1 0x34 DUP5 ADD MSTORE PUSH1 0x60 SHL AND PUSH1 0x35 DUP3 ADD MSTORE PUSH1 0x29 DUP2 MSTORE PUSH2 0x337 DUP2 PUSH2 0xCFB JUMP JUMPDEST MLOAD SWAP1 KECCAK256 SWAP9 DUP10 SWAP2 DUP3 DUP6 MSTORE PUSH1 0x2 DUP3 MSTORE PUSH2 0x353 DUP7 DUP12 DUP8 KECCAK256 ADD SLOAD ISZERO PUSH2 0xED1 JUMP JUMPDEST DUP10 MLOAD SWAP7 PUSH2 0x35F DUP9 PUSH2 0xCAC JUMP JUMPDEST DUP4 DUP9 MSTORE DUP3 DUP9 ADD SWAP1 DUP2 MSTORE DUP11 DUP9 ADD PUSH2 0x375 DUP11 DUP3 PUSH2 0xE05 JUMP JUMPDEST PUSH1 0x60 DUP10 ADD SWAP3 DUP4 MSTORE PUSH1 0x80 DUP10 ADD SWAP6 DUP8 DUP8 MSTORE PUSH1 0x2 PUSH1 0xA0 DUP12 ADD SWAP6 DUP10 DUP8 MSTORE PUSH1 0xC0 DUP13 ADD SWAP8 PUSH1 0x1 DUP10 MSTORE PUSH1 0xE0 DUP14 ADD SWAP11 TIMESTAMP DUP13 MSTORE MSTORE MSTORE DUP13 DUP13 KECCAK256 SWAP10 MLOAD DUP11 SSTORE PUSH1 0x1 DUP11 ADD SWAP3 MLOAD AND DUP3 SLOAD SWAP2 MLOAD DUP10 DUP2 LT ISZERO PUSH2 0x4D7 JUMPI PUSH1 0xFF PUSH1 0xA0 SHL PUSH1 0xA0 SWAP2 SWAP1 SWAP2 SHL AND PUSH1 0x1 PUSH1 0x1 PUSH1 0xA8 SHL SUB NOT SWAP3 SWAP1 SWAP3 AND OR OR SWAP1 SSTORE MLOAD PUSH1 0x2 DUP8 ADD SSTORE SWAP2 MLOAD PUSH1 0x3 DUP7 ADD DUP1 SLOAD SWAP4 MLOAD SWAP3 MLOAD PUSH7 0xFF000000000000 SWAP1 ISZERO ISZERO PUSH1 0x30 SHL AND PUSH1 0x18 SWAP4 SWAP1 SWAP4 SHL PUSH6 0xFFFFFF000000 AND PUSH3 0xFFFFFF SWAP1 SWAP3 AND PUSH7 0xFFFFFFFFFFFFFF NOT SWAP1 SWAP5 AND SWAP4 SWAP1 SWAP4 OR OR OR SWAP1 SSTORE DUP7 SWAP5 SWAP4 PUSH2 0x465 SWAP4 SWAP1 SWAP3 SWAP1 SWAP2 MLOAD SWAP2 ADD SSTORE DUP4 DUP4 MSTORE PUSH1 0x3 DUP8 MSTORE DUP5 DUP4 KECCAK256 CALLER PUSH1 0x1 PUSH1 0x1 PUSH1 0x60 SHL SUB PUSH1 0xA0 SHL DUP3 SLOAD AND OR SWAP1 SSTORE CALLER DUP4 MSTORE PUSH1 0x1 DUP8 MSTORE PUSH2 0x460 DUP5 DUP7 DUP6 KECCAK256 PUSH2 0xF29 JUMP JUMPDEST PUSH2 0x1052 JUMP JUMPDEST SWAP1 DUP4 MLOAD SWAP1 DUP7 DUP3 MSTORE DUP3 MLOAD SWAP3 DUP4 DUP9 DUP5 ADD MSTORE DUP8 DUP3 JUMPDEST DUP6 DUP2 LT PUSH2 0x4C1 JUMPI POP POP POP SWAP1 PUSH32 0x85FF1709D3CE7088349A11565101E99612F99A26406F347377D165987338C4F7 SWAP2 DUP6 DUP5 DUP4 ADD ADD MSTORE DUP5 DUP2 CALLER SWAP5 PUSH1 0x1F DUP1 NOT SWAP2 ADD AND DUP2 ADD SUB ADD SWAP1 LOG3 MLOAD SWAP1 DUP2 MSTORE RETURN JUMPDEST DUP1 DUP4 ADD DUP3 ADD MLOAD DUP2 DUP7 ADD DUP10 ADD MSTORE DUP9 SWAP7 POP DUP2 ADD PUSH2 0x477 JUMP JUMPDEST PUSH4 0x4E487B71 PUSH1 0xE0 SHL DUP14 MSTORE PUSH1 0x21 DUP11 MSTORE PUSH1 0x24 DUP14 REVERT JUMPDEST PUSH1 0x84 SWAP1 PUSH1 0x20 DUP6 MLOAD SWAP2 PUSH3 0x461BCD PUSH1 0xE5 SHL DUP4 MSTORE DUP3 ADD MSTORE PUSH1 0x28 PUSH1 0x24 DUP3 ADD MSTORE PUSH32 0x506F736974696F6E52656769737472793A206E6F742061206C656E64696E6720 PUSH1 0x44 DUP3 ADD MSTORE PUSH8 0x1C1C9BDD1BD8DBDB PUSH1 0xC2 SHL PUSH1 0x64 DUP3 ADD MSTORE REVERT JUMPDEST POP PUSH1 0x1 DUP3 EQ PUSH2 0x2C8 JUMP JUMPDEST DUP3 DUP5 CALLVALUE PUSH2 0x6C6 JUMPI PUSH1 0x20 SWAP2 DUP3 PUSH1 0x3 NOT CALLDATASIZE ADD SLT PUSH2 0x213 JUMPI PUSH1 0x1 PUSH1 0x1 PUSH1 0xA0 SHL SUB PUSH2 0x56D PUSH2 0xBC7 JUMP JUMPDEST AND DUP3 MSTORE PUSH1 0x1 DUP4 DUP2 DUP1 SWAP6 MSTORE DUP3 DUP5 KECCAK256 SWAP1 DUP4 MLOAD DUP1 DUP4 DUP4 DUP3 SWAP6 SLOAD SWAP4 DUP5 DUP2 MSTORE ADD SWAP1 DUP9 MSTORE DUP4 DUP9 KECCAK256 SWAP3 DUP9 JUMPDEST DUP8 DUP7 DUP4 DUP4 LT PUSH2 0x6B1 JUMPI POP POP POP POP PUSH2 0x5AA SWAP3 POP SUB DUP4 PUSH2 0xD17 JUMP JUMPDEST DUP5 DUP1 DUP5 JUMPDEST PUSH2 0x662 JUMPI JUMPDEST POP PUSH2 0x5C0 SWAP2 SWAP3 SWAP4 POP PUSH2 0xD51 JUMP JUMPDEST SWAP4 DUP1 SWAP2 DUP7 DUP3 SWAP1 JUMPDEST PUSH2 0x5DD JUMPI JUMPDEST DUP6 MLOAD DUP1 PUSH2 0x5D9 DUP10 DUP3 PUSH2 0xC05 JUMP JUMPDEST SUB SWAP1 RETURN JUMPDEST DUP5 MLOAD DUP2 LT ISZERO PUSH2 0x65D JUMPI SWAP1 DUP8 DUP3 PUSH2 0x5F7 DUP8 SWAP7 SWAP6 SWAP5 DUP4 SWAP9 PUSH2 0xDDB JUMP JUMPDEST MLOAD DUP5 MSTORE PUSH1 0x2 DUP1 DUP5 MSTORE PUSH1 0xFF PUSH1 0x3 DUP11 DUP8 KECCAK256 ADD SLOAD PUSH1 0x30 SHR AND PUSH2 0x61D JUMPI JUMPDEST POP ADD SWAP1 SWAP2 SWAP3 SWAP4 SWAP5 PUSH2 0x5C7 JUMP JUMPDEST PUSH2 0x627 DUP3 DUP9 PUSH2 0xDDB JUMP JUMPDEST MLOAD DUP6 MSTORE DUP4 MSTORE PUSH2 0x656 DUP9 DUP6 KECCAK256 SWAP6 PUSH2 0x645 PUSH2 0x63F DUP3 PUSH2 0xFA3 JUMP JUMPDEST SWAP8 PUSH2 0xE11 JUMP JUMPDEST PUSH2 0x64F DUP3 DUP14 PUSH2 0xDDB JUMP JUMPDEST MSTORE DUP11 PUSH2 0xDDB JUMP JUMPDEST POP DUP11 PUSH2 0x611 JUMP JUMPDEST PUSH2 0x5CC JUMP JUMPDEST DUP5 SWAP1 DUP5 MLOAD DUP2 LT ISZERO PUSH2 0x6AB JUMPI PUSH2 0x677 DUP2 DUP7 PUSH2 0xDDB JUMP JUMPDEST MLOAD DUP9 MSTORE PUSH1 0x2 DUP5 MSTORE PUSH1 0xFF PUSH1 0x3 DUP9 DUP11 KECCAK256 ADD SLOAD PUSH1 0x30 SHR AND PUSH2 0x698 JUMPI JUMPDEST DUP2 ADD SWAP1 PUSH2 0x5AE JUMP JUMPDEST SWAP2 PUSH2 0x6A3 DUP3 SWAP2 PUSH2 0xFA3 JUMP JUMPDEST SWAP3 SWAP1 POP PUSH2 0x690 JUMP JUMPDEST POP PUSH2 0x5B3 JUMP JUMPDEST DUP7 SLOAD DUP6 MSTORE SWAP6 DUP2 ADD SWAP6 DUP9 SWAP6 POP SWAP1 SWAP4 ADD SWAP3 ADD PUSH2 0x591 JUMP JUMPDEST DUP1 REVERT JUMPDEST POP POP CALLVALUE PUSH2 0x213 JUMPI DUP2 PUSH1 0x3 NOT CALLDATASIZE ADD SLT PUSH2 0x213 JUMPI SWAP1 SLOAD SWAP1 MLOAD PUSH1 0x1 PUSH1 0x1 PUSH1 0xA0 SHL SUB SWAP1 SWAP2 AND DUP2 MSTORE PUSH1 0x20 SWAP1 RETURN JUMPDEST DUP4 CALLVALUE PUSH2 0x6C6 JUMPI DUP1 PUSH1 0x3 NOT CALLDATASIZE ADD SLT PUSH2 0x6C6 JUMPI PUSH2 0x70A PUSH2 0x1026 JUMP JUMPDEST DUP1 SLOAD PUSH1 0x1 PUSH1 0x1 PUSH1 0xA0 SHL SUB NOT DUP2 AND DUP3 SSTORE DUP2 SWAP1 PUSH1 0x1 PUSH1 0x1 PUSH1 0xA0 SHL SUB AND PUSH32 0x8BE0079C531659141344CD1FD0A4F28419497F9722A3DAAFE3B4186F6B6457E0 DUP3 DUP1 LOG3 DUP1 RETURN JUMPDEST POP SWAP1 CALLVALUE PUSH2 0x137 JUMPI PUSH1 0x20 CALLDATASIZE PUSH1 0x3 NOT ADD SLT PUSH2 0x137 JUMPI PUSH1 0xFF DUP2 PUSH2 0x100 SWAP5 DUP5 CALLDATALOAD DUP2 MSTORE PUSH1 0x2 PUSH1 0x20 MSTORE KECCAK256 DUP1 SLOAD SWAP4 PUSH2 0x7A9 PUSH1 0x1 DUP4 ADD SLOAD DUP5 PUSH1 0x2 DUP6 ADD SLOAD SWAP4 PUSH1 0x3 DUP7 ADD SLOAD SWAP6 ADD SLOAD SWAP7 DUP1 MLOAD SWAP9 DUP10 MSTORE PUSH1 0x1 DUP1 PUSH1 0xA0 SHL SUB DUP4 AND PUSH1 0x20 DUP11 ADD MSTORE DUP9 ADD SWAP2 PUSH1 0xA0 SHR AND PUSH2 0xBE2 JUMP JUMPDEST PUSH1 0x60 DUP6 ADD MSTORE DUP1 PUSH1 0x2 SIGNEXTEND PUSH1 0x80 DUP6 ADD MSTORE DUP1 PUSH1 0x18 SHR PUSH1 0x2 SIGNEXTEND PUSH1 0xA0 DUP6 ADD MSTORE PUSH1 0x30 SHR AND ISZERO ISZERO PUSH1 0xC0 DUP4 ADD MSTORE PUSH1 0xE0 DUP3 ADD MSTORE RETURN JUMPDEST POP CALLVALUE PUSH2 0x137 JUMPI PUSH1 0x20 CALLDATASIZE PUSH1 0x3 NOT ADD SLT PUSH2 0x137 JUMPI PUSH1 0x3 SWAP1 CALLDATALOAD SWAP2 DUP3 DUP5 MSTORE DUP2 PUSH1 0x20 MSTORE PUSH2 0x809 PUSH1 0x1 DUP1 PUSH1 0xA0 SHL SUB DUP3 DUP7 KECCAK256 SLOAD AND CALLER EQ PUSH2 0xF57 JUMP JUMPDEST DUP3 DUP5 MSTORE PUSH1 0x2 PUSH1 0x20 MSTORE DUP4 KECCAK256 ADD DUP1 SLOAD PUSH7 0xFF000000000000 NOT AND SWAP1 SSTORE CALLER PUSH32 0x8A31F4AAC841280634EAC5B9725556DF4565E05A17A6D9B06C0A2DB9B98D22B4 DUP4 DUP1 LOG3 DUP1 RETURN JUMPDEST POP CALLVALUE PUSH2 0x137 JUMPI PUSH1 0x20 CALLDATASIZE PUSH1 0x3 NOT ADD SLT PUSH2 0x137 JUMPI CALLDATALOAD DUP3 MSTORE PUSH1 0x3 PUSH1 0x20 SWAP1 DUP2 MSTORE SWAP2 DUP2 SWAP1 KECCAK256 SLOAD SWAP1 MLOAD PUSH1 0x1 PUSH1 0x1 PUSH1 0xA0 SHL SUB SWAP1 SWAP2 AND DUP2 MSTORE RETURN JUMPDEST POP SWAP1 CALLVALUE PUSH2 0x137 JUMPI PUSH1 0x60 CALLDATASIZE PUSH1 0x3 NOT ADD SLT PUSH2 0x137 JUMPI PUSH2 0x897 PUSH2 0xBC7 JUMP JUMPDEST SWAP3 PUSH1 0x24 CALLDATALOAD SWAP3 PUSH1 0x2 SWAP1 DUP5 DUP3 SIGNEXTEND DUP1 SWAP6 SUB PUSH2 0x137 JUMPI PUSH1 0x44 CALLDATALOAD SWAP5 DUP6 DUP4 SIGNEXTEND DUP1 SWAP7 SUB PUSH2 0xADF JUMPI PUSH1 0x1 PUSH1 0x1 PUSH1 0xA0 SHL SUB DUP8 DUP2 AND SWAP7 PUSH2 0x8CE DUP9 ISZERO ISZERO PUSH2 0xE85 JUMP JUMPDEST DUP1 DUP4 SLT ISZERO PUSH2 0xA90 JUMPI SWAP1 DUP6 SWAP3 SWAP2 DUP8 MLOAD SWAP6 PUSH1 0x20 SWAP11 DUP8 DUP13 DUP1 SWAP10 ADD SWAP2 PUSH1 0x1 PUSH1 0x1 PUSH1 0x60 SHL SUB NOT SWAP1 DUP2 CALLER PUSH1 0x60 SHL AND DUP5 MSTORE PUSH1 0x1 PUSH1 0xF9 SHL PUSH1 0x34 DUP5 ADD MSTORE PUSH1 0x60 SHL AND PUSH1 0x35 DUP3 ADD MSTORE PUSH1 0x29 DUP2 MSTORE PUSH2 0x918 DUP2 PUSH2 0xCFB JUMP JUMPDEST MLOAD SWAP1 KECCAK256 DUP1 SWAP11 DUP2 DUP8 MSTORE DUP3 DUP10 MSTORE PUSH2 0x932 DUP9 DUP13 DUP10 KECCAK256 ADD SLOAD ISZERO PUSH2 0xED1 JUMP JUMPDEST DUP11 MLOAD SWAP9 DUP10 SWAP6 PUSH2 0x940 DUP8 PUSH2 0xCAC JUMP JUMPDEST DUP4 DUP8 MSTORE DUP2 DUP8 ADD SWAP3 DUP4 MSTORE DUP5 DUP14 DUP9 ADD SWAP3 DUP2 DUP5 MSTORE PUSH1 0x60 DUP10 ADD SWAP6 DUP12 DUP8 MSTORE PUSH1 0x80 DUP11 ADD SWAP11 DUP12 MSTORE PUSH1 0xA0 DUP11 ADD SWAP9 DUP10 MSTORE PUSH1 0xE0 PUSH1 0xC0 DUP12 ADD SWAP11 PUSH1 0x1 DUP13 MSTORE ADD SWAP12 TIMESTAMP DUP14 MSTORE MSTORE MSTORE DUP13 DUP13 KECCAK256 SWAP11 MLOAD DUP12 SSTORE PUSH1 0x1 DUP12 ADD SWAP3 MLOAD AND DUP3 SLOAD SWAP2 MLOAD DUP11 DUP2 LT ISZERO PUSH2 0xA7D JUMPI PUSH1 0xFF PUSH1 0xA0 SHL PUSH1 0xA0 SWAP2 SWAP1 SWAP2 SHL AND PUSH1 0x1 PUSH1 0x1 PUSH1 0xA8 SHL SUB NOT SWAP3 SWAP1 SWAP3 AND OR OR SWAP1 SSTORE MLOAD SWAP1 DUP8 ADD SSTORE SWAP2 MLOAD PUSH1 0x3 DUP7 ADD DUP1 SLOAD SWAP4 MLOAD SWAP3 MLOAD PUSH7 0xFF000000000000 SWAP1 ISZERO ISZERO PUSH1 0x30 SHL AND PUSH1 0x18 SWAP4 SWAP1 SWAP4 SHL PUSH6 0xFFFFFF000000 AND PUSH3 0xFFFFFF SWAP1 SWAP3 AND PUSH7 0xFFFFFFFFFFFFFF NOT SWAP1 SWAP5 AND SWAP4 SWAP1 SWAP4 OR OR OR SWAP1 SSTORE PUSH2 0xA33 SWAP4 DUP7 SWAP4 DUP7 SWAP4 SWAP2 SWAP3 SWAP1 SWAP2 SWAP1 MLOAD SWAP2 ADD SSTORE DUP3 DUP2 MSTORE PUSH1 0x3 DUP8 MSTORE DUP2 DUP2 KECCAK256 CALLER PUSH1 0x1 PUSH1 0x1 PUSH1 0x60 SHL SUB PUSH1 0xA0 SHL DUP3 SLOAD AND OR SWAP1 SSTORE CALLER DUP2 MSTORE PUSH1 0x1 DUP8 MSTORE KECCAK256 PUSH2 0xF29 JUMP JUMPDEST DUP2 DUP2 MLOAD DUP5 DUP2 MSTORE PUSH1 0xA DUP6 DUP3 ADD MSTORE PUSH10 0x554E49535741505F5633 PUSH1 0xB0 SHL DUP4 DUP3 ADD MSTORE PUSH32 0x85FF1709D3CE7088349A11565101E99612F99A26406F347377D165987338C4F7 PUSH1 0x60 CALLER SWAP3 LOG3 MLOAD SWAP1 DUP2 MSTORE RETURN JUMPDEST PUSH4 0x4E487B71 PUSH1 0xE0 SHL DUP14 MSTORE PUSH1 0x21 DUP12 MSTORE PUSH1 0x24 DUP14 REVERT JUMPDEST DUP7 MLOAD PUSH3 0x461BCD PUSH1 0xE5 SHL DUP2 MSTORE PUSH1 0x20 DUP2 DUP7 ADD MSTORE PUSH1 0x24 DUP1 DUP3 ADD MSTORE PUSH32 0x506F736974696F6E52656769737472793A20696E76616C6964207469636B2072 PUSH1 0x44 DUP3 ADD MSTORE PUSH4 0x616E6765 PUSH1 0xE0 SHL PUSH1 0x64 DUP3 ADD MSTORE PUSH1 0x84 SWAP1 REVERT JUMPDEST DUP4 DUP1 REVERT JUMPDEST DUP5 SWAP1 DUP5 CALLVALUE PUSH2 0x137 JUMPI PUSH1 0x20 DUP1 PUSH1 0x3 NOT CALLDATASIZE ADD SLT PUSH2 0xADF JUMPI PUSH1 0x1 PUSH1 0x1 PUSH1 0xA0 SHL SUB PUSH2 0xB08 PUSH2 0xBC7 JUMP JUMPDEST AND DUP5 MSTORE PUSH1 0x1 SWAP4 PUSH1 0x1 DUP3 MSTORE DUP3 DUP2 KECCAK256 SWAP2 DUP5 DUP7 DUP5 SLOAD DUP1 DUP4 MSTORE DUP4 DUP4 ADD SWAP6 DUP6 MSTORE DUP4 DUP6 KECCAK256 SWAP1 DUP6 JUMPDEST DUP2 DUP2 LT PUSH2 0xBB1 JUMPI POP POP POP POP PUSH2 0xB41 SWAP2 SWAP3 SWAP4 SUB DUP6 PUSH2 0xD17 JUMP JUMPDEST PUSH2 0xB4B DUP5 MLOAD PUSH2 0xD51 JUMP JUMPDEST SWAP4 DUP3 DUP7 JUMPDEST PUSH2 0xB61 JUMPI JUMPDEST DUP5 MLOAD DUP1 PUSH2 0x5D9 DUP9 DUP3 PUSH2 0xC05 JUMP JUMPDEST DUP2 MLOAD DUP2 LT ISZERO PUSH2 0xBAC JUMPI SWAP1 DUP7 DUP3 PUSH2 0xB7A DUP3 SWAP7 SWAP6 SWAP5 DUP5 PUSH2 0xDDB JUMP JUMPDEST MLOAD DUP6 MSTORE PUSH1 0x2 DUP5 MSTORE PUSH2 0xB8C DUP8 DUP7 KECCAK256 PUSH2 0xE11 JUMP JUMPDEST PUSH2 0xB96 DUP3 DUP11 PUSH2 0xDDB JUMP JUMPDEST MSTORE PUSH2 0xBA1 DUP2 DUP10 PUSH2 0xDDB JUMP JUMPDEST POP ADD SWAP1 SWAP2 SWAP3 SWAP4 PUSH2 0xB4F JUMP JUMPDEST PUSH2 0xB54 JUMP JUMPDEST DUP3 SLOAD DUP9 MSTORE SWAP7 DUP6 ADD SWAP7 DUP10 SWAP5 POP SWAP2 DUP4 ADD SWAP2 DUP4 ADD PUSH2 0xB29 JUMP JUMPDEST PUSH1 0x4 CALLDATALOAD SWAP1 PUSH1 0x1 PUSH1 0x1 PUSH1 0xA0 SHL SUB DUP3 AND DUP3 SUB PUSH2 0xBDD JUMPI JUMP JUMPDEST PUSH1 0x0 DUP1 REVERT JUMPDEST SWAP1 PUSH1 0x4 DUP3 LT ISZERO PUSH2 0xBEF JUMPI MSTORE JUMP JUMPDEST PUSH4 0x4E487B71 PUSH1 0xE0 SHL PUSH1 0x0 MSTORE PUSH1 0x21 PUSH1 0x4 MSTORE PUSH1 0x24 PUSH1 0x0 REVERT JUMPDEST PUSH1 0x20 DUP1 DUP3 ADD SWAP1 DUP1 DUP4 MSTORE DUP4 MLOAD DUP1 SWAP3 MSTORE DUP1 PUSH1 0x40 DUP1 SWAP5 ADD SWAP5 ADD SWAP3 PUSH1 0x0 SWAP1 JUMPDEST DUP4 DUP3 LT PUSH2 0xC2F JUMPI POP POP POP POP POP SWAP1 JUMP JUMPDEST SWAP1 SWAP2 SWAP3 SWAP4 SWAP5 DUP4 PUSH2 0x100 PUSH1 0x1 SWAP3 DUP9 MLOAD DUP1 MLOAD DUP3 MSTORE DUP5 DUP1 PUSH1 0xA0 SHL SUB DUP5 DUP3 ADD MLOAD AND DUP5 DUP4 ADD MSTORE PUSH2 0xC60 DUP7 DUP3 ADD MLOAD DUP8 DUP5 ADD SWAP1 PUSH2 0xBE2 JUMP JUMPDEST PUSH1 0x60 DUP1 DUP3 ADD MLOAD SWAP1 DUP4 ADD MSTORE PUSH1 0x80 DUP1 DUP3 ADD MLOAD SWAP1 PUSH1 0x2 SWAP2 DUP3 SIGNEXTEND SWAP1 DUP5 ADD MSTORE PUSH1 0xA0 SWAP1 DUP2 DUP4 ADD MLOAD SWAP1 SIGNEXTEND SWAP1 DUP4 ADD MSTORE PUSH1 0xC0 DUP1 DUP3 ADD MLOAD ISZERO ISZERO SWAP1 DUP4 ADD MSTORE PUSH1 0xE0 DUP1 SWAP2 ADD MLOAD SWAP1 DUP3 ADD MSTORE ADD SWAP7 ADD SWAP3 ADD SWAP1 SWAP4 SWAP3 SWAP2 SWAP4 PUSH2 0xC20 JUMP JUMPDEST PUSH2 0x100 DUP2 ADD SWAP1 DUP2 LT PUSH8 0xFFFFFFFFFFFFFFFF DUP3 GT OR PUSH2 0xCC9 JUMPI PUSH1 0x40 MSTORE JUMP JUMPDEST PUSH4 0x4E487B71 PUSH1 0xE0 SHL PUSH1 0x0 MSTORE PUSH1 0x41 PUSH1 0x4 MSTORE PUSH1 0x24 PUSH1 0x0 REVERT JUMPDEST PUSH1 0x40 DUP2 ADD SWAP1 DUP2 LT PUSH8 0xFFFFFFFFFFFFFFFF DUP3 GT OR PUSH2 0xCC9 JUMPI PUSH1 0x40 MSTORE JUMP JUMPDEST PUSH1 0x60 DUP2 ADD SWAP1 DUP2 LT PUSH8 0xFFFFFFFFFFFFFFFF DUP3 GT OR PUSH2 0xCC9 JUMPI PUSH1 0x40 MSTORE JUMP JUMPDEST SWAP1 PUSH1 0x1F DUP1 NOT SWAP2 ADD AND DUP2 ADD SWAP1 DUP2 LT PUSH8 0xFFFFFFFFFFFFFFFF DUP3 GT OR PUSH2 0xCC9 JUMPI PUSH1 0x40 MSTORE JUMP JUMPDEST PUSH8 0xFFFFFFFFFFFFFFFF DUP2 GT PUSH2 0xCC9 JUMPI PUSH1 0x5 SHL PUSH1 0x20 ADD SWAP1 JUMP JUMPDEST SWAP1 PUSH2 0xD5B DUP3 PUSH2 0xD39 JUMP JUMPDEST PUSH1 0x40 SWAP1 PUSH2 0xD6B PUSH1 0x40 MLOAD SWAP2 DUP3 PUSH2 0xD17 JUMP JUMPDEST DUP4 DUP2 MSTORE DUP1 SWAP4 PUSH2 0xD7C PUSH1 0x1F NOT SWAP2 PUSH2 0xD39 JUMP JUMPDEST ADD SWAP2 PUSH1 0x0 JUMPDEST DUP4 DUP2 LT PUSH2 0xD8E JUMPI POP POP POP POP JUMP JUMPDEST PUSH1 0x20 SWAP1 DUP3 MLOAD PUSH2 0xD9C DUP2 PUSH2 0xCAC JUMP JUMPDEST PUSH1 0x0 DUP2 MSTORE DUP3 PUSH1 0x0 DUP2 DUP4 ADD MSTORE PUSH1 0x0 DUP6 DUP4 ADD MSTORE PUSH1 0x0 PUSH1 0x60 DUP4 ADD MSTORE PUSH1 0x0 PUSH1 0x80 DUP4 ADD MSTORE PUSH1 0x0 PUSH1 0xA0 DUP4 ADD MSTORE PUSH1 0x0 PUSH1 0xC0 DUP4 ADD MSTORE PUSH1 0x0 PUSH1 0xE0 DUP4 ADD MSTORE DUP3 DUP7 ADD ADD MSTORE ADD PUSH2 0xD81 JUMP JUMPDEST DUP1 MLOAD DUP3 LT ISZERO PUSH2 0xDEF JUMPI PUSH1 0x20 SWAP2 PUSH1 0x5 SHL ADD ADD SWAP1 JUMP JUMPDEST PUSH4 0x4E487B71 PUSH1 0xE0 SHL PUSH1 0x0 MSTORE PUSH1 0x32 PUSH1 0x4 MSTORE PUSH1 0x24 PUSH1 0x0 REVERT JUMPDEST PUSH1 0x4 DUP3 LT ISZERO PUSH2 0xBEF JUMPI MSTORE JUMP JUMPDEST SWAP1 PUSH1 0x40 MLOAD PUSH2 0xE1E DUP2 PUSH2 0xCAC JUMP JUMPDEST PUSH1 0xE0 PUSH1 0x4 DUP3 SWAP5 DUP1 SLOAD DUP5 MSTORE PUSH2 0xE4D PUSH1 0xFF PUSH1 0x1 DUP4 ADD SLOAD PUSH1 0x1 DUP1 PUSH1 0xA0 SHL SUB DUP2 AND PUSH1 0x20 DUP9 ADD MSTORE PUSH1 0xA0 SHR AND PUSH1 0x40 DUP7 ADD PUSH2 0xE05 JUMP JUMPDEST PUSH1 0x2 DUP2 ADD SLOAD PUSH1 0x60 DUP6 ADD MSTORE PUSH1 0xFF PUSH1 0x3 DUP3 ADD SLOAD DUP1 PUSH1 0x2 SIGNEXTEND PUSH1 0x80 DUP8 ADD MSTORE DUP1 PUSH1 0x18 SHR PUSH1 0x2 SIGNEXTEND PUSH1 0xA0 DUP8 ADD MSTORE PUSH1 0x30 SHR AND ISZERO ISZERO PUSH1 0xC0 DUP6 ADD MSTORE ADD SLOAD SWAP2 ADD MSTORE JUMP JUMPDEST ISZERO PUSH2 0xE8C JUMPI JUMP JUMPDEST PUSH1 0x40 MLOAD PUSH3 0x461BCD PUSH1 0xE5 SHL DUP2 MSTORE PUSH1 0x20 PUSH1 0x4 DUP3 ADD MSTORE PUSH1 0x1E PUSH1 0x24 DUP3 ADD MSTORE PUSH32 0x506F736974696F6E52656769737472793A207A65726F20616464726573730000 PUSH1 0x44 DUP3 ADD MSTORE PUSH1 0x64 SWAP1 REVERT JUMPDEST ISZERO PUSH2 0xED8 JUMPI JUMP JUMPDEST PUSH1 0x40 MLOAD PUSH3 0x461BCD PUSH1 0xE5 SHL DUP2 MSTORE PUSH1 0x20 PUSH1 0x4 DUP3 ADD MSTORE PUSH1 0x24 DUP1 DUP3 ADD MSTORE PUSH32 0x506F736974696F6E52656769737472793A20616C726561647920726567697374 PUSH1 0x44 DUP3 ADD MSTORE PUSH4 0x195C9959 PUSH1 0xE2 SHL PUSH1 0x64 DUP3 ADD MSTORE PUSH1 0x84 SWAP1 REVERT JUMPDEST DUP1 SLOAD SWAP1 PUSH9 0x10000000000000000 DUP3 LT ISZERO PUSH2 0xCC9 JUMPI PUSH1 0x1 DUP3 ADD DUP1 DUP3 SSTORE DUP3 LT ISZERO PUSH2 0xDEF JUMPI PUSH1 0x0 MSTORE PUSH1 0x20 PUSH1 0x0 KECCAK256 ADD SSTORE JUMP JUMPDEST ISZERO PUSH2 0xF5E JUMPI JUMP JUMPDEST PUSH1 0x40 MLOAD PUSH3 0x461BCD PUSH1 0xE5 SHL DUP2 MSTORE PUSH1 0x20 PUSH1 0x4 DUP3 ADD MSTORE PUSH1 0x1B PUSH1 0x24 DUP3 ADD MSTORE PUSH32 0x506F736974696F6E52656769737472793A206E6F74206F776E65720000000000 PUSH1 0x44 DUP3 ADD MSTORE PUSH1 0x64 SWAP1 REVERT JUMPDEST PUSH1 0x0 NOT DUP2 EQ PUSH2 0xFB2 JUMPI PUSH1 0x1 ADD SWAP1 JUMP JUMPDEST PUSH4 0x4E487B71 PUSH1 0xE0 SHL PUSH1 0x0 MSTORE PUSH1 0x11 PUSH1 0x4 MSTORE PUSH1 0x24 PUSH1 0x0 REVERT JUMPDEST ISZERO PUSH2 0xFCF JUMPI JUMP JUMPDEST PUSH1 0x40 MLOAD PUSH3 0x461BCD PUSH1 0xE5 SHL DUP2 MSTORE PUSH1 0x20 PUSH1 0x4 DUP3 ADD MSTORE PUSH1 0x29 PUSH1 0x24 DUP3 ADD MSTORE PUSH32 0x506F736974696F6E52656769737472793A207468726573686F6C64206D757374 PUSH1 0x44 DUP3 ADD MSTORE PUSH9 0x206265203E20312E3 PUSH1 0xBC SHL PUSH1 0x64 DUP3 ADD MSTORE PUSH1 0x84 SWAP1 REVERT JUMPDEST PUSH1 0x0 SLOAD PUSH1 0x1 PUSH1 0x1 PUSH1 0xA0 SHL SUB AND CALLER SUB PUSH2 0x103A JUMPI JUMP JUMPDEST PUSH1 0x40 MLOAD PUSH4 0x118CDAA7 PUSH1 0xE0 SHL DUP2 MSTORE CALLER PUSH1 0x4 DUP3 ADD MSTORE PUSH1 0x24 SWAP1 REVERT JUMPDEST PUSH1 0x4 DUP2 LT ISZERO PUSH2 0xBEF JUMPI DUP1 ISZERO PUSH2 0x10D8 JUMPI PUSH1 0x1 DUP2 EQ PUSH2 0x10B7 JUMPI PUSH1 0x2 EQ PUSH2 0x1091 JUMPI PUSH1 0x40 MLOAD PUSH2 0x107C DUP2 PUSH2 0xCDF JUMP JUMPDEST PUSH1 0x5 DUP2 MSTORE PUSH5 0x27AA2422A9 PUSH1 0xD9 SHL PUSH1 0x20 DUP3 ADD MSTORE SWAP1 JUMP JUMPDEST PUSH1 0x40 MLOAD PUSH2 0x109D DUP2 PUSH2 0xCDF JUMP JUMPDEST PUSH1 0xA DUP2 MSTORE PUSH10 0x554E49535741505F5633 PUSH1 0xB0 SHL PUSH1 0x20 DUP3 ADD MSTORE SWAP1 JUMP JUMPDEST POP PUSH1 0x40 MLOAD PUSH2 0x10C4 DUP2 PUSH2 0xCDF JUMP JUMPDEST PUSH1 0x4 DUP2 MSTORE PUSH4 0x41415645 PUSH1 0xE0 SHL PUSH1 0x20 DUP3 ADD MSTORE SWAP1 JUMP JUMPDEST POP PUSH1 0x40 MLOAD PUSH2 0x10E5 DUP2 PUSH2 0xCDF JUMP JUMPDEST PUSH1 0x5 DUP2 MSTORE PUSH5 0x535041524B PUSH1 0xD8 SHL PUSH1 0x20 DUP3 ADD MSTORE SWAP1 JUMP INVALID LOG2 PUSH5 0x6970667358 0x22 SLT KECCAK256 PUSH25 0xFD69ABB52656E67D0B463726C0A69D832D6532981A6A9A3355 MULMOD RETURNDATACOPY DIV 0xE0 CREATE 0xED PUSH5 0x736F6C6343 STOP ADDMOD XOR STOP CALLER "},"methodIdentifiers":{"getActivePositions(address)":"b4e9e65c","getUserPositionIds(address)":"eddf7570","getUserPositions(address)":"2a6bc2dd","isPositionActive(bytes32)":"ee733bb7","owner()":"8da5cb5b","positionOwner(bytes32)":"40328664","positions(bytes32)":"514ea4bf","registerLendingPosition(address,uint8,uint256)":"c6afc02f","registerUniswapPosition(address,int24,int24)":"39afeb07","removePosition(bytes32)":"4c89b68d","renounceOwnership()":"715018a6","transferOwnership(address)":"f2fde38b","updateHealthThreshold(bytes32,uint256)":"d5e48364"}}}}}