{
  "_format": "hh-sol-artifact-1",
  "contractName": "PositionRegistry",
  "sourceName": "contracts/PositionRegistry.sol",
  "abi": [
    {
      "inputs": [],
      "stateMutability": "nonpayable",
      "type": "constructor"
    },
    {
      "inputs": [
        {
          "internalType": "address",
          "name": "owner",
          "type": "address"
        }
      ],
      "name": "OwnableInvalidOwner",
      "type": "error"
    },
    {
      "inputs": [
        {
          "internalType": "address",
          "name": "account",
          "type": "address"
        }
      ],
      "name": "OwnableUnauthorizedAccount",
      "type": "error"
    },
    {
      "anonymous": false,
      "inputs": [
        {
          "indexed": true,
          "internalType": "address",
          "name": "previousOwner",
          "type": "address"
        },
        {
          "indexed": true,
          "internalType": "address",
          "name": "newOwner",
          "type": "address"
        }
      ],
      "name": "OwnershipTransferred",
      "type": "event"
    },
    {
      "anonymous": false,
      "inputs": [
        {
          "indexed": true,
          "internalType": "address",
          "name": "user",
          "type": "address"
        },
        {
          "indexed": true,
          "internalType": "bytes32",
          "name": "positionId",
          "type": "bytes32"
        },
        {
          "indexed": false,
          "internalType": "string",
          "name": "protocol",
          "type": "string"
        }
      ],
      "name": "PositionRegistered",
      "type": "event"
    },
    {
      "anonymous": false,
      "inputs": [
        {
          "indexed": true,
          "internalType": "address",
          "name": "user",
          "type": "address"
        },
        {
          "indexed": true,
          "internalType": "bytes32",
          "name": "positionId",
          "type": "bytes32"
        }
      ],
      "name": "PositionRemoved",
      "type": "event"
    },
    {
      "anonymous": false,
      "inputs": [
        {
          "indexed": true,
          "internalType": "address",
          "name": "user",
          "type": "address"
        },
        {
          "indexed": true,
          "internalType": "bytes32",
          "name": "positionId",
          "type": "bytes32"
        }
      ],
      "name": "PositionUpdated",
      "type": "event"
    },
    {
      "inputs": [
        {
          "internalType": "address",
          "name": "user",
          "type": "address"
        }
      ],
      "name": "getActivePositions",
      "outputs": [
        {
          "components": [
            {
              "internalType": "bytes32",
              "name": "id",
              "type": "bytes32"
            },
            {
              "internalType": "address",
              "name": "positionAddress",
              "type": "address"
            },
            {
              "internalType": "enum PositionRegistry.Protocol",
              "name": "protocol",
              "type": "uint8"
            },
            {
              "internalType": "uint256",
              "name": "healthThreshold",
              "type": "uint256"
            },
            {
              "internalType": "int24",
              "name": "tickLower",
              "type": "int24"
            },
            {
              "internalType": "int24",
              "name": "tickUpper",
              "type": "int24"
            },
            {
              "internalType": "bool",
              "name": "active",
              "type": "bool"
            },
            {
              "internalType": "uint256",
              "name": "registeredAt",
              "type": "uint256"
            }
          ],
          "internalType": "struct PositionRegistry.Position[]",
          "name": "",
          "type": "tuple[]"
        }
      ],
      "stateMutability": "view",
      "type": "function"
    },
    {
      "inputs": [
        {
          "internalType": "address",
          "name": "user",
          "type": "address"
        }
      ],
      "name": "getUserPositionIds",
      "outputs": [
        {
          "internalType": "bytes32[]",
          "name": "",
          "type": "bytes32[]"
        }
      ],
      "stateMutability": "view",
      "type": "function"
    },
    {
      "inputs": [
        {
          "internalType": "address",
          "name": "user",
          "type": "address"
        }
      ],
      "name": "getUserPositions",
      "outputs": [
        {
          "components": [
            {
              "internalType": "bytes32",
              "name": "id",
              "type": "bytes32"
            },
            {
              "internalType": "address",
              "name": "positionAddress",
              "type": "address"
            },
            {
              "internalType": "enum PositionRegistry.Protocol",
              "name": "protocol",
              "type": "uint8"
            },
            {
              "internalType": "uint256",
              "name": "healthThreshold",
              "type": "uint256"
            },
            {
              "internalType": "int24",
              "name": "tickLower",
              "type": "int24"
            },
            {
              "internalType": "int24",
              "name": "tickUpper",
              "type": "int24"
            },
            {
              "internalType": "bool",
              "name": "active",
              "type": "bool"
            },
            {
              "internalType": "uint256",
              "name": "registeredAt",
              "type": "uint256"
            }
          ],
          "internalType": "struct PositionRegistry.Position[]",
          "name": "",
          "type": "tuple[]"
        }
      ],
      "stateMutability": "view",
      "type": "function"
    },
    {
      "inputs": [
        {
          "internalType": "bytes32",
          "name": "positionId",
          "type": "bytes32"
        }
      ],
      "name": "isPositionActive",
      "outputs": [
        {
          "internalType": "bool",
          "name": "",
          "type": "bool"
        }
      ],
      "stateMutability": "view",
      "type": "function"
    },
    {
      "inputs": [],
      "name": "owner",
      "outputs": [
        {
          "internalType": "address",
          "name": "",
          "type": "address"
        }
      ],
      "stateMutability": "view",
      "type": "function"
    },
    {
      "inputs": [
        {
          "internalType": "bytes32",
          "name": "",
          "type": "bytes32"
        }
      ],
      "name": "positionOwner",
      "outputs": [
        {
          "internalType": "address",
          "name": "",
          "type": "address"
        }
      ],
      "stateMutability": "view",
      "type": "function"
    },
    {
      "inputs": [
        {
          "internalType": "bytes32",
          "name": "",
          "type": "bytes32"
        }
      ],
      "name": "positions",
      "outputs": [
        {
          "internalType": "bytes32",
          "name": "id",
          "type": "bytes32"
        },
        {
          "internalType": "address",
          "name": "positionAddress",
          "type": "address"
        },
        {
          "internalType": "enum PositionRegistry.Protocol",
          "name": "protocol",
          "type": "uint8"
        },
        {
          "internalType": "uint256",
          "name": "healthThreshold",
          "type": "uint256"
        },
        {
          "internalType": "int24",
          "name": "tickLower",
          "type": "int24"
        },
        {
          "internalType": "int24",
          "name": "tickUpper",
          "type": "int24"
        },
        {
          "internalType": "bool",
          "name": "active",
          "type": "bool"
        },
        {
          "internalType": "uint256",
          "name": "registeredAt",
          "type": "uint256"
        }
      ],
      "stateMutability": "view",
      "type": "function"
    },
    {
      "inputs": [
        {
          "internalType": "address",
          "name": "positionAddress",
          "type": "address"
        },
        {
          "internalType": "enum PositionRegistry.Protocol",
          "name": "protocol",
          "type": "uint8"
        },
        {
          "internalType": "uint256",
          "name": "healthThreshold",
          "type": "uint256"
        }
      ],
      "name": "registerLendingPosition",
      "outputs": [
        {
          "internalType": "bytes32",
          "name": "positionId",
          "type": "bytes32"
        }
      ],
      "stateMutability": "nonpayable",
      "type": "function"
    },
    {
      "inputs": [
        {
          "internalType": "address",
          "name": "poolAddress",
          "type": "address"
        },
        {
          "internalType": "int24",
          "name": "tickLower",
          "type": "int24"
        },
        {
          "internalType": "int24",
          "name": "tickUpper",
          "type": "int24"
        }
      ],
      "name": "registerUniswapPosition",
      "outputs": [
        {
          "internalType": "bytes32",
          "name": "positionId",
          "type": "bytes32"
        }
      ],
      "stateMutability": "nonpayable",
      "type": "function"
    },
    {
      "inputs": [
        {
          "internalType": "bytes32",
          "name": "positionId",
          "type": "bytes32"
        }
      ],
      "name": "removePosition",
      "outputs": [],
      "stateMutability": "nonpayable",
      "type": "function"
    },
    {
      "inputs": [],
      "name": "renounceOwnership",
      "outputs": [],
      "stateMutability": "nonpayable",
      "type": "function"
    },
    {
      "inputs": [
        {
          "internalType": "address",
          "name": "newOwner",
          "type": "address"
        }
      ],
      "name": "transferOwnership",
      "outputs": [],
      "stateMutability": "nonpayable",
      "type": "function"
    },
    {
      "inputs": [
        {
          "internalType": "bytes32",
          "name": "positionId",
          "type": "bytes32"
        },
        {
          "internalType": "uint256",
          "name": "newThreshold",
          "type": "uint256"
        }
      ],
      "name": "updateHealthThreshold",
      "outputs": [],
      "stateMutability": "nonpayable",
      "type": "function"
    }
  ],
  "bytecode": "0x6080806040523461007a5733156100645760008054336001600160a01b03198216811783556040519290916001600160a01b0316907f8be0079c531659141344cd1fd0a4f28419497f9722a3daafe3b4186f6b6457e09080a361113090816100808239f35b631e4fbdf760e01b815260006004820152602490fd5b600080fdfe6080604081815260048036101561001557600080fd5b600092833560e01c9081632a6bc2dd14610ae35750806339afeb071461087c578063403286641461084a5780634c89b68d146107d5578063514ea4bf1461074b578063715018a6146106f15780638da5cb5b146106c9578063b4e9e65c14610548578063c6afc02f14610294578063d5e4836414610217578063eddf75701461016d578063ee733bb71461013b5763f2fde38b146100b257600080fd5b34610137576020366003190112610137576100cb610bc7565b906100d4611026565b6001600160a01b0391821692831561012157505082546001600160a01b0319811683178455167f8be0079c531659141344cd1fd0a4f28419497f9722a3daafe3b4186f6b6457e08380a380f35b51631e4fbdf760e01b8152908101849052602490fd5b8280fd5b50346101375760203660031901126101375760038260209460ff933581526002865220015460301c1690519015158152f35b5050346102135760208060031936011261013757916001600160a01b03610192610bc7565b1681526001906001845282812093835190818187549182815201908197855282852090855b81811061020057505050826101cd910383610d17565b8451948186019282875251809352850195925b8281106101ed5785870386f35b83518752958101959281019284016101e0565b82548452928401929187019187016101b7565b5080fd5b50346101375781600319360112610137573590600260243591838552600360205261024e60018060a01b0382872054163314610f57565b610261670de0b6b3a76400008411610fc8565b8385528160205284200155337fdcece99c98a2fed81cfddc996b90db0d85b830964871b96324e306f648f32e858380a380f35b509034610137576060366003190112610137576102af610bc7565b926024358381101561021357604435938115801561053e575b156104ea576102e0670de0b6b3a76400008611610fc8565b6001600160a01b03868116919084906102fa841515610e85565b865197602099898b809b01916001600160601b031990813360601b1684528960f81b603484015260601b1660358201526029815261033781610cfb565b51902098899182855260028252610353868b8720015415610ed1565b89519661035f88610cac565b8388528288019081528a88016103758a82610e05565b606089019283526080890195878752600260a08b019589875260c08c01976001895260e08d019a428c5252528c8c2099518a5560018a0192511682549151898110156104d75760ff60a01b60a09190911b166001600160a81b0319929092161717905551600287015591516003860180549351925166ff00000000000090151560301b1660189390931b65ffffff0000001662ffffff90921666ffffffffffffff19909416939093171717905586949361046593909290915191015583835260038752848320336001600160601b0360a01b8254161790553383526001875261046084868520610f29565b611052565b90835190868252825192838884015287825b8581106104c157505050907f85ff1709d3ce7088349a11565101e99612f99a26406f347377d165987338c4f79185848301015284813394601f80199101168101030190a351908152f35b8083018201518186018901528896508101610477565b634e487b7160e01b8d5260218a5260248dfd5b608490602085519162461bcd60e51b8352820152602860248201527f506f736974696f6e52656769737472793a206e6f742061206c656e64696e67206044820152671c1c9bdd1bd8dbdb60c21b6064820152fd5b50600182146102c8565b8284346106c65760209182600319360112610213576001600160a01b0361056d610bc7565b16825260018381809552828420908351808383829554938481520190885283882092885b87868383106106b157505050506105aa92500383610d17565b8480845b610662575b506105c091929350610d51565b9380918682905b6105dd575b8551806105d98982610c05565b0390f35b845181101561065d579087826105f7879695948398610ddb565b518452600280845260ff60038a8720015460301c1661061d575b500190919293946105c7565b6106278288610ddb565b51855283526106568885209561064561063f82610fa3565b97610e11565b61064f828d610ddb565b528a610ddb565b508a610611565b6105cc565b849084518110156106ab576106778186610ddb565b5188526002845260ff6003888a20015460301c16610698575b8101906105ae565b916106a38291610fa3565b929050610690565b506105b3565b86548552958101958895509093019201610591565b80fd5b505034610213578160031936011261021357905490516001600160a01b039091168152602090f35b83346106c657806003193601126106c65761070a611026565b80546001600160a01b03198116825581906001600160a01b03167f8be0079c531659141344cd1fd0a4f28419497f9722a3daafe3b4186f6b6457e08280a380f35b5090346101375760203660031901126101375760ff8161010094843581526002602052208054936107a9600183015484600285015493600386015495015496805198895260018060a01b03831660208a015288019160a01c16610be2565b60608501528060020b60808501528060181c60020b60a085015260301c16151560c083015260e0820152f35b50346101375760203660031901126101375760039035918284528160205261080960018060a01b0382862054163314610f57565b8284526002602052832001805466ff00000000000019169055337f8a31f4aac841280634eac5b9725556df4565e05a17a6d9b06c0a2db9b98d22b48380a380f35b50346101375760203660031901126101375735825260036020908152918190205490516001600160a01b039091168152f35b50903461013757606036600319011261013757610897610bc7565b926024359260029084820b809503610137576044359485830b809603610adf576001600160a01b03878116966108ce881515610e85565b80831215610a90579085929187519560209a878c809901916001600160601b031990813360601b168452600160f91b603484015260601b1660358201526029815261091881610cfb565b519020809a818752828952610932888c8920015415610ed1565b8a5198899561094087610cac565b838752818701928352848d88019281845260608901958b875260808a019a8b5260a08a0198895260e060c08b019a60018c52019b428d5252528c8c209a518b5560018b01925116825491518a811015610a7d5760ff60a01b60a09190911b166001600160a81b03199290921617179055519087015591516003860180549351925166ff00000000000090151560301b1660189390931b65ffffff0000001662ffffff90921666ffffffffffffff199094169390931717179055610a33938693869391929091905191015582815260038752818120336001600160601b0360a01b8254161790553381526001875220610f29565b818151848152600a8582015269554e49535741505f563360b01b838201527f85ff1709d3ce7088349a11565101e99612f99a26406f347377d165987338c4f760603392a351908152f35b634e487b7160e01b8d5260218b5260248dfd5b865162461bcd60e51b81526020818601526024808201527f506f736974696f6e52656769737472793a20696e76616c6964207469636b2072604482015263616e676560e01b6064820152608490fd5b8380fd5b8490843461013757602080600319360112610adf576001600160a01b03610b08610bc7565b16845260019360018252828120918486845480835283830195855283852090855b818110610bb15750505050610b419192930385610d17565b610b4b8451610d51565b9382865b610b61575b8451806105d98882610c05565b8151811015610bac57908682610b7a8296959484610ddb565b51855260028452610b8c878620610e11565b610b96828a610ddb565b52610ba18189610ddb565b500190919293610b4f565b610b54565b8254885296850196899450918301918301610b29565b600435906001600160a01b0382168203610bdd57565b600080fd5b906004821015610bef5752565b634e487b7160e01b600052602160045260246000fd5b60208082019080835283518092528060408094019401926000905b838210610c2f57505050505090565b909192939483610100600192885180518252848060a01b03848201511684830152610c608682015187840190610be2565b6060808201519083015260808082015190600291820b9084015260a09081830151900b9083015260c08082015115159083015260e0809101519082015201960192019093929193610c20565b610100810190811067ffffffffffffffff821117610cc957604052565b634e487b7160e01b600052604160045260246000fd5b6040810190811067ffffffffffffffff821117610cc957604052565b6060810190811067ffffffffffffffff821117610cc957604052565b90601f8019910116810190811067ffffffffffffffff821117610cc957604052565b67ffffffffffffffff8111610cc95760051b60200190565b90610d5b82610d39565b604090610d6b6040519182610d17565b8381528093610d7c601f1991610d39565b019160005b838110610d8e5750505050565b6020908251610d9c81610cac565b60008152826000818301526000858301526000606083015260006080830152600060a0830152600060c0830152600060e0830152828601015201610d81565b8051821015610def5760209160051b010190565b634e487b7160e01b600052603260045260246000fd5b6004821015610bef5752565b90604051610e1e81610cac565b60e06004829480548452610e4d60ff600183015460018060a01b038116602088015260a01c1660408601610e05565b6002810154606085015260ff60038201548060020b60808701528060181c60020b60a087015260301c16151560c08501520154910152565b15610e8c57565b60405162461bcd60e51b815260206004820152601e60248201527f506f736974696f6e52656769737472793a207a65726f206164647265737300006044820152606490fd5b15610ed857565b60405162461bcd60e51b8152602060048201526024808201527f506f736974696f6e52656769737472793a20616c726561647920726567697374604482015263195c995960e21b6064820152608490fd5b80549068010000000000000000821015610cc95760018201808255821015610def5760005260206000200155565b15610f5e57565b60405162461bcd60e51b815260206004820152601b60248201527f506f736974696f6e52656769737472793a206e6f74206f776e657200000000006044820152606490fd5b6000198114610fb25760010190565b634e487b7160e01b600052601160045260246000fd5b15610fcf57565b60405162461bcd60e51b815260206004820152602960248201527f506f736974696f6e52656769737472793a207468726573686f6c64206d7573746044820152680206265203e20312e360bc1b6064820152608490fd5b6000546001600160a01b0316330361103a57565b60405163118cdaa760e01b8152336004820152602490fd5b6004811015610bef5780156110d857600181146110b7576002146110915760405161107c81610cdf565b600581526427aa2422a960d91b602082015290565b60405161109d81610cdf565b600a815269554e49535741505f563360b01b602082015290565b506040516110c481610cdf565b60048152634141564560e01b602082015290565b506040516110e581610cdf565b6005815264535041524b60d81b60208201529056fea264697066735822122078fd69abb52656e67d0b463726c0a69d832d6532981a6a9a3355093e04e0f0ed64736f6c63430008180033",
  "linkReferences": {},
  "deployedLinkReferences": {}
}