{
  "_format": "hh-sol-artifact-1",
  "contractName": "SentinelINFT",
  "sourceName": "contracts/SentinelINFT.sol",
  "abi": [
    {
      "inputs": [],
      "stateMutability": "nonpayable",
      "type": "constructor"
    },
    {
      "inputs": [
        {
          "internalType": "address",
          "name": "sender",
          "type": "address"
        },
        {
          "internalType": "uint256",
          "name": "tokenId",
          "type": "uint256"
        },
        {
          "internalType": "address",
          "name": "owner",
          "type": "address"
        }
      ],
      "name": "ERC721IncorrectOwner",
      "type": "error"
    },
    {
      "inputs": [
        {
          "internalType": "address",
          "name": "operator",
          "type": "address"
        },
        {
          "internalType": "uint256",
          "name": "tokenId",
          "type": "uint256"
        }
      ],
      "name": "ERC721InsufficientApproval",
      "type": "error"
    },
    {
      "inputs": [
        {
          "internalType": "address",
          "name": "approver",
          "type": "address"
        }
      ],
      "name": "ERC721InvalidApprover",
      "type": "error"
    },
    {
      "inputs": [
        {
          "internalType": "address",
          "name": "operator",
          "type": "address"
        }
      ],
      "name": "ERC721InvalidOperator",
      "type": "error"
    },
    {
      "inputs": [
        {
          "internalType": "address",
          "name": "owner",
          "type": "address"
        }
      ],
      "name": "ERC721InvalidOwner",
      "type": "error"
    },
    {
      "inputs": [
        {
          "internalType": "address",
          "name": "receiver",
          "type": "address"
        }
      ],
      "name": "ERC721InvalidReceiver",
      "type": "error"
    },
    {
      "inputs": [
        {
          "internalType": "address",
          "name": "sender",
          "type": "address"
        }
      ],
      "name": "ERC721InvalidSender",
      "type": "error"
    },
    {
      "inputs": [
        {
          "internalType": "uint256",
          "name": "tokenId",
          "type": "uint256"
        }
      ],
      "name": "ERC721NonexistentToken",
      "type": "error"
    },
    {
      "inputs": [
        {
          "internalType": "address",
          "name": "owner",
          "type": "address"
        }
      ],
      "name": "OwnableInvalidOwner",
      "type": "error"
    },
    {
      "inputs": [
        {
          "internalType": "address",
          "name": "account",
          "type": "address"
        }
      ],
      "name": "OwnableUnauthorizedAccount",
      "type": "error"
    },
    {
      "anonymous": false,
      "inputs": [
        {
          "indexed": true,
          "internalType": "address",
          "name": "owner",
          "type": "address"
        },
        {
          "indexed": true,
          "internalType": "address",
          "name": "approved",
          "type": "address"
        },
        {
          "indexed": true,
          "internalType": "uint256",
          "name": "tokenId",
          "type": "uint256"
        }
      ],
      "name": "Approval",
      "type": "event"
    },
    {
      "anonymous": false,
      "inputs": [
        {
          "indexed": true,
          "internalType": "address",
          "name": "owner",
          "type": "address"
        },
        {
          "indexed": true,
          "internalType": "address",
          "name": "operator",
          "type": "address"
        },
        {
          "indexed": false,
          "internalType": "bool",
          "name": "approved",
          "type": "bool"
        }
      ],
      "name": "ApprovalForAll",
      "type": "event"
    },
    {
      "anonymous": false,
      "inputs": [
        {
          "indexed": true,
          "internalType": "address",
          "name": "caller",
          "type": "address"
        },
        {
          "indexed": false,
          "internalType": "bool",
          "name": "authorized",
          "type": "bool"
        }
      ],
      "name": "AuthorizedCallerSet",
      "type": "event"
    },
    {
      "anonymous": false,
      "inputs": [
        {
          "indexed": true,
          "internalType": "uint256",
          "name": "tokenId",
          "type": "uint256"
        },
        {
          "indexed": false,
          "internalType": "uint256",
          "name": "newCycles",
          "type": "uint256"
        }
      ],
      "name": "ExperienceIncremented",
      "type": "event"
    },
    {
      "anonymous": false,
      "inputs": [
        {
          "indexed": true,
          "internalType": "uint256",
          "name": "tokenId",
          "type": "uint256"
        },
        {
          "indexed": false,
          "internalType": "string",
          "name": "storagePointer",
          "type": "string"
        }
      ],
      "name": "IntelligenceUpdated",
      "type": "event"
    },
    {
      "anonymous": false,
      "inputs": [
        {
          "indexed": true,
          "internalType": "address",
          "name": "previousOwner",
          "type": "address"
        },
        {
          "indexed": true,
          "internalType": "address",
          "name": "newOwner",
          "type": "address"
        }
      ],
      "name": "OwnershipTransferred",
      "type": "event"
    },
    {
      "anonymous": false,
      "inputs": [
        {
          "indexed": true,
          "internalType": "uint256",
          "name": "tokenId",
          "type": "uint256"
        },
        {
          "indexed": true,
          "internalType": "address",
          "name": "to",
          "type": "address"
        }
      ],
      "name": "TokenMinted",
      "type": "event"
    },
    {
      "anonymous": false,
      "inputs": [
        {
          "indexed": true,
          "internalType": "address",
          "name": "from",
          "type": "address"
        },
        {
          "indexed": true,
          "internalType": "address",
          "name": "to",
          "type": "address"
        },
        {
          "indexed": true,
          "internalType": "uint256",
          "name": "tokenId",
          "type": "uint256"
        }
      ],
      "name": "Transfer",
      "type": "event"
    },
    {
      "inputs": [
        {
          "internalType": "uint256",
          "name": "",
          "type": "uint256"
        }
      ],
      "name": "agentData",
      "outputs": [
        {
          "internalType": "uint256",
          "name": "experienceCycles",
          "type": "uint256"
        },
        {
          "internalType": "uint256",
          "name": "mintedAt",
          "type": "uint256"
        },
        {
          "internalType": "uint256",
          "name": "lastActiveAt",
          "type": "uint256"
        },
        {
          "internalType": "string",
          "name": "storagePointer",
          "type": "string"
        },
        {
          "internalType": "string",
          "name": "strategyFingerprint",
          "type": "string"
        },
        {
          "internalType": "bool",
          "name": "active",
          "type": "bool"
        }
      ],
      "stateMutability": "view",
      "type": "function"
    },
    {
      "inputs": [
        {
          "internalType": "address",
          "name": "to",
          "type": "address"
        },
        {
          "internalType": "uint256",
          "name": "tokenId",
          "type": "uint256"
        }
      ],
      "name": "approve",
      "outputs": [],
      "stateMutability": "nonpayable",
      "type": "function"
    },
    {
      "inputs": [
        {
          "internalType": "address",
          "name": "",
          "type": "address"
        }
      ],
      "name": "authorizedCallers",
      "outputs": [
        {
          "internalType": "bool",
          "name": "",
          "type": "bool"
        }
      ],
      "stateMutability": "view",
      "type": "function"
    },
    {
      "inputs": [
        {
          "internalType": "address",
          "name": "owner",
          "type": "address"
        }
      ],
      "name": "balanceOf",
      "outputs": [
        {
          "internalType": "uint256",
          "name": "",
          "type": "uint256"
        }
      ],
      "stateMutability": "view",
      "type": "function"
    },
    {
      "inputs": [
        {
          "internalType": "uint256",
          "name": "tokenId",
          "type": "uint256"
        }
      ],
      "name": "getApproved",
      "outputs": [
        {
          "internalType": "address",
          "name": "",
          "type": "address"
        }
      ],
      "stateMutability": "view",
      "type": "function"
    },
    {
      "inputs": [
        {
          "internalType": "uint256",
          "name": "tokenId",
          "type": "uint256"
        }
      ],
      "name": "getExperienceCycles",
      "outputs": [
        {
          "internalType": "uint256",
          "name": "",
          "type": "uint256"
        }
      ],
      "stateMutability": "view",
      "type": "function"
    },
    {
      "inputs": [
        {
          "internalType": "uint256",
          "name": "tokenId",
          "type": "uint256"
        }
      ],
      "name": "getFullMetadata",
      "outputs": [
        {
          "components": [
            {
              "internalType": "uint256",
              "name": "experienceCycles",
              "type": "uint256"
            },
            {
              "internalType": "uint256",
              "name": "mintedAt",
              "type": "uint256"
            },
            {
              "internalType": "uint256",
              "name": "lastActiveAt",
              "type": "uint256"
            },
            {
              "internalType": "string",
              "name": "storagePointer",
              "type": "string"
            },
            {
              "internalType": "string",
              "name": "strategyFingerprint",
              "type": "string"
            },
            {
              "internalType": "bool",
              "name": "active",
              "type": "bool"
            }
          ],
          "internalType": "struct SentinelINFT.AgentMetadata",
          "name": "",
          "type": "tuple"
        }
      ],
      "stateMutability": "view",
      "type": "function"
    },
    {
      "inputs": [
        {
          "internalType": "uint256",
          "name": "tokenId",
          "type": "uint256"
        }
      ],
      "name": "getStoragePointer",
      "outputs": [
        {
          "internalType": "string",
          "name": "",
          "type": "string"
        }
      ],
      "stateMutability": "view",
      "type": "function"
    },
    {
      "inputs": [
        {
          "internalType": "uint256",
          "name": "tokenId",
          "type": "uint256"
        }
      ],
      "name": "incrementExperience",
      "outputs": [],
      "stateMutability": "nonpayable",
      "type": "function"
    },
    {
      "inputs": [
        {
          "internalType": "address",
          "name": "owner",
          "type": "address"
        },
        {
          "internalType": "address",
          "name": "operator",
          "type": "address"
        }
      ],
      "name": "isApprovedForAll",
      "outputs": [
        {
          "internalType": "bool",
          "name": "",
          "type": "bool"
        }
      ],
      "stateMutability": "view",
      "type": "function"
    },
    {
      "inputs": [
        {
          "internalType": "address",
          "name": "to",
          "type": "address"
        },
        {
          "internalType": "string",
          "name": "storagePointer",
          "type": "string"
        },
        {
          "internalType": "string",
          "name": "strategyFP",
          "type": "string"
        }
      ],
      "name": "mint",
      "outputs": [
        {
          "internalType": "uint256",
          "name": "tokenId",
          "type": "uint256"
        }
      ],
      "stateMutability": "nonpayable",
      "type": "function"
    },
    {
      "inputs": [],
      "name": "name",
      "outputs": [
        {
          "internalType": "string",
          "name": "",
          "type": "string"
        }
      ],
      "stateMutability": "view",
      "type": "function"
    },
    {
      "inputs": [],
      "name": "owner",
      "outputs": [
        {
          "internalType": "address",
          "name": "",
          "type": "address"
        }
      ],
      "stateMutability": "view",
      "type": "function"
    },
    {
      "inputs": [
        {
          "internalType": "uint256",
          "name": "tokenId",
          "type": "uint256"
        }
      ],
      "name": "ownerOf",
      "outputs": [
        {
          "internalType": "address",
          "name": "",
          "type": "address"
        }
      ],
      "stateMutability": "view",
      "type": "function"
    },
    {
      "inputs": [],
      "name": "renounceOwnership",
      "outputs": [],
      "stateMutability": "nonpayable",
      "type": "function"
    },
    {
      "inputs": [
        {
          "internalType": "address",
          "name": "from",
          "type": "address"
        },
        {
          "internalType": "address",
          "name": "to",
          "type": "address"
        },
        {
          "internalType": "uint256",
          "name": "tokenId",
          "type": "uint256"
        }
      ],
      "name": "safeTransferFrom",
      "outputs": [],
      "stateMutability": "nonpayable",
      "type": "function"
    },
    {
      "inputs": [
        {
          "internalType": "address",
          "name": "from",
          "type": "address"
        },
        {
          "internalType": "address",
          "name": "to",
          "type": "address"
        },
        {
          "internalType": "uint256",
          "name": "tokenId",
          "type": "uint256"
        },
        {
          "internalType": "bytes",
          "name": "data",
          "type": "bytes"
        }
      ],
      "name": "safeTransferFrom",
      "outputs": [],
      "stateMutability": "nonpayable",
      "type": "function"
    },
    {
      "inputs": [
        {
          "internalType": "uint256",
          "name": "tokenId",
          "type": "uint256"
        },
        {
          "internalType": "bool",
          "name": "active",
          "type": "bool"
        }
      ],
      "name": "setActive",
      "outputs": [],
      "stateMutability": "nonpayable",
      "type": "function"
    },
    {
      "inputs": [
        {
          "internalType": "address",
          "name": "operator",
          "type": "address"
        },
        {
          "internalType": "bool",
          "name": "approved",
          "type": "bool"
        }
      ],
      "name": "setApprovalForAll",
      "outputs": [],
      "stateMutability": "nonpayable",
      "type": "function"
    },
    {
      "inputs": [
        {
          "internalType": "address",
          "name": "caller",
          "type": "address"
        },
        {
          "internalType": "bool",
          "name": "authorized",
          "type": "bool"
        }
      ],
      "name": "setAuthorizedCaller",
      "outputs": [],
      "stateMutability": "nonpayable",
      "type": "function"
    },
    {
      "inputs": [
        {
          "internalType": "bytes4",
          "name": "interfaceId",
          "type": "bytes4"
        }
      ],
      "name": "supportsInterface",
      "outputs": [
        {
          "internalType": "bool",
          "name": "",
          "type": "bool"
        }
      ],
      "stateMutability": "view",
      "type": "function"
    },
    {
      "inputs": [],
      "name": "symbol",
      "outputs": [
        {
          "internalType": "string",
          "name": "",
          "type": "string"
        }
      ],
      "stateMutability": "view",
      "type": "function"
    },
    {
      "inputs": [
        {
          "internalType": "uint256",
          "name": "tokenId",
          "type": "uint256"
        }
      ],
      "name": "tokenURI",
      "outputs": [
        {
          "internalType": "string",
          "name": "",
          "type": "string"
        }
      ],
      "stateMutability": "view",
      "type": "function"
    },
    {
      "inputs": [],
      "name": "totalMinted",
      "outputs": [
        {
          "internalType": "uint256",
          "name": "",
          "type": "uint256"
        }
      ],
      "stateMutability": "view",
      "type": "function"
    },
    {
      "inputs": [
        {
          "internalType": "address",
          "name": "from",
          "type": "address"
        },
        {
          "internalType": "address",
          "name": "to",
          "type": "address"
        },
        {
          "internalType": "uint256",
          "name": "tokenId",
          "type": "uint256"
        }
      ],
      "name": "transferFrom",
      "outputs": [],
      "stateMutability": "nonpayable",
      "type": "function"
    },
    {
      "inputs": [
        {
          "internalType": "address",
          "name": "newOwner",
          "type": "address"
        }
      ],
      "name": "transferOwnership",
      "outputs": [],
      "stateMutability": "nonpayable",
      "type": "function"
    },
    {
      "inputs": [
        {
          "internalType": "uint256",
          "name": "tokenId",
          "type": "uint256"
        },
        {
          "internalType": "string",
          "name": "newStoragePointer",
          "type": "string"
        }
      ],
      "name": "updateIntelligence",
      "outputs": [],
      "stateMutability": "nonpayable",
      "type": "function"
    }
  ],
  "bytecode": "0x60803462000391576001600160401b03906040818101838111838210176200037b578152600c82526020926b14d95b9d1a5b995b1253919560a21b84840152815190828201828110828211176200037b578352600582526414d253919560da1b8583015283518181116200037b576000928354916001968784811c9416801562000370575b898510146200035c578190601f9485811162000309575b508990858311600114620002a557879262000299575b5050600019600383901b1c191690871b1784555b8051928311620002855785548681811c911680156200027a575b8882101462000266579081838594931162000211575b5087918311600114620001ad578492620001a1575b5050600019600383901b1c191690841b1783555b33156200018b5760068054336001600160a01b03198216811790925583519560099290916001600160a01b03167f8be0079c531659141344cd1fd0a4f28419497f9722a3daafe3b4186f6b6457e08580a333835252209060ff19825416179055611e7f9081620003978239f35b6024915190631e4fbdf760e01b82526004820152fd5b0151905038806200010a565b8685528785208794509190601f198416865b8a828210620001fa5750508411620001e0575b505050811b0183556200011e565b015160001960f88460031b161c19169055388080620001d2565b8385015186558a97909501949384019301620001bf565b909192508685528785208380860160051c8201928a87106200025c575b9186958a929594930160051c01915b8281106200024d575050620000f5565b8781558695508991016200023d565b925081926200022e565b634e487b7160e01b85526022600452602485fd5b90607f1690620000df565b634e487b7160e01b84526041600452602484fd5b015190503880620000b1565b8780528a88208a94509190601f198416895b8d828210620002f25750508411620002d8575b505050811b018455620000c5565b015160001960f88460031b161c19169055388080620002ca565b8385015186558d97909501949384019301620002b7565b9091508680528987208580850160051c8201928c861062000352575b918b91869594930160051c01915b828110620003435750506200009b565b8981558594508b910162000333565b9250819262000325565b634e487b7160e01b86526022600452602486fd5b93607f169362000084565b634e487b7160e01b600052604160045260246000fd5b600080fdfe608080604052600436101561001357600080fd5b600090813560e01c90816301ffc9a7146115eb5750806306fdde0314611540578063081812fc14611503578063095ea7b31461142057806323b872dd1461140857806342842e0e146113da578063454bbd291461135c578063536fff6c1461131d5780636352211e146112ec57806370a0823114611294578063715018a6146112375780638da5cb5b1461120e57806395d89b411461113e5780639907119014610c335780639a92db9114610ba1578063a22cb46514610af8578063a2309ff814610ada578063a5b7b6d614610a98578063b393970a146109c8578063b88d4fde14610958578063bbed8ed314610859578063c87b56dd146104d0578063e60a955d14610438578063e985e9c5146103e8578063f2fde38b14610359578063f4bea7e9146101765763f7dc68c61461014a57600080fd5b346101735760203660031901126101735760406020916004358152600883522054604051908152f35b80fd5b50346101735760403660031901126101735760043567ffffffffffffffff602435818111610355576101ac903690600401611719565b91903385526020916009835260ff6040872054168015610341575b6101d090611b1f565b8486526002835260408620546101f0906001600160a01b03161515611b77565b848652600883526003604087200190841161032d57610219846102138354611747565b83611ac9565b85601f85116001146102a457938060409381959361026f83807fa7e8bb5552a7d79ced0f9a9251a656ab353ff1be3d639ba890852322a42f8f959a8d91610299575b508160011b916000199060031b1c19161790565b90555b8451958487958652850152848401378181018301879052601f01601f19168101030190a280f35b90508401353861025b565b81875283872090601f198616885b818110610316575093869593869384937fa7e8bb5552a7d79ced0f9a9251a656ab353ff1be3d639ba890852322a42f8f9599604098106102fc575b5050600183811b019055610272565b830135600019600386901b60f8161c1916905538806102ed565b9192866001819286890135815501940192016102b2565b634e487b7160e01b86526041600452602486fd5b506006546001600160a01b031633146101c7565b8380fd5b5034610173576020366003190112610173576103736116a4565b61037b611bfe565b6001600160a01b039081169081156103cf57600654826bffffffffffffffffffffffff60a01b821617600655167f8be0079c531659141344cd1fd0a4f28419497f9722a3daafe3b4186f6b6457e08380a380f35b604051631e4fbdf760e01b815260048101849052602490fd5b50346101735760403660031901126101735760ff60406020926104096116a4565b6104116116bf565b6001600160a01b039182168352600586528383209116825284522054604051911615158152f35b5034610173576040366003190112610173576104b960043561045861170a565b90338452600960205260ff60408520541680156104bc575b61047990611b1f565b8084526002602052604084205461049a906001600160a01b03161515611b77565b83526008602052600560408420019060ff801983541691151516179055565b80f35b506006546001600160a01b03163314610470565b5034610173576020806003193601126108555760043580835260028252604083205461081a916101649161050e906001600160a01b03161515611b77565b8085526008845260408520946040519161052783611781565b865483526001870154868401526002870154604084015261054a6003880161180d565b916060840192835261058961058260ff600561056860048d0161180d565b9b608089019c8d520154169360a087019415158552611d6e565b9451611d6e565b97519151159050610832576040516105a0816117cf565b60048152637472756560e01b87820152915b51906040519788947f646174613a6170706c69636174696f6e2f6a736f6e3b757466382c0000000000898701527f7b226e616d65223a2253656e74696e656c20477561726469616e202300000000603b870152610618815180928b60578a01910161165c565b61088b60f21b6057918701918201527f226465736372697074696f6e223a2253656e74696e656c20694e4654202d204160598201527f75746f6e6f6d6f7573204465466920506f736974696f6e20477561726469616e60798201527f20706f7765726564206279203047202b204b6565706572487562222c0000000060998201526d2261747472696275746573223a5b60901b60b58201527f7b2274726169745f74797065223a22457870657269656e6365204379636c657360c3820152691116113b30b63ab2911d60b11b60e38201528151916106fe90839060ed8401908c0161165c565b0190611f4b60f21b60ed8301527f7b2274726169745f74797065223a225374726174656779222c2276616c75652260ef830152611d1160f11b61010f83015261011191610753825180938b868501910161165c565b019262089f4b60ea1b80928501527f7b2274726169745f74797065223a22416374697665222c2276616c7565223a226101148501526101349361079e825180938b888501910161165c565b01928301527f7b2274726169745f74797065223a2253746f7261676520506f696e746572222c61013783015268113b30b63ab2911d1160b91b610157830152610160916107f38251809389868501910161165c565b019061227d60f01b90820152615d7d60f01b610162820152036101448101855201836117eb565b61082e60405192828493845283019061167f565b0390f35b60405161083e816117cf565b600581526466616c736560d81b87820152916105b2565b5080fd5b50346101735760209081600319360112610173578060409160a0835161087e81611781565b8281528286820152828582015260608082015260606080820152015260043581526008835220604051906108b182611781565b8054825261094b6001820154918484019283526109386002820154604086019081526108df6003840161180d565b906060870191825260ff60056108f76004870161180d565b9560808a019687520154169560a088019615158752604051988998818a5251908901525160408801525160608701525160c0608087015260e086019061167f565b9051848203601f190160a086015261167f565b9051151560c08301520390f35b5034610173576080366003190112610173576109726116a4565b61097a6116bf565b906044356064359267ffffffffffffffff84116109c457366023850112156109c4576109b36104b99436906024816004013591016118ce565b926109bf838383611905565b611c2a565b8480fd5b503461017357602036600319011261017357600435338252600960205260ff6040832054168015610a84575b6109fd90611b1f565b80825260026020526040822054610a1e906001600160a01b03161515611b77565b80825260086020526040822080549060018201809211610a705781817f909a0cfcbddfa22d82e19ab2a4850d9c88c0220712b3f0eac6c1e4bda3cd7fb49360209355600242910155604051908152a280f35b634e487b7160e01b84526011600452602484fd5b506006546001600160a01b031633146109f4565b503461017357602036600319011261017357610ac66003604061082e9360043581526008602052200161180d565b60405191829160208352602083019061167f565b50346101735780600319360112610173576020600754604051908152f35b503461017357604036600319011261017357610b126116a4565b610b1a61170a565b6001600160a01b03909116908115610b8857338352600560205260408320828452602052610b5781604085209060ff801983541691151516179055565b60405190151581527f17307eab39ab6107e8899845ad3d59bd9653f200f220920489ca2b5937696c3160203392a380f35b604051630b61174360e31b815260048101839052602490fd5b50346101735760203660031901126101735760409060043581526008602052208054600182015491610c27600282015491610c19610be16003830161180d565b60ff6005610bf16004860161180d565b940154169460405197889788526020880152604087015260c0606087015260c086019061167f565b90848203608086015261167f565b90151560a08301520390f35b503461017357606036600319011261017357610c4d6116a4565b9060243567ffffffffffffffff811161085557610c6e903690600401611719565b60443567ffffffffffffffff811161035557610c8e903690600401611719565b929091610c99611bfe565b60075493610ca685611aa4565b600755610ce560405194610cb986611781565b878652610cd66020870195428752604088019542875236916118ce565b926060870193845236916118ce565b916080850192835260a085019360018552868852600860205260408820955186555160018601555160028501555180519067ffffffffffffffff82116110bb57610d3f82610d366003880154611747565b60038801611ac9565b602090601f83116001146110cf57610d6f9291889183611044575b50508160011b916000199060031b1c19161790565b60038401555b518051600484019167ffffffffffffffff82116110bb57610da082610d9a8554611747565b85611ac9565b602090601f831160011461104f5782610df196959360059593610dd8938b926110445750508160011b916000199060031b1c19161790565b90555b51151591019060ff801983541691151516179055565b604051610dfd816117b3565b8281526001600160a01b038481169490851561102b57838552600260205260408520541683868215159283610ff6575b81885260036020526040882060018154019055828852600260205260408820826bffffffffffffffffffffffff60a01b8254161790557fddf252ad1be2c89b69c2b068fc378daa952ba7f163c4a11628f55a4df523b3ef8880a4610fdd573b610ec1575b50602092817f3a5398bda6f1f57d6c96834fa9bf02b5517bdc847d14312015a917ba421c31c96040519480a38152f35b60405160208180610efa630a85bd0160e11b9586835233600484015288602484015287604484015260806064840152608483019061167f565b038187895af1849181610f98575b50610f695783853d15610f60573d610f1f816118b2565b90610f2d60405192836117eb565b8152809260203d92013e5b81519182610f5957604051633250574960e11b815260048101839052602490fd5b9050602001fd5b60609150610f38565b6001600160e01b03191603610f7f576020610e91565b604051633250574960e11b815260048101849052602490fd5b9091506020813d602011610fd5575b81610fb4602093836117eb565b810103126109c457516001600160e01b0319811681036109c4579038610f08565b3d9150610fa7565b6040516339e3563760e11b815260048101859052602490fd5b600083815260046020526040902080546001600160a01b03191690558088526003602052604088208054600019019055610e2d565b604051633250574960e11b815260048101869052602490fd5b015190503880610d5a565b838852602088209190601f198416895b8181106110a35750926001928592610df1999896600598961061108a575b505050811b019055610ddb565b015160001960f88460031b161c1916905538808061107d565b9293602060018192878601518155019501930161105f565b634e487b7160e01b87526041600452602487fd5b9190600386018852602088209088935b601f1984168510611123576001945083601f1981161061110a575b505050811b016003840155610d75565b015160001960f88460031b161c191690553880806110fa565b818101518355602094850194600190930192909101906110df565b50346101735780600319360112610173576040519080826001926001549361116585611747565b93848452602095866001821691826000146111ec575050600114611192575b505061081a925003836117eb565b90859250600182527fb10e2d527612073b26eecdfd717e6a320cf44b4afac2b0732d9fcbe2b7fa0cf65b8583106111d457505061081a93508201013880611184565b805483890185015287945086939092019181016111bc565b925093505061081a94915060ff191682840152151560051b8201013880611184565b50346101735780600319360112610173576006546040516001600160a01b039091168152602090f35b5034610173578060031936011261017357611250611bfe565b600680546001600160a01b0319811690915581906001600160a01b03167f8be0079c531659141344cd1fd0a4f28419497f9722a3daafe3b4186f6b6457e08280a380f35b5034610173576020366003190112610173576001600160a01b036112b66116a4565b1680156112d3578160409160209352600383522054604051908152f35b6040516322718ad960e21b815260048101839052602490fd5b503461017357602036600319011261017357602061130b600435611bc3565b6040516001600160a01b039091168152f35b50346101735760203660031901126101735760209060ff906040906001600160a01b036113486116a4565b168152600984522054166040519015158152f35b5034610173576040366003190112610173576113766116a4565b7f1eff62a53441c7d0125c22f2a9a324e206b34efa41e19469d7efb9bb703d21a360206113a161170a565b926113aa611bfe565b6001600160a01b03168085526009825260408520805460ff191660ff86151516179055926040519015158152a280f35b5034610173576104b96113ec366116d5565b90604051926113fa846117b3565b8584526109bf838383611905565b5034610173576104b961141a366116d5565b91611905565b50346101735760403660031901126101735761143a6116a4565b60243561144681611bc3565b331515806114f0575b806114c5575b6114ad576001600160a01b039283169282918491167f8c5be1e5ebec7d5bd14f71427d1e84f3dd0314c0f7b2291e5b200ac8c7c3b9258680a4825260046020526040822080546001600160a01b031916909117905580f35b60405163a9fbf51f60e01b8152336004820152602490fd5b506001600160a01b038116845260056020908152604080862033875290915284205460ff1615611455565b506001600160a01b03811633141561144f565b50346101735760203660031901126101735760209060043561152481611bc3565b50815260048252604060018060a01b0391205416604051908152f35b503461017357806003193601126101735760405190808282549161156383611747565b92838352602094600191866001821691826000146111ec57505060011461159257505061081a925003836117eb565b908592508180527f290decd9548b62a8d60345a988386fc84ba6bc95484008f6362f93160ef3e5635b8583106115d357505061081a93508201013880611184565b805483890185015287945086939092019181016115bb565b9050346108555760203660031901126108555760043563ffffffff60e01b811680910361165857602092506380ac58cd60e01b8114908115611647575b8115611636575b5015158152f35b6301ffc9a760e01b1490503861162f565b635b5e139f60e01b81149150611628565b8280fd5b60005b83811061166f5750506000910152565b818101518382015260200161165f565b906020916116988151809281855285808601910161165c565b601f01601f1916010190565b600435906001600160a01b03821682036116ba57565b600080fd5b602435906001600160a01b03821682036116ba57565b60609060031901126116ba576001600160a01b039060043582811681036116ba579160243590811681036116ba579060443590565b6024359081151582036116ba57565b9181601f840112156116ba5782359167ffffffffffffffff83116116ba57602083818601950101116116ba57565b90600182811c92168015611777575b602083101461176157565b634e487b7160e01b600052602260045260246000fd5b91607f1691611756565b60c0810190811067ffffffffffffffff82111761179d57604052565b634e487b7160e01b600052604160045260246000fd5b6020810190811067ffffffffffffffff82111761179d57604052565b6040810190811067ffffffffffffffff82111761179d57604052565b90601f8019910116810190811067ffffffffffffffff82111761179d57604052565b9060405191826000825461182081611747565b908184526020946001916001811690816000146118905750600114611851575b50505061184f925003836117eb565b565b600090815285812095935091905b81831061187857505061184f9350820101388080611840565b8554888401850152948501948794509183019161185f565b9250505061184f94925060ff191682840152151560051b820101388080611840565b67ffffffffffffffff811161179d57601f01601f191660200190565b9291926118da826118b2565b916118e860405193846117eb565b8294818452818301116116ba578281602093846000960137010152565b6001600160a01b039182169290918315611a8b576000928284528260209560028752604096848888205416968791331515806119f5575b509060027fddf252ad1be2c89b69c2b068fc378daa952ba7f163c4a11628f55a4df523b3ef92846119c2575b858352600381528b8320805460010190558683525289812080546001600160a01b0319168517905580a416928383036119a15750505050565b6064945051926364283d7b60e01b8452600484015260248301526044820152fd5b600087815260046020526040902080546001600160a01b0319169055848352600381528b83208054600019019055611968565b91939450915080611a4a575b15611a115785929187913861193c565b878688611a2e576024915190637e27328960e01b82526004820152fd5b604491519063177e802f60e01b82523360048301526024820152fd5b503387148015611a6f575b80611a015750858252600481523385898420541614611a01565b5086825260058152878220338352815260ff8883205416611a55565b604051633250574960e11b815260006004820152602490fd5b6000198114611ab35760010190565b634e487b7160e01b600052601160045260246000fd5b90601f8111611ad757505050565b6000916000526020600020906020601f850160051c83019410611b15575b601f0160051c01915b828110611b0a57505050565b818155600101611afe565b9092508290611af5565b15611b2657565b60405162461bcd60e51b815260206004820152602360248201527f53656e74696e656c494e46543a2063616c6c6572206e6f7420617574686f72696044820152621e995960ea1b6064820152608490fd5b15611b7e57565b60405162461bcd60e51b815260206004820152601f60248201527f53656e74696e656c494e46543a206e6f6e6578697374656e7420746f6b656e006044820152606490fd5b6000818152600260205260409020546001600160a01b0316908115611be6575090565b60249060405190637e27328960e01b82526004820152fd5b6006546001600160a01b03163303611c1257565b60405163118cdaa760e01b8152336004820152602490fd5b813b611c37575b50505050565b604051630a85bd0160e11b8082523360048301526001600160a01b03928316602483015260448201949094526080606482015260209592909116939092908390611c8590608483019061167f565b039285816000958187895af1849181611d2e575b50611cf9575050503d600014611cf1573d611cb3816118b2565b90611cc160405192836117eb565b81528091843d92013e5b80519283611cec57604051633250574960e11b815260048101849052602490fd5b019050fd5b506060611ccb565b919450915063ffffffff60e01b1603611d16575038808080611c31565b60249060405190633250574960e11b82526004820152fd5b9091508681813d8311611d67575b611d4681836117eb565b810103126109c457516001600160e01b0319811681036109c4579038611c99565b503d611d3c565b8015611e2b57600081805b611e175750611d87816118b2565b90611d9560405192836117eb565b808252601f19611da4826118b2565b013660208401375b80928015611e10576000198201918211611ab3578193600a926030908484068201809211611ab35785511115611dfa5760f81b6001600160f81b03191660001a908401601f01530491611dac565b634e487b7160e01b600052603260045260246000fd5b5050905090565b90611e23600a91611aa4565b910480611d79565b50604051611e38816117cf565b60018152600360fc1b60208201529056fea264697066735822122059d1f29c2a0e330766d9cfdf2b942c6c025250142c888b82c8cf5752b0715d1964736f6c63430008180033",
  "linkReferences": {},
  "deployedLinkReferences": {}
}