{
  "_format": "hh-sol-artifact-1",
  "contractName": "InferenceGuard",
  "sourceName": "contracts/InferenceGuard.sol",
  "abi": [
    {
      "inputs": [],
      "stateMutability": "nonpayable",
      "type": "constructor"
    },
    {
      "inputs": [
        {
          "internalType": "address",
          "name": "owner",
          "type": "address"
        }
      ],
      "name": "OwnableInvalidOwner",
      "type": "error"
    },
    {
      "inputs": [
        {
          "internalType": "address",
          "name": "account",
          "type": "address"
        }
      ],
      "name": "OwnableUnauthorizedAccount",
      "type": "error"
    },
    {
      "anonymous": false,
      "inputs": [
        {
          "indexed": true,
          "internalType": "address",
          "name": "consumer",
          "type": "address"
        },
        {
          "indexed": false,
          "internalType": "bool",
          "name": "authorized",
          "type": "bool"
        }
      ],
      "name": "AuthorizedConsumerSet",
      "type": "event"
    },
    {
      "anonymous": false,
      "inputs": [
        {
          "indexed": true,
          "internalType": "address",
          "name": "submitter",
          "type": "address"
        },
        {
          "indexed": false,
          "internalType": "bool",
          "name": "authorized",
          "type": "bool"
        }
      ],
      "name": "AuthorizedSubmitterSet",
      "type": "event"
    },
    {
      "anonymous": false,
      "inputs": [
        {
          "indexed": true,
          "internalType": "address",
          "name": "previousOwner",
          "type": "address"
        },
        {
          "indexed": true,
          "internalType": "address",
          "name": "newOwner",
          "type": "address"
        }
      ],
      "name": "OwnershipTransferred",
      "type": "event"
    },
    {
      "anonymous": false,
      "inputs": [
        {
          "indexed": true,
          "internalType": "bytes32",
          "name": "executionId",
          "type": "bytes32"
        },
        {
          "indexed": false,
          "internalType": "address",
          "name": "consumer",
          "type": "address"
        }
      ],
      "name": "ProofConsumed",
      "type": "event"
    },
    {
      "anonymous": false,
      "inputs": [
        {
          "indexed": true,
          "internalType": "bytes32",
          "name": "executionId",
          "type": "bytes32"
        },
        {
          "indexed": false,
          "internalType": "bytes32",
          "name": "rootHash",
          "type": "bytes32"
        },
        {
          "indexed": false,
          "internalType": "address",
          "name": "submitter",
          "type": "address"
        }
      ],
      "name": "ProofSubmitted",
      "type": "event"
    },
    {
      "inputs": [
        {
          "internalType": "uint256",
          "name": "",
          "type": "uint256"
        }
      ],
      "name": "allExecutionIds",
      "outputs": [
        {
          "internalType": "bytes32",
          "name": "",
          "type": "bytes32"
        }
      ],
      "stateMutability": "view",
      "type": "function"
    },
    {
      "inputs": [
        {
          "internalType": "address",
          "name": "",
          "type": "address"
        }
      ],
      "name": "authorizedConsumers",
      "outputs": [
        {
          "internalType": "bool",
          "name": "",
          "type": "bool"
        }
      ],
      "stateMutability": "view",
      "type": "function"
    },
    {
      "inputs": [
        {
          "internalType": "address",
          "name": "",
          "type": "address"
        }
      ],
      "name": "authorizedSubmitters",
      "outputs": [
        {
          "internalType": "bool",
          "name": "",
          "type": "bool"
        }
      ],
      "stateMutability": "view",
      "type": "function"
    },
    {
      "inputs": [
        {
          "internalType": "bytes32",
          "name": "executionId",
          "type": "bytes32"
        }
      ],
      "name": "consumeProof",
      "outputs": [],
      "stateMutability": "nonpayable",
      "type": "function"
    },
    {
      "inputs": [
        {
          "internalType": "bytes32",
          "name": "executionId",
          "type": "bytes32"
        }
      ],
      "name": "getProof",
      "outputs": [
        {
          "components": [
            {
              "internalType": "bytes32",
              "name": "rootHash",
              "type": "bytes32"
            },
            {
              "internalType": "address",
              "name": "submitter",
              "type": "address"
            },
            {
              "internalType": "uint256",
              "name": "submittedAt",
              "type": "uint256"
            },
            {
              "internalType": "bool",
              "name": "consumed",
              "type": "bool"
            },
            {
              "internalType": "bool",
              "name": "exists",
              "type": "bool"
            }
          ],
          "internalType": "struct InferenceGuard.Proof",
          "name": "",
          "type": "tuple"
        }
      ],
      "stateMutability": "view",
      "type": "function"
    },
    {
      "inputs": [
        {
          "internalType": "uint256",
          "name": "count",
          "type": "uint256"
        }
      ],
      "name": "getRecentProofs",
      "outputs": [
        {
          "internalType": "bytes32[]",
          "name": "",
          "type": "bytes32[]"
        }
      ],
      "stateMutability": "view",
      "type": "function"
    },
    {
      "inputs": [
        {
          "internalType": "bytes32",
          "name": "executionId",
          "type": "bytes32"
        }
      ],
      "name": "getRootHash",
      "outputs": [
        {
          "internalType": "bytes32",
          "name": "",
          "type": "bytes32"
        }
      ],
      "stateMutability": "view",
      "type": "function"
    },
    {
      "inputs": [],
      "name": "getTotalProofs",
      "outputs": [
        {
          "internalType": "uint256",
          "name": "",
          "type": "uint256"
        }
      ],
      "stateMutability": "view",
      "type": "function"
    },
    {
      "inputs": [
        {
          "internalType": "bytes32",
          "name": "executionId",
          "type": "bytes32"
        }
      ],
      "name": "isProofValid",
      "outputs": [
        {
          "internalType": "bool",
          "name": "",
          "type": "bool"
        }
      ],
      "stateMutability": "view",
      "type": "function"
    },
    {
      "inputs": [],
      "name": "owner",
      "outputs": [
        {
          "internalType": "address",
          "name": "",
          "type": "address"
        }
      ],
      "stateMutability": "view",
      "type": "function"
    },
    {
      "inputs": [
        {
          "internalType": "bytes32",
          "name": "",
          "type": "bytes32"
        }
      ],
      "name": "proofs",
      "outputs": [
        {
          "internalType": "bytes32",
          "name": "rootHash",
          "type": "bytes32"
        },
        {
          "internalType": "address",
          "name": "submitter",
          "type": "address"
        },
        {
          "internalType": "uint256",
          "name": "submittedAt",
          "type": "uint256"
        },
        {
          "internalType": "bool",
          "name": "consumed",
          "type": "bool"
        },
        {
          "internalType": "bool",
          "name": "exists",
          "type": "bool"
        }
      ],
      "stateMutability": "view",
      "type": "function"
    },
    {
      "inputs": [],
      "name": "renounceOwnership",
      "outputs": [],
      "stateMutability": "nonpayable",
      "type": "function"
    },
    {
      "inputs": [
        {
          "internalType": "address",
          "name": "consumer",
          "type": "address"
        },
        {
          "internalType": "bool",
          "name": "authorized",
          "type": "bool"
        }
      ],
      "name": "setAuthorizedConsumer",
      "outputs": [],
      "stateMutability": "nonpayable",
      "type": "function"
    },
    {
      "inputs": [
        {
          "internalType": "address",
          "name": "submitter",
          "type": "address"
        },
        {
          "internalType": "bool",
          "name": "authorized",
          "type": "bool"
        }
      ],
      "name": "setAuthorizedSubmitter",
      "outputs": [],
      "stateMutability": "nonpayable",
      "type": "function"
    },
    {
      "inputs": [
        {
          "internalType": "bytes32",
          "name": "executionId",
          "type": "bytes32"
        },
        {
          "internalType": "bytes32",
          "name": "rootHash",
          "type": "bytes32"
        }
      ],
      "name": "submitProof",
      "outputs": [],
      "stateMutability": "nonpayable",
      "type": "function"
    },
    {
      "inputs": [
        {
          "internalType": "address",
          "name": "newOwner",
          "type": "address"
        }
      ],
      "name": "transferOwnership",
      "outputs": [],
      "stateMutability": "nonpayable",
      "type": "function"
    }
  ],
  "bytecode": "0x608080604052346100a157331561008b5760008054336001600160a01b031982168117835560405192916001600160a01b03167f8be0079c531659141344cd1fd0a4f28419497f9722a3daafe3b4186f6b6457e08380a33381526002602052600160408083209260ff1993838582541617905560036020522091825416179055610bb590816100a78239f35b631e4fbdf760e01b815260006004820152602490fd5b600080fdfe6080604081815260048036101561001557600080fd5b600092833560e01c9081630705584014610a105750806311db2a7b1461086857806319d3137b146108215780631b80bb3a1461076e57806341fe0f711461070a578063444d95b0146106a85780634a83bc3a1461056b5780635197a0d3146105015780635f108639146104c95780636683bc6a146104a2578063715018a6146104455780637f6e9d4b146104075780638da5cb5b146103df578063968e72bd146101795780639b1bc0c91461015c5763f2fde38b146100d357600080fd5b34610158576020366003190112610158576100ec610a4b565b906100f5610b53565b6001600160a01b0391821692831561014257505082546001600160a01b0319811683178455167f8be0079c531659141344cd1fd0a4f28419497f9722a3daafe3b4186f6b6457e08380a380f35b51631e4fbdf760e01b8152908101849052602490fd5b8280fd5b503461015857826003193601126101585760209250549051908152f35b509190346103db57806003193601126103db5782359060243533845260206002815260ff838620541680156103c8575b15610372578385526001815260ff6003848720015460081c1661031d5781156102db576101d4610ae2565b82815281810133815261024a60038684019342855260608101948a86526080820194600186528a8c5260018852898c2092518355600183019060018060a01b039051166bffffffffffffffffffffffff60a01b8254161790555160028201550192511515839060ff801983541691151516179055565b51815461ff00191690151560081b61ff00161790558554680100000000000000008110156102c857807ffc21f0a5b79e60806354685c8551409839f9fd3d44d61b6147dd3722b3fffbed95969760016102a593019055610a95565b81549060031b9087821b91600019901b191617905582519182523390820152a280f35b634e487b7160e01b865260418752602486fd5b8560649184519162461bcd60e51b8352820152601d60248201527f496e666572656e636547756172643a207a65726f20726f6f74486173680000006044820152fd5b8560849184519162461bcd60e51b8352820152602a60248201527f496e666572656e636547756172643a20657865637574696f6e496420616c72656044820152696164792065786973747360b01b6064820152fd5b8560849184519162461bcd60e51b8352820152602b60248201527f496e666572656e636547756172643a206e6f7420616e20617574686f72697a6560448201526a321039bab136b4ba3a32b960a91b6064820152fd5b5084546001600160a01b031633146101a9565b5080fd5b5050346103db57816003193601126103db57905490516001600160a01b039091168152602090f35b5050346103db5760203660031901126103db5760209160ff9082906001600160a01b03610432610a4b565b1681526002855220541690519015158152f35b833461049f578060031936011261049f5761045e610b53565b80546001600160a01b03198116825581906001600160a01b03167f8be0079c531659141344cd1fd0a4f28419497f9722a3daafe3b4186f6b6457e08280a380f35b80fd5b50346101585760203660031901126101585760209282913581526001845220549051908152f35b50913461049f57602036600319011261049f578235925483101561049f57506104f3602092610a95565b91905490519160031b1c8152f35b5050346103db577f65e841597bbb405e702ab1f011f80e0d75035bcbcc1d0c9e30a06bcc9e140f8b602061053436610a66565b9061053d610b53565b6001600160a01b031680865260028352848620805460ff191660ff84151516179055935b519015158152a280f35b5034610158576020806003193601126106a45781549293601f939280358085111561069c5761059a9085610b18565b935b6105a68582610b18565b946105b086610b3b565b9588519688199889910116870187811067ffffffffffffffff82111761068957906105e4918a999896979a52808652610b3b565b8489019601368737805b828110610634575050505083519485948186019282875251809352850193925b82811061061d57505050500390f35b83518552869550938101939281019260010161060e565b61064381999695979899610a95565b905461064f8484610b18565b9189518310156106765760031b1c60059190911b88018701529497969593946001016105ee565b634e487b7160e01b885260328752602488fd5b634e487b7160e01b865260418552602486fd5b50819361059c565b8380fd5b5034610158576020366003190112610158578160a09360ff9235815260016020522091825492600180861b03600182015416916003600283015492015492815195865260208601528401528181161515606084015260081c1615156080820152f35b5050346103db577ffa648341f7c45a89a5ac85c79ba49a45167038f7e499f5c2d8fd43c124f30e4d602061073d36610a66565b90610746610b53565b6001600160a01b031680865260038352848620805460ff191660ff8415151617905593610561565b50346101585760203660031901126101585782829160a0946080610790610ae2565b828152826020820152828682015282606082015201523581526001602052206107b7610ae2565b815492838252600180861b0392836001820154169360208401948552600360028301549284860193845201549460ff6080606087019682891615158852019660081c1615158652835196875251166020860152519084015251151560608301525115156080820152f35b50346101585760203660031901126101585781602093600392358152600185522001549060ff8260081c16918261085c575b50519015158152f35b60ff1615915038610853565b50903461015857602090816003193601126106a4578235923385526003835260ff828620541680156109fd575b156109a9578385526001835260ff6003838720015460081c161561095c578385526001835260ff600383872001541661090c5750907f08b1b33b8154fcf0ae6423383a1288d26fa27b6dfb3b977af76439fc939846769183855260018252600381862001600160ff1982541617905551338152a280f35b82608492519162461bcd60e51b8352820152602660248201527f496e666572656e636547756172643a2070726f6f6620616c726561647920636f6044820152651b9cdd5b595960d21b6064820152fd5b82608492519162461bcd60e51b83528201526024808201527f496e666572656e636547756172643a2070726f6f6620646f6573206e6f7420656044820152631e1a5cdd60e21b6064820152fd5b82608492519162461bcd60e51b8352820152602a60248201527f496e666572656e636547756172643a206e6f7420616e20617574686f72697a65604482015269321031b7b739bab6b2b960b11b6064820152fd5b5084546001600160a01b03163314610895565b849084346101585760203660031901126101585760209260ff91906001600160a01b03610a3b610a4b565b1681526003855220541615158152f35b600435906001600160a01b0382168203610a6157565b600080fd5b6040906003190112610a61576004356001600160a01b0381168103610a6157906024358015158103610a615790565b600454811015610acc5760046000527f8a35acfbc15ff81a39ae7d344fd709f28e8600b4aa8c65c6b64bfe7fe36bd19b0190600090565b634e487b7160e01b600052603260045260246000fd5b6040519060a0820182811067ffffffffffffffff821117610b0257604052565b634e487b7160e01b600052604160045260246000fd5b91908203918211610b2557565b634e487b7160e01b600052601160045260246000fd5b67ffffffffffffffff8111610b025760051b60200190565b6000546001600160a01b03163303610b6757565b60405163118cdaa760e01b8152336004820152602490fdfea2646970667358221220ac9aa192786ad20e865a9159296412ec06d8ba90278594702995f65cb976b47964736f6c63430008180033",
  "linkReferences": {},
  "deployedLinkReferences": {}
}